:020000040800F2
:1000000000000220693F0008DD170008DF17000824
:10001000E1170008E3170008E517000800000000DA
:10002000000000000000000000000000E7170008CA
:10003000E917000800000000EB170008ED170008A2
:10004000B93F0008B93F0008B93F0008B93F0008B0
:10005000B93F0008B93F0008B93F0008B93F0008A0
:10006000B93F0008B93F0008B93F0008B93F000890
:10007000B93F0008B93F0008B93F0008B93F000880
:10008000B93F0008B93F0008B93F00080000000070
:10009000000000000000000000000000B93F000860
:1000A000B93F0008B93F0008B93F0008B93F000850
:1000B00079130008B93F0008B93F0008B93F0008AC
:1000C000B93F0008B93F0008B93F0008B93F000830
:1000D000B93F00081918000829180008000000009E
:1000E0000D180008B93F0008B93F000800000000E3
:1000F000000000000000000000000000B93F000800
:1001000000000000B93F0008B93F0008B93F0008EF
:1001100000000000000000000000000000000000DF
:10012000B93F0008B93F0008B93F0008B93F0008CF
:10013000B93F0008000000000000000000000000BF
:10014000000000000000000000000000B93F0008AF
:10015000F5170008B93F0008B93F0008B93F00088B
:10016000B93F0008B93F000800000000000000008F
:10017000000000000000000000000000000000007F
:1001800000000000B93F000800000000000000006F
:08019000B93F0008B93F000867
:1001A000034613F8012B002AFBD1181A01387047B7
:1001B00001F0FF01102A2BDB10F0070F08D010F818
:1001C000013B013A8B422DD010F0070F42B3F6D11C
:1001D000F0B441EA012141EA014122F007047FF035
:1001E00000070023F0E80256083C85EA010586EA8C
:1001F000010685FA47F5A3FA87F586FA47F6A5FAC8
:1002000087F68EB9EED1F0BC01F0FF0102F00702D3
:1002100032B110F8013B013A83EA010313B1F8D17E
:100220000020704701387047002D06BF354603385F
:10023000073815F0010F07D1013015F4807F02BF98
:10024000013015F4C03F0130F0BC0138704700BFE9
:1002500081F0004102E000BF83F0004330B54FEA77
:1002600041044FEA430594EA050F08BF90EA020FE4
:100270001FBF54EA000C55EA020C7FEA645C7FEA77
:10028000655C00F0E2804FEA5454D4EB5555B8BF9A
:100290006D420CDD2C4480EA020281EA030382EA0B
:1002A000000083EA010180EA020281EA0303362D9D
:1002B00088BF30BD11F0004F4FEA01314FF4801C70
:1002C0004CEA113102D0404261EB410113F0004F82
:1002D0004FEA03334CEA133302D0524263EB430339
:1002E00094EA050F00F0A780A4F10104D5F1200ED7
:1002F0000DDB02FA0EFC22FA05F2801841F1000132
:1003000003FA0EF2801843FA05F359410EE0A5F105
:1003100020050EF1200E012A03FA0EFC28BF4CF036
:10032000020C43FA05F3C01851EBE37101F00045EC
:1003300007D54FF0000EDCF1000C7EEB00006EEBF9
:100340000101B1F5801F1BD3B1F5001F0CD3490883
:100350005FEA30004FEA3C0C04F101044FEA4452DA
:1003600012F5800F80F09A80BCF1004F08BF5FEA61
:10037000500C50F1000041EB045141EA050130BD41
:100380005FEA4C0C404141EB0101013C28BFB1F553
:10039000801FE9D291F0000F04BF01460020B1FA9E
:1003A00081F308BF2033A3F10B03B3F120020CDA71
:1003B0000C3208DD02F1140CC2F10C0201FA0CF04F
:1003C00021FA02F10CE002F11402D8BFC2F1200CB4
:1003D00001FA02F120FA0CFCDCBF41EA0C0190406A
:1003E000E41AA2BF01EB0451294330BD6FEA0404B3
:1003F0001F3C1CDA0C340EDC04F11404C4F120029E
:1004000020FA04F001FA02F340EA030021FA04F3AF
:1004100045EA030130BDC4F10C04C4F1200220FA06
:1004200002F001FA04F340EA0300294630BD21FA44
:1004300004F0294630BD94F0000F83F4801306BF0A
:1004400081F480110134013D4EE77FEA645C18BFFE
:100450007FEA655C29D094EA050F08BF90EA020F95
:1004600005D054EA000C04BF1946104630BD91EA8D
:10047000030F1EBF0021002030BD5FEA545C05D190
:100480004000494128BF41F0004130BD14F58004CF
:100490003CBF01F5801130BD01F0004545F0FE4143
:1004A00041F470014FF0000030BD7FEA645C1ABF78
:1004B000194610467FEA655C1CBF0B46024650EAAF
:1004C000013406BF52EA033591EA030F41F40021DB
:1004D00030BD00BF90F0000F04BF0021704730B561
:1004E0004FF4806404F132044FF000054FF0000136
:1004F00050E700BF90F0000F04BF0021704730B5F7
:100500004FF4806404F1320410F0004548BF4042CB
:100510004FF000013EE700BF42004FEAE2014FEA20
:1005200031014FEA02701FBF12F07F4393F07F4FFB
:1005300081F06051704732F07F4208BF704793F0FE
:100540007F4F04BF41F40021704730B54FF4607411
:1005500001F0004521F000411CE700BF50EA010214
:1005600008BF704730B54FF000050AE050EA0102BD
:1005700008BF704730B511F0004502D5404261EB2D
:1005800041014FF4806404F132045FEA915C3FF46E
:10059000D8AE4FF003025FEADC0C18BF03325FEA0B
:1005A000DC0C18BF033202EBDC02C2F1200300FABC
:1005B00003FC20FA02F001FA03FE40EA0E0021FAE1
:1005C00002F11444BDE600BF70B54FF0FF0C4CF4CF
:1005D000E06C1CEA11541DBF1CEA135594EA0C0F81
:1005E00095EA0C0F00F0DEF82C4481EA030621EABC
:1005F0004C5123EA4C5350EA013518BF52EA0335F7
:1006000041F4801143F4801338D0A0FB02CE4FF0A8
:100610000005E1FB02E506F00042E0FB03E54FF0D8
:100620000006E1FB03569CF0000F18BF4EF0010ED0
:10063000A4F1FF04B6F5007F64F5407404D25FEACC
:100640004E0E6D4146EB060642EAC62141EA55517F
:100650004FEAC52040EA5E504FEACE2EB4F1FD0CC1
:1006600088BFBCF5E06F1ED8BEF1004F08BF5FEA3F
:10067000500E50F1000041EB045170BD06F00046F1
:1006800046EA010140EA020081EA0301B4EB5C049E
:10069000C2BFD4EB0C0541EA045170BD41F4801196
:1006A0004FF0000E013C00F3AB8014F1360FDEBFBB
:1006B000002001F0004170BDC4F10004203C35DA97
:1006C0000C341BDC04F11404C4F1200500FA05F31A
:1006D00020FA04F001FA05F240EA020001F00042BB
:1006E00021F0004110EBD37021FA04F642EB060131
:1006F0005EEA430E08BF20EAD37070BDC4F10C045B
:10070000C4F1200500FA04F320FA05F001FA04F21E
:1007100040EA020001F0004110EBD37041F100010A
:100720005EEA430E08BF20EAD37070BDC4F1200515
:1007300000FA05F24EEA020E20FA04F301FA05F27D
:1007400043EA020321FA04F001F0004121FA04F225
:1007500020EA020000EBD3705EEA430E08BF20EAF5
:10076000D37070BD94F0000F0FD101F0004640002F
:1007700041EB010111F4801F08BF013CF7D041EAB1
:10078000060195F0000F18BF704703F000465200B5
:1007900043EB030313F4801F08BF013DF7D043EA86
:1007A0000603704794EA0C0F0CEA135518BF95EA3C
:1007B0000C0F0CD050EA410618BF52EA4306D1D1C3
:1007C00081EA030101F000414FF0000070BD50EAE2
:1007D000410606BF1046194652EA430619D094EA6C
:1007E0000C0F02D150EA013613D195EA0C0F05D156
:1007F00052EA03361CBF104619460AD181EA0301AA
:1008000001F0004141F0FE4141F470014FF0000061
:1008100070BD41F0FE4141F4780170BD70B54FF0FC
:10082000FF0C4CF4E06C1CEA11541DBF1CEA13557C
:1008300094EA0C0F95EA0C0F00F0A7F8A4EB05045E
:1008400081EA030E52EA03354FEA013100F0888055
:100850004FEA03334FF0805545EA131343EA12631E
:100860004FEA022245EA111545EA10654FEA0026D3
:100870000EF000419D4208BF964244F1FD0404F58C
:10088000407402D25B084FEA3202B61A65EB0305E8
:100890005B084FEA32024FF480104FF4002CB6EBA5
:1008A000020E75EB030E22BFB61A754640EA0C0025
:1008B0005B084FEA3202B6EB020E75EB030E22BF65
:1008C000B61A754640EA5C005B084FEA3202B6EBA6
:1008D000020E75EB030E22BFB61A754640EA9C0065
:1008E0005B084FEA3202B6EB020E75EB030E22BF35
:1008F000B61A754640EADC0055EA060E18D04FEAF3
:10090000051545EA16754FEA06164FEAC30343EA92
:1009100052734FEAC2025FEA1C1CC0D111F4801F5F
:100920000BD141EA00014FF000004FF0004CB6E758
:1009300011F4801F04BF01430020B4F1FD0C88BFF7
:10094000BCF5E06F3FF6AFAEB5EB030C04BFB6EB02
:10095000020C5FEA500C50F1000041EB045170BDF5
:100960000EF0004E4EEA113114EB5C04C2BFD4EB22
:100970000C0541EA045170BD41F480114FF0000EA6
:10098000013C90E645EA060E8DE60CEA135594EA22
:100990000C0F08BF95EA0C0F3FF43BAF94EA0C0F25
:1009A0000AD150EA01347FF434AF95EA0C0F7FF49A
:1009B00025AF104619462CE795EA0C0F06D152EAEE
:1009C00003353FF4FDAE1046194622E750EA4106D2
:1009D00018BF52EA43067FF4C5AE50EA41047FF4E3
:1009E0000DAF52EA43057FF4EBAE12E74FF0FF3C48
:1009F00006E000BF4FF0010C02E000BF4FF0010C19
:100A00004DF804CD4FEA410C7FEA6C5C4FEA430C91
:100A100018BF7FEA6C5C1BD001B050EA410C0CBFE0
:100A200052EA430C91EA030F02BF90EA020F002042
:100A3000704710F1000F91EA030F58BF994208BFA9
:100A400090422CBFD8176FEAE37040F00100704766
:100A50004FEA410C7FEA6C5C02D150EA013C07D1BD
:100A60004FEA430C7FEA6C5CD6D152EA033CD3D008
:100A70005DF8040B704700BF8446104662468C4602
:100A80001946634600E000BF01B5FFF7B7FF002835
:100A900048BF10F1000F01BD4DF808EDFFF7F4FF5E
:100AA0000CBF012000205DF808FB00BF4DF808EDE9
:100AB000FFF7EAFF34BF012000205DF808FB00BF0C
:100AC0004DF808EDFFF7E0FF94BF012000205DF82E
:100AD00008FB00BF4DF808EDFFF7CEFF94BF0120E3
:100AE00000205DF808FB00BF4DF808EDFFF7C4FFDC
:100AF00034BF012000205DF808FB00BF4A0011D27E
:100B000012F5001211D20DD56FF47873B3EB625267
:100B10000ED44FEAC12343F0004343EA505323FA73
:100B200002F070474FF00000704750EA013002D1E8
:100B30004FF0FF3070474FF0000070474FEA41021E
:100B4000B2F1E04324BFB3F5001CDCF1FE5C0DD92B
:100B500001F0004C4FEAC0024CEA5070B2F1004F75
:100B600040EB830008BF20F00100704711F0804F78
:100B700021D113F13872BCBF01F00040704741F43D
:100B800080114FEA5252C2F11802C2F1200C10FA41
:100B90000CF320FA02F018BF40F001004FEAC12325
:100BA0004FEAD32303FA0CFC40EA0C0023FA02F3C9
:100BB0004FEA4303CCE77FEA625307D150EA01339F
:100BC0001EBF4FF0FE4040F44000704701F000406F
:100BD00040F0FE4040F40000704700BF53B94AB9EE
:100BE000002908BF00281CBF4FF0FF314FF0FF3035
:100BF00000F00CB8ADF1080C6DE904CE06F032FF40
:100C0000DDF804E0DDE9022304B07047704700BF5F
:100C10000348044B834202D0034B03B1184770478B
:100C2000D4010020D4010020000000000548064B3C
:100C30001B1AD90F01EBA301491002D0034B03B1DA
:100C400018477047D4010020D401002000000000A4
:100C500010B5064C237843B9FFF7DAFF044B13B104
:100C60000448AFF300800123237010BDD40100209D
:100C700000000000207D000808B5054B1BB10549A8
:100C80000548AFF30080BDE80840FFF7CFBF00BFC5
:100C900000000000D8010020207D000810B500F001
:100CA00081F800F027F900F067F900F0ABFB642051
:100CB00002F07EFA2E4C204600F090FB2D4800F00A
:100CC0008DFB204600F08AFB2B4800F087FB00F0EC
:100CD00059FA00282FD1294800F080FB00F0D6FBFC
:100CE000274B18706421032000F01EF9254B1B7858
:100CF00013B1234B1C7834BB234800F06FFB214B0E
:100D00001B7823B31E4B1C782CB30024184800F02A
:100D100065FB1E4B1B7813BB3CBB1D4B1B78002B8C
:100D2000F7D11C4B9988186801F044FF4FF4FA7012
:100D300002F03EFAEDE700F06DFB0028CBD0114B3E
:100D400001221A70C7E7144800F048FBDEE7134899
:100D500000F044FBD6E7124800F040FBD6E70B4B0F
:100D600000221A7000F09AFCD6E700F0C5FBD4E729
:100D7000547D0008807D0008AC7D0008D47D00080B
:100D8000F0010020F1010020307E000875050020F0
:100D9000F801002010020020F47D0008647E0008A5
:100DA000847E000808B502F0D7F900F06BFA00F075
:100DB00013F800F0F9FA00F027F900F0B5FA08BDD1
:100DC00008B5044B186818B10122998801F0ECFEAF
:100DD00072B6FEE71002002030B58BB000240594F7
:100DE000069407940894099401941F4B1A6B42F0DF
:100DF00001021A631A6B02F001020192019A029435
:100E00001A6B42F002021A631A6B02F0020202929B
:100E1000029A03941A6B42F004021A631A6B02F0EE
:100E200004020392039A04941A6B42F080021A633C
:100E30001B6B03F080030493049B4FF40053059352
:100E40004FF4881306930225079505A9074801F07A
:100E5000C7FD22462946282002F030F9282002F05A
:100E60003DF90BB030BD00BF003802400008024021
:100E700048B108B50346006820B119720A4699883E
:100E800001F092FE08BD704770B58AB005466B460A
:100E900083E8060007AE93E8030086E80500002417
:100EA0008DF8244002940394049405940694BDF8AC
:100EB0002030029301230393059302A901F090FDD2
:100EC00021463046FFF7D4FF96E8070085E8070083
:100ED00028460AB070BD60B108B50346006838B155
:100EE0001A7AB2FA82F252091A72998801F062FEF5
:100EF00008BD704730B587B0094A04AB92E80300DB
:100F000083E80300074D6C4693E806002046FFF790
:100F1000BBFF94E8070085E8070007B030BD00BFBD
:100F2000387D00081002002070B505460E460024EA
:100F300006E00748FFF7CFFF304602F039F90134E9
:100F4000B4EB450FF5DB00210148FFF791FF70BDC1
:100F50001002002082B002AB03E9060050B1034644
:100F600002AA12E9030083E8030000221A721A742D
:100F70005A72DA6002B0704700B583B06B46064A19
:100F800092E8030083E8030093E806000348FFF7B4
:100F9000E1FF03B05DF804FB407D0008FC01002088
:100FA00038B5044602F0FEF8114B9B88A34200D0EE
:100FB00038BD05460F4B1B68C31A642BF8D90E4B7E
:100FC0001A7882F001021A701B784BB101210B488C
:100FD000FFF74EFF0A4800F001FA064B1D60E7E7F5
:100FE00000210648FFF744FF064800F0F7F9F4E750
:100FF000FC010020F4010020F80100201002002074
:10100000A87E0008C87E000808B5174800F0E6F979
:101010001648174B0360174B436000238360C3607F
:101020004FF48042026143618361C361036202F055
:101030005DFB98B9104800F0D1F9002211461F203D
:1010400002F03CF81F2002F049F801220021202084
:1010500002F034F8202002F041F808BD074800F003
:10106000BDF9FFF7ADFEE5E7E87E0008600300206C
:1010700000540040A0860100387F0008087F000867
:1010800038B56423032230211E4802F03BFEA8B18C
:101090000246022817D0032823D001282CD11A4C4D
:1010A0001A4D0FCD0FC40FCD0FC495E80F0007C424
:1010B0002370154800F092F9002038BD144800F064
:1010C0008DF90120F9E7104C124D0FCD0FC40FCD53
:1010D0000FC495E8070003C424F8022B120C2270F9
:1010E000E7E7094C0C4D0FCD0FC40FCD0FC40FCD4A
:1010F0000FC42B682370DCE70849034802F096FF11
:10110000D7E700BF600300201C030020747F0008A5
:10111000547F0008A47F0008D07F000804800008E6
:1011200010B586B057238DF817306423029301233E
:1011300001930DF117020092202230210C4802F099
:10114000B3FB38B90B4800F049F90B4B01221A7078
:1011500006B010BD0246094C0949204602F066FF60
:10116000204600F03BF9044B00221A70F0E700BF64
:1011700060030020308000085C030020DC020020B7
:101180005880000810B5094800F028F9FFF778FFEB
:10119000044630B1FFF7C4FF054800F01FF92046B0
:1011A00010BD044800F01AF9F9E700BF908000086C
:1011B000BC800008F080000830B587B004460023EA
:1011C0008DF817304FF0FF330293012301930DF197
:1011D0001702009202463021094802F017FC18B9A4
:1011E0009DF8170007B030BD0346064D224606495C
:1011F000284602F01BFF284600F0F0F8F0E700BF99
:10120000600300209C0200202881000810B586B0F1
:101210004FF47A7302930623019304AB00930123E6
:10122000A8223021134802F0F1FBC8B99DF8123012
:101230009DF813209DF814109DF815000E4C039096
:101240000291019200939DF811309DF810200B49F6
:10125000204602F0EBFE204600F0C0F806B010BDBC
:101260000246054C0649204602F0E0FE204600F00A
:10127000B5F8F3E7600300201C0200205481000849
:101280009C81000800B595B03022002108A803F029
:1012900031FE002303930493059306930793019370
:1012A0001F4A116C41F080511164126C02F080529F
:1012B0000192019A02931B4A116841F44041116066
:1012C000126802F440420292029A0221089101221D
:1012D0000B9210220C920E910F9310924FF4A87360
:1012E000119304231293139308A801F039F880B9DD
:1012F0000F23039302210491002305934FF480529E
:101300000692079303A801F095FA28B915B05DF885
:1013100004FBFFF755FDEBE7FFF752FDF6E700BFD3
:10132000003802400070004000B583B000230193F4
:101330000F4A116C41F001011164126C02F00102BC
:101340000192019A0B484FF08042026042F2CF02B4
:101350004260836042F20F72C2600361836100F0F9
:1013600039FC10B903B05DF804FBFFF729FDF9E77C
:1013700000380240B403002008B5024800F028FB02
:1013800008BD00BFB4030020704738B505460C46C1
:1013900001F008FF2368C31AAB4201D2002038BD18
:1013A00020600120FBE7000008B50A480A4B0360F3
:1013B0004FF4E133436000238360C36003610C2278
:1013C00042618361C36100F05CFD00B908BDFFF7B5
:1013D000F7FCFBE75C0400200044004068B110B556
:1013E0000446FEF7DDFE82B202B910BD4FF0FF33B6
:1013F0002146024800F075FDF7E770475C040020C5
:101400007047000008B501F0CDFE014B186008BD23
:10141000EC04002030B5A1B01748FFF7DFFF0A2029
:1014200001F0C6FE0F20FFF7C7FE04463323024635
:101430001249684602F0FAFD6846FFF7CFFF202008
:10144000FFF7BAFE0546572302460D49684602F0EB
:10145000EDFD6846FFF7C2FF332C01D1572D05D0B3
:101460000848FFF7BBFF002021B030BD0648FFF75A
:10147000B5FF0120F8E700BFC0810008E481000843
:10148000108200086C8200083C82000838B501F028
:1014900089FE04461348FFF7A1FF07E0124B998825
:1014A000186801F087FB642001F082FE002000F044
:1014B00049F9054668B901F075FE001B0B4B9842CF
:1014C000ECD90B48FFF78AFF00210748FFF7D0FC53
:1014D00006E00848FFF782FF00210348FFF7C8FC39
:1014E000284638BD9482000810020020E0930400D2
:1014F000D0820008F882000808B5084B1B7803B9B1
:1015000008BD07494FF47A70FFF73FFF0028F7D076
:10151000FFF77CFE00F02CF9F2E700BFF801002095
:10152000EC04002038B310B50C46027812B99FEDD8
:10153000130A10BD02F041FD51EC100BFFF7FEFA4B
:1015400007EE900A9FED0E7A87EE870ABDEEC00A7D
:10155000B8EEC00A20EE077A77EEC77ADFED096AA7
:1015600087EEA67A30EE070A532C01D0572CE0D133
:10157000B1EE400ADDE79FED010A70470000000070
:101580000000C8420000704230B5B3B001467F226F
:1015900003A803F0C9FC00248DF88B403A4903A846
:1015A00003F0D6FC0AE0651C32AB03EB840444F87C
:1015B0003C0C3549002003F0CBFC2C4608B10E2C26
:1015C000F1DD082C0BDD259B1B78412B0BD02F4B1D
:1015D00000221A7500229A60DA6033B030BD2B4BBE
:1015E00000221A75F9E7294B01221A75249D284615
:1015F000FEF7D6FD052824D8042C07DD26980378AD
:1016000043BB062C07DD289803785BBB072C02DD63
:101610002A98037873BB1D4BD3ED027A9FED1C7A99
:1016200067EE877AC3ED037A2B980378002BD4D02A
:1016300002F0C3FC51EC100BFFF780FA134B18615A
:10164000CBE7144B5A1C00925A1E1349284602F04D
:101650000FFDD1E7279B1978FFF764FF0B4B83ED54
:10166000000ACEE7299B1978FFF75CFF074B83ED53
:10167000010ACBE702F0A1FC51EC100BFFF75EFA78
:10168000024B9860C7E700BF188300087C07002062
:10169000560EED3F920700201C83000838B5224B00
:1016A000DB6B1B685D68C5F5007512E000211F4B00
:1016B000197080221E4803F01DFC1E4B01221A7077
:1016C0000FE00A2C1BD01C4A13680133C3F3080334
:1016D0001360194B1B68AB4225D0184AD45C242CEC
:1016E000E4D0144B1B78002BEBD0104A12787E2AE2
:1016F000E7D8501C0D4908700D498C54E1E7002BC8
:10170000E1D00A4B1A780A4800238354094A13701F
:101710000B4903F079FC10B10548FFF735FF034B87
:1017200000221A70CFE738BDA40400207405002001
:10173000F4040020F0040020780500207C0500203F
:101740002C83000870B110B48446084C0FCCACE870
:101750000F0094E803008CE80300044B187D5DF84B
:10176000044B7047014B187D704700BF7C07002079
:1017700000B5ADB026A8FFF7E5FFC8B12798FEF782
:10178000CBFECDE904012698FEF7C6FECDE90201A5
:101790002998FEF7C1FECDE90001074A802106A87D
:1017A00002F00EFC06A8FFF719FE2DB05DF804FB51
:1017B0000248FFF713FEF8E7308300087083000843
:1017C0000268044B9A4200D07047034B01221A7002
:1017D000FAE700BF0010014075050020FEE7FEE7B4
:1017E000FEE7FEE7FEE770477047704708B501F077
:1017F000CDFC08BD08B50348FFF7F0FD024801F035
:101800001BFB08BD8C830008FC03002008B54FF4C7
:10181000005001F0D9F908BD08B5024800F050FCAD
:1018200008BD00BFA404002008B5024800F048FC31
:1018300008BD00BF5C04002000B583B0002100910A
:101840000C4B5A6C42F480425A645A6C02F4804247
:101850000092009A01911A6C42F080521A641B6C3B
:1018600003F080530193019B032001F015FC03B0AA
:101870005DF804FB0038024070B58AB00023059380
:1018800006930793089309930368484A934204D048
:10189000474A93425DD00AB070BD044600250095CA
:1018A000444E736C43F010037364736C03F01003C5
:1018B0000093009B0195336B43F001033363336B5B
:1018C00003F001030193019B4FF4C06305930223CE
:1018D000069301230793032308930723099305A97C
:1018E000354801F07DF80295336B43F48003336390
:1018F000336B03F480030293029B3048304B036048
:101900004FF0006343608560C5604FF480630361FE
:10191000456185614FF48073C3610562456201F0E2
:10192000C7F998B9254BE3639C6300220321252066
:1019300001F0C4FB252001F0D1FB0022032144204B
:1019400001F0BCFB442001F0C9FBA4E7FFF738FA23
:10195000E8E700240394174B1A6C42F400321A642F
:101960001A6C02F400320392039A04941A6B42F048
:1019700001021A631B6B03F001030493049B0C2305
:101980000593022506950123079303230893072354
:10199000099305A9084801F023F822462946262084
:1019A00001F08CFB262001F099FB74E70010014048
:1019B000004400400038024000000240FC030020C8
:1019C000886402407047704770477047704770479F
:1019D00070B504460368DE681D6915F0020F10D06B
:1019E00016F0020F0DD06FF002021A610123037787
:1019F00003689B6913F0030F5ED0FFF7E6FF002337
:101A0000237715F0040F12D016F0040F0FD02368BF
:101A10006FF004021A610223237723689B6913F491
:101A2000407F4FD02046FFF7D0FF0023237715F0EB
:101A3000080F12D016F0080F0FD023686FF00802BD
:101A40001A61042323772368DB6913F0030F40D066
:101A50002046FFF7BAFF0023237715F0100F12D0AE
:101A600016F0100F0FD023686FF010021A610823D0
:101A700023772368DB6913F4407F31D02046FFF7DA
:101A8000A4FF0023237715F0010F02D016F0010FF9
:101A90002DD115F0800F02D016F0800F2FD115F048
:101AA000400F02D016F0400F31D115F0200F02D0B8
:101AB00016F0200F33D170BDFFF786FF2046FFF7E9
:101AC00085FF9CE72046FFF77FFF2046FFF77EFF5C
:101AD000ABE72046FFF778FF2046FFF777FFBAE72E
:101AE0002046FFF771FF2046FFF770FFC9E7236824
:101AF0006FF001021A612046FFF746FCC9E7236830
:101B00006FF080021A61204600F091F8C7E7236861
:101B10006FF040021A612046FFF759FFC5E72368BE
:101B20006FF020021A61204600F080F8C3E7000041
:101B30000368274A90420ED0B0F1804F0BD0A2F537
:101B40007C42904207D002F58062904203D002F5B9
:101B50008062904203D123F070034A6813431C4A09
:101B600090421AD0B0F1804F17D0A2F57C4290423B
:101B700013D002F5806290420FD002F5806290424D
:101B80000BD002F59A32904207D002F58062904263
:101B900003D002F58062904203D123F44073CA68F7
:101BA000134323F080034A6913438A68C2620A68B8
:101BB0008262074A904207D0026842F00402026043
:101BC00001224261036070470A690263F4E700BFC3
:101BD0000000014040B310B5044690F83D30F3B129
:101BE000022384F83D30214651F8040BFFF7A0FF93
:101BF000012384F8463084F83E3084F83F3084F87E
:101C0000403084F8413084F8423084F8433084F81E
:101C1000443084F8453084F83D30002010BD80F811
:101C20003C30FFF7D0FEDBE701207047704770477C
:101C3000026802F10C0353E8003F23F490730C3266
:101C400042E800310029F3D1026802F1140353E89D
:101C5000003F23F00103143242E800310029F3D1A0
:101C6000036B012B05D0202380F84230002303634F
:101C70007047026802F10C0353E8003F23F01003A1
:101C80000C3242E800310029F3D1ECE790F8413002
:101C9000DBB2212B01D0022070478368B3F5805F4F
:101CA00017D0036A5A1C02621A7803685A60C38C00
:101CB0009BB2013B9BB2C3844BB90268D36823F04B
:101CC0008003D3600268D36843F04003D3600020F0
:101CD00070470369002BE4D1036A1B880268C3F3D1
:101CE00008035360036A02330362E0E710B5044659
:101CF0000268136923F44053C1680B43136183687E
:101D000002691A4343691A43C3691A430168CB68DD
:101D100023F4164323F00C031343CB60026853698A
:101D200023F4407381690B4353610368314A934242
:101D300006D002F58062934202D000F031FE01E04D
:101D400000F03EFEE369B3F5004F29D000210318EF
:101D500049411B1841F10001C90041EA5371DB0000
:101D6000181863684FEA83024FEA937341F1000148
:101D7000FEF734FF204AA2FB00314909642303FB2C
:101D800011031B013233A2FB03235B0903F0F002B2
:101D900002EB011203F00F03216813448B6010BDA6
:101DA0000023021843EB0301121841F10001C9009E
:101DB00041EA5271D200101841F100016268921894
:101DC0005B41FEF70BFF0C4AA2FB0031490964237B
:101DD00003FB1103DB003233A2FB03235B095A0030
:101DE00002F4F87202EB011203F0070321681344B6
:101DF0008B60D4E7001001401F85EB512DE9F043C3
:101E000083B005460E4617469946DDF828802B68B4
:101E10001C6836EA04040CBF01240024BC4228D10B
:101E2000B8F1FF3FF3D001F0BDF9A0EB0900404548
:101E300023D8B8F1000F22D02B68DA6812F0040F13
:101E4000E5D0802EE3D0402EE1D01A6812F0080FC2
:101E5000DDD0002401941A6801925B680193019B14
:101E60002846FFF7E5FE08236B6485F84040012013
:101E700000E0002003B0BDE8F0830320FAE7032070
:101E8000F8E760B310B5044690F8413013B324234B
:101E900084F841302268D36823F40053D36020468D
:101EA000FFF724FF2268136923F49043136122682B
:101EB000536923F02A0353612268D36843F4005323
:101EC000D36000206064202384F8413084F84230DD
:101ED000606310BD80F84030FFF7CEFCD7E70120EB
:101EE00070472DE9F04182B01E4690F84130DBB2D8
:101EF000202B56D104460D469046002955D00AB9EC
:101F000001204FE000234364212380F8413001F099
:101F100049F90746A4F82480A4F82680A368B3F5FD
:101F2000805F02D04FF0000814E023692BB34FF01C
:101F300000080FE0202384F84130032032E038F815
:101F4000023B2268C3F308035360E28C92B2013A69
:101F500092B2E284E38C9BB293B100963B4600229E
:101F600080212046FFF74AFF0028E3D1002DE6D06C
:101F700015F8012B23685A60E7E7A8460025E9E732
:101F800000963B46002240212046FFF737FF18B954
:101F9000202384F8413005E0202384F841300320D9
:101FA00000E0022002B0BDE8F0810120FAE708B5A8
:101FB0000168CA6822F04002CA60202280F84120ED
:101FC000FFF71EFA002008BD704708B5806B00239C
:101FD000C385FFF7F9FF08BD704790F84230DBB2C8
:101FE000222B69D18368B3F5805F4FD0826AB3F545
:101FF000805F04D0002B56D10369002B53D10368B6
:102000005B681370836A01338362C38D9BB2013BAB
:102010009BB2C385002B51D100B583B00268D36851
:1020200023F02003D3600268D36823F48073D36065
:102030000268536923F001035361202380F8423082
:1020400000234363036B012B33D100230363026836
:1020500002F10C0353E8003F23F010030C3242E876
:1020600000310029F3D103681A6812F0100F06D06E
:10207000002201921A6801925B680193019B818D95
:10208000FFF7AAFF002003B05DF804FB0269002AF5
:10209000ACD1826A03685B68C3F308031380836A68
:1020A00002338362B1E703685B6803F07F03137058
:1020B000A8E7FFF785FBE5E702207047002070479F
:1020C00010B582B0044602681368D068516913F0F5
:1020D0000F0F09D113F0200F0CD010F0200F09D0F2
:1020E0002046FFF77AFF16E011F0010115D110F438
:1020F000907F12D1216B012979D013F0800F03D08A
:1021000010F0800F40F0218113F0400F03D010F049
:10211000400F40F01E8102B010BD13F0010F06D039
:1021200010F4807F03D0626C42F00102626413F00D
:10213000040F04D019B1626C42F00202626413F021
:10214000020F04D019B1626C42F00402626413F011
:10215000080F07D010F0200F00D119B1626C42F0C7
:1021600008026264626C002AD5D013F0200F02D0FE
:1021700010F0200F29D123685B6903F04003626CE3
:1021800012F0080F00D163B32046FFF751FD23681A
:102190005B6913F0400F20D0226802F1140353E86A
:1021A000003F23F04003143242E800310029F3D10C
:1021B000E36B73B1694A1A65E06B00F029FE0028F1
:1021C000A9D0E06B036D9847A5E72046FFF705FF10
:1021D000D1E72046FFF7F8FE9DE72046FFF7F4FE23
:1021E00099E72046FFF7F0FE0023636493E713F0BE
:1021F000100F82D010F0100F3FF47FAF0023019337
:102200001368019353680193019B536913F0400FC6
:102210005FD0E26B13685B689BB2002B4AD0A18D44
:10222000994247D9E385D369B3F5807F37D02268D7
:1022300002F10C0353E8003F23F480730C3242E8B0
:1022400000310029F3D1226802F1140353E8003F62
:1022500023F00103143242E800310029F3D122684F
:1022600002F1140353E8003F23F04003143242E824
:1022700000310029F3D1202384F842300023236366
:10228000226802F10C0353E8003F23F010030C32E4
:1022900042E800310029F3D1E06B00F06FFD02232A
:1022A0006363A18DE38D9BB2C91A89B22046FFF703
:1022B00093FE30E7A18D99427FF42DAFD369B3F53A
:1022C000807F7FF428AF022363632046FFF784FEFC
:1022D00021E7A18DE38D9BB2C91A89B2E38D9BB230
:1022E000002B3FF418AF00293FF415AF226802F12C
:1022F0000C0353E8003F23F490730C3242E80030A3
:102300000028F3D1226802F1140353E8003F23F0C0
:102310000103143242E800300028F3D1202384F86E
:10232000423000232363226802F10C0353E8003F8C
:1023300023F010030C3242E800300028F3D10223CE
:1023400063632046FFF748FEE5E62046FFF79EFC64
:10235000E1E62046FFF72BFEDDE600BFCB1F0008BD
:10236000002800F0E08170B582B00446036813F0E5
:10237000010F3BD09F4B9B6803F00C03042B2CD028
:102380009C4B9B6803F00C03082B21D06368B3F5CA
:10239000803F4FD0B3F5A02F52D0964B1A6822F44D
:1023A00080321A601A6822F480221A606368002B57
:1023B00050D000F0F7FE05468E4B1B6813F4003F2B
:1023C00014D100F0EFFE401B6428F5D90320B1E1E1
:1023D000884B5B6813F4800FD8D0864B1B6813F4CE
:1023E000003F03D06368002B00F09F81236813F047
:1023F000020F54D07F4B9B6813F00C0F3ED07D4BE7
:102400009B6803F00C03082B33D0E368002B68D0E3
:10241000794B01221A6000F0C5FE0546754B1B681A
:1024200013F0020F54D100F0BDFE401B0228F5D975
:1024300003207FE16F4A136843F480331360B5E7EC
:102440006C4B1A6842F480221A601A6842F4803297
:102450001A60ABE700F0A6FE0546664B1B6813F456
:10246000003FC3D000F09EFE401B6428F5D9032036
:1024700060E1604B5B6813F4800FC6D15D4B1B6855
:1024800013F0020F03D0E368012B40F05081594A4A
:10249000136823F0F803216943EAC103136023683A
:1024A00013F0080F42D063696BB3534B0122C3F89A
:1024B000802E00F077FE05464E4B5B6F13F0020F47
:1024C00034D100F06FFE401B0228F5D9032031E122
:1024D000484A136823F0F803216943EAC1031360F3
:1024E000DDE7454B00221A6000F05CFE0546414BDB
:1024F0001B6813F0020FD2D000F054FE401B0228DC
:10250000F5D9032016E13C4B0022C3F8802E00F0E1
:1025100049FE0546374B5B6F13F0020F06D000F003
:1025200041FE401B0228F5D9032003E1236813F084
:10253000040F77D02F4B1B6C13F0805F33D1002337
:1025400001932C4B1A6C42F080521A641B6C03F0FE
:1025500080530193019B0125284B1B6813F4807F56
:1025600023D0A368012B34D0052B38D0214B1A6F10
:1025700022F001021A671A6F22F004021A67A36898
:10258000002B3DD000F00EFE06461A4B1B6F13F0D9
:10259000020F46D100F006FE801B41F288339842BC
:1025A000F3D90320C6E00025D6E7144A136843F4A4
:1025B0008073136000F0F6FD0646104B1B6813F4A1
:1025C000807FCED100F0EEFD801B0228F5D90320DC
:1025D000B0E0084A136F43F001031367CFE7054BE0
:1025E0001A6F42F004021A671A6F42F001021A676A
:1025F000C5E700BF003802400000474200700040BD
:1026000000F0D0FD0646524B1B6F13F0020F08D0AE
:1026100000F0C8FD801B41F288339842F3D90320B3
:1026200088E0EDB9A369002B00F08380484A9268E6
:1026300002F00C02082A51D0022B17D0454B002281
:102640001A6600F0AFFD0446414B1B6813F0007F93
:1026500042D000F0A7FD001B0228F5D9032069E055
:102660003B4A136C23F080531364DBE7394B0022A1
:102670001A6600F097FD0546354B1B6813F0007F86
:1026800006D000F08FFD401B0228F5D9032051E051
:10269000E369226A1343626A43EA8213A26A520818
:1026A000013A43EA0243E26A43EA0263284A53607A
:1026B000284B01221A6600F075FD0446244B1B6866
:1026C00013F0007F06D100F06DFD001B0228F5D944
:1026D00003202FE000202DE000202BE0012B2BD049
:1026E0001B4B5B6803F48001E269914226D103F041
:1026F0003F02216A8A4223D1616A47F6C0721A40BA
:10270000B2EB811F1ED103F44031A26A5208013A94
:10271000B1EB024F18D103F07063E26AB3EB026FC2
:1027200014D1002006E001207047012002E00120C2
:1027300000E0002002B070BD0120FBE70120F9E7B6
:102740000120F7E70120F5E70120F3E70120F1E799
:10275000003802400000474208B5334B9B6803F045
:102760000C03042B5BD0082B5BD12F4B5A6802F073
:102770003F025B6813F4800F2CD02B4B5868C0F3DA
:1027800088104FEA401CBCEB000C6EEB0E0E4FEABB
:102790008E1343EA9C634FEA8C11B1EB0C0163EB9F
:1027A0000E03DB0043EA5173C90011EB000C43F147
:1027B0000003590200234FEA4C2041EADC51FEF7A6
:1027C0000DFA194B5B68C3F3014301335B00B0FBA7
:1027D000F3F008BD144B5868C0F388104FEA401C52
:1027E000BCEB000C6EEB0E0E4FEA8E1343EA9C63BB
:1027F0004FEA8C11B1EB0C0163EB0E03DB0043EAF3
:102800005173C90011EB000C43F10003990200233E
:102810004FEA8C2041EA9C51FEF7E0F9D1E70348EA
:10282000D7E70348D5E700BF0038024000127A001E
:102830000024F400002800F09B8070B50D4604468B
:102840004F4B1B6803F007038B4208D2CBB24C4AB4
:102850001370136803F007038B4240F08B802368EA
:1028600013F0020F17D013F0040F04D0454A9368F9
:1028700043F4E0539360236813F0080F04D0414AF7
:10288000936843F4604393603E4A936823F0F003F7
:10289000A1680B439360236813F0010F32D0636883
:1028A000012B21D09A1E012A25D9364A126812F02E
:1028B000020F61D033498A6822F0030213438B6010
:1028C00000F070FC06462F4B9B6803F00C03626817
:1028D000B3EB820F16D000F065FC801B41F2883309
:1028E0009842F0D9032042E0264A126812F4003FD1
:1028F000E0D101203BE0234A126812F0007FD9D1D9
:10290000012034E01E4B1B6803F00703AB4207D9DC
:10291000EAB21B4B1A701B6803F00703AB422DD1C0
:10292000236813F0040F06D0164A936823F4E0538B
:10293000E1680B439360236813F0080F07D0114A36
:10294000936823F46043216943EAC1039360FFF76E
:1029500003FF0C4B9B68C3F303130B4AD35CD840B3
:102960000A4B18600A4B186800F0D0FB002070BDBD
:10297000012070470120FAE70120F8E70120F6E77F
:10298000003C024000380240C883000808000020D4
:1029900004000020014B1868704700BF08000020A9
:1029A00008B5FFF7F7FF044B9B68C3F38223034A84
:1029B000D35CD84008BD00BF00380240C083000887
:1029C00008B5FFF7E7FF044B9B68C3F34233034AA4
:1029D000D35CD84008BD00BF00380240C083000867
:1029E00000230F2B00F2D78070B582B065E08568B8
:1029F0004FEA430E032404FA0EF425EA0405CC68DA
:102A000004FA0EF42C438460446824EA02044A6801
:102A1000C2F300129A40224342605CE0DC080834B2
:102A200050F8242003F00705AD004FF00F0E0EFA0A
:102A300005FE22EA0E0E0A69AA4042EA0E0240F89A
:102A400024205CE0042200E0002202FA0EF22A4375
:102A50000234514D45F82420504A94686FEA0C0224
:102A600024EA0C054E6816F4801F01D04CEA0405D8
:102A70004A4CA560E46802EA04054E6816F4001F9B
:102A800001D04CEA0405454CE560646802EA04059F
:102A90004E6816F4003F01D04CEA04053F4C6560D7
:102AA000246822404D6815F4803F01D04CEA0402AE
:102AB0003A4C226001330F2B6BD801229A400C68EC
:102AC00004EA020C32EA0404F4D14C6804F0030472
:102AD000013C012C8BD94A6802F00302032A09D079
:102AE000C4685D000322AA4024EA02048A68AA405E
:102AF0002243C2604A6802F00302022A8ED00468B0
:102B00004FEA430E032202FA0EF224EA02044A6854
:102B100002F0030202FA0EF2224302604A6812F443
:102B2000403FC7D0002201921D4A546C44F48044B7
:102B30005464526C02F480420192019A9C08A51CD4
:102B4000154A52F8255003F0030E4FEA8E0E0F225D
:102B500002FA0EF225EA0205124A90423FF474AFDF
:102B600002F5806290420ED002F5806290420CD055
:102B700002F5806290420AD002F5806290423FF4F2
:102B800061AF072261E701225FE702225DE70322CE
:102B90005BE702B070BD704700380140003C014067
:102BA00000380240000002400AB181617047090408
:102BB00081617047436901EA030221EA030141EAA6
:102BC000024181617047000008B5054B5B69034213
:102BD00000D108BD024B5861FEF7E2F9F9E700BFEA
:102BE000003C014010B40368D9B210390A4AA2FB74
:102BF00001421209094CA25CC2655F2907D96FF333
:102C0000090304338365806D5DF8044B70476FF3EF
:102C100009038365F7E700BFABAAAAAAB883000837
:102C2000836A826992B9012B0AD0022B02D00BB1C0
:102C300000207047C36A13F0807F28D100207047BE
:102C4000C36AB3F1C07F24D000207047B2F5005FA3
:102C500009D0022B25D9032B25D1C36A13F0807F1D
:102C600023D100207047032B03D8DFE803F01404BE
:102C7000140A00207047C36A13F0807F0DD1002032
:102C80007047C36AB3F1C07F09D0002070470120AC
:102C900070470120704701207047012070470120D4
:102CA00070470120704700207047012070470000E6
:102CB00070B5044600F076FA002C5BD0054602237E
:102CC00084F83530002384F834302268136823F008
:102CD0000103136023681A6812F0010F0AD000F094
:102CE00061FA431B052BF5D920236365032084F883
:102CF000350070BD1A68204911406268A06802431F
:102D0000E06802432069024360690243A06902430C
:102D1000E0690243206A02430A43616A04291ED023
:102D20001A602668756925F00705636A1D43042B40
:102D300007D1A36A1D43E36A1BB12046FFF770FF6A
:102D400090B975612046FFF74DFFE26D3F23934038
:102D5000836000206065012384F83530C9E7E16AAB
:102D6000206B01430A43DBE740236365012084F8BD
:102D70003500BEE70120BCE73F8010F070B5044687
:102D8000866D00F00FFA94F83530DBB2022B06D0D6
:102D900080236365002384F83430012070BD05462C
:102DA0002268136823F0160313602268536923F026
:102DB00080035361236CE3B12268136823F0080396
:102DC00013602268136823F00103136023681B68F3
:102DD00013F0010F11D000F0E5F9431B052BF5D9D5
:102DE00020236365032084F83500002384F8343001
:102DF000D4E7A36C002BDFD1E3E7E26D3F239340E0
:102E0000B360012384F83530002084F83400C5E72E
:102E100090F83530DBB2022B03D0802343650120CC
:102E20007047052380F835300268136823F00103EA
:102E30001360002070470000F0B583B00446002303
:102E40000193724B1D68724BA3FB0535AD0A876D6C
:102E50003E68C26D08239340334210D003681A685D
:102E600012F0040F0BD01A6822F004021A60C26D2F
:102E700008239340BB60436D43F001034365E26D5B
:102E800001239340334209D02268526912F0800F27
:102E900004D0BB60636D43F002036365E26D0423FD
:102EA0009340334209D02268126812F0020F04D016
:102EB000BB60636D43F004036365E26D10239340D0
:102EC000334224D02268126812F0080F1FD0BB6072
:102ED00023681A6812F4802F0DD01B6813F4002F9A
:102EE00004D1236C9BB12046984710E0A36C73B1CA
:102EF000204698470BE01A6812F4807F03D11A68C5
:102F000022F008021A60236C0BB120469847E26D4C
:102F100020239340334255D02268126812F0100FDC
:102F200050D0BB6094F83530DBB2052B0ED023684F
:102F30001A6812F4802F33D01B6813F4002F2AD1A3
:102F4000636C002B3ED0204698473BE02268136814
:102F500023F0160313602268536923F08003536142
:102F6000236CA3B12268136823F008031360E26D99
:102F70003F239340BB60012384F83530002384F85D
:102F80003430236D002B3FD0204698473CE0A36CA3
:102F9000002BE7D1EBE7E36BA3B12046984711E0A4
:102FA0001A6812F4807F09D11A6822F010021A60A0
:102FB000012384F83530002384F83430E36B0BB1FF
:102FC00020469847636DFBB1636D13F0010F17D076
:102FD000052384F835302268136823F00103136059
:102FE000019B01330193AB4204D823681B6813F0A3
:102FF000010FF5D1012384F83530002384F83430F3
:10300000E36C0BB12046984703B0F0BD08000020E8
:10301000B5814E1B002807DB00F01F024009012389
:103020009340024A42F82030704700BF00E100E0C0
:10303000002808DB0901C9B200F1604000F56140D9
:1030400080F80013704700F00F000901C9B2014B6E
:103050001954704714ED00E000B500F00700C0F10E
:10306000070CBCF1040F28BF4FF0040C031D062B06
:103070000FD9C31E4FF0FF3E0EFA0CF021EA0001FB
:1030800099400EFA03FE22EA0E0241EA02005DF8C0
:1030900004FB0023EEE70000074AD36823F4E06353
:1030A0001B041B0C000200F4E060034343F0BF6309
:1030B00043F40033D360704700ED00E010B50446E0
:1030C000054BD868C0F30220FFF7C6FF0146204633
:1030D000FFF7AEFF10BD00BF00ED00E008B5FFF741
:1030E00099FF08BD0138B0F1807F0BD24FF0E0238B
:1030F0005861054AF02182F82310002098610722C8
:103100001A6170470120704700ED00E010B50446D9
:103110000E4B1A784FF47A73B3FBF2F30C4A106833
:10312000B0FBF3F0FFF7DEFF68B90F2C01D90120E7
:103130000AE0002221464FF0FF30FFF7BFFF054BAA
:103140001C60002000E0012010BD00BF0000002036
:10315000080000200400002008B50B4B1A6842F458
:1031600000721A601A6842F480621A601A6842F4A7
:1031700080721A600320FFF78FFF0020FFF7C6FF61
:10318000FEF75AFB002008BD003C0240034A1168CC
:10319000034B1B780B441360704700BF940700205B
:1031A00000000020014B1868704700BF9407002002
:1031B00038B50446FFF7F6FF0546B4F1FF3F02D0ED
:1031C000044B1B781C44FFF7EDFF401BA042FAD3D1
:1031D00038BD00BF0000002003685A6912F4806FF8
:1031E00001D1002070476FF480625A6100230363AD
:1031F000202280F83D2080F83E30026C42F004022C
:10320000026480F83C30012070472DE9F041064609
:103210000C46174698463BE0FFF7C4FF069BC01AD2
:10322000404502D8B8F1000F32D1012D18D03368D3
:103230009B6924EA03039BB2B3FA83F35B099F42C1
:1032400026D100233363202286F83D2086F83E30C5
:10325000326C42F02002326486F83C30012027E0D4
:1032600033685B6924EA03039BB2B3FA83F35B0917
:10327000E5E733685B6924EA030C1FFA8CFCBCFAAF
:103280008CFC4FEA5C1C674511D1B8F1FF3FC3D1FC
:10329000C4F30745012DECD033689B6924EA030C85
:1032A0001FFA8CFCBCFA8CFC4FEA5C1CEBE700209C
:1032B000BDE8F0812DE9F84305460E469046994653
:1032C00053E01A6842F400721A602B686FF480624F
:1032D0005A6100232B63202285F83D2085F83E307B
:1032E0002A6C42F004022A6485F83C3001204AE04E
:1032F000FFF758FFA0EB0900404502D8B8F1000FD6
:1033000033D1012F17D02B689B6926EA03039BB2A8
:10331000003B18BF012343B300232B63202285F811
:103320003D2085F83E302A6C42F020022A6485F860
:103330003C30012027E02B685B6926EA03039BB23F
:10334000003B18BF0123E6E72B689C6926EA0404CA
:10335000A4B2003C18BF0124A4B12B685A6912F42E
:10336000806FAED1B8F1FF3FC2D1C6F30747012F3E
:10337000EAD12B685C6926EA0404A4B2003C18BFB9
:103380000124E9E70020BDE8F88370B504460D4646
:10339000164623685B6913F0800F21D12046FFF7A2
:1033A0001BFFF8B9B5F1FF3FF3D0FFF7FBFE801B21
:1033B000A84201D8002DECD123685B6913F0800F7F
:1033C000E7D100232363202284F83D2084F83E3097
:1033D000226C42F02002226484F83C30012000E09C
:1033E000002070BD0120FCE72DE9F04385B00446C4
:1033F0000D4691461F46DDF830800D9E0368196822
:1034000041F4807119600096434600224FF001118B
:10341000FFF7FBFE60B9236805F0FE051D6133462A
:10342000424626492046FFF745FF68B1012008E0E3
:1034300023681B6813F4807F02D04FF40073236469
:10344000032005B0BDE8F0830023039323685A6985
:1034500003929B690393039B324641462046FFF744
:1034600094FF30B9012F0FD123685FFA89F61E61EE
:10347000E7E7236C042B01D00120E2E72268136800
:1034800043F400731360F7E723684FEA19221A61C7
:10349000324641462046FFF778FF20B923685FFA9D
:1034A00089F61E61CDE7236C042B01D00120C8E70B
:1034B0002268136843F400731360F7E70200010009
:1034C0002DE9F04784B004460D46164699460C9FF8
:1034D000DDF834800268136843F480631360036886
:1034E000196841F480711960CDF800803B460022D4
:1034F0004FF00111FFF789FE70B95FFA85FA236872
:1035000005F0FE051D6143463A4641492046FFF756
:10351000D1FE68B1012008E023681B6813F4807FA6
:1035200002D04FF400732364032004B0BDE8F08799
:103530000023039323685A6903929B690393039BB7
:10354000424639462046FFF720FF80B9B9F1010F06
:1035500018D12368F6B21E61424639462046FFF76D
:1035600014FF68B3236C042B24D00120DDE7236C07
:10357000042B01D00120D8E72268136843F40073BC
:103580001360F7E72368320A1A614246394620463B
:10359000FFF7FBFE18B92368F6B21E61DCE7236C67
:1035A000042B01D00120C0E72268136843F40073A4
:1035B0001360F7E72268136843F400731360D4E7DD
:1035C0002268136843F480731360CDF800803B4693
:1035D00000224FF001112046FFF717FE68B922685C
:1035E0004AF00103136143463A4609492046FFF772
:1035F00061FE002899D0012097E723681B6813F427
:10360000807F02D04FF40073236403208DE700BF56
:103610000200010070B504460D46164623685B693A
:1036200013F0040F21D12046FFF7D6FDF8B9B5F10C
:10363000FF3FF3D0FFF7B6FD801BA84201D8002D55
:10364000ECD123685B6913F0040FE7D100232363F7
:10365000202284F83D2084F83E30226C42F0200283
:10366000226484F83C30012000E0002070BD01207D
:10367000FCE770B504460D46164614E06FF01002E4
:103680005A6100232363202284F83D2084F83E30D1
:10369000226C226484F83C30012025E023685B69B9
:1036A00013F0400F10D02368586910F0400F1AD162
:1036B000586910F0100FE1D1FFF774FD801BA8428C
:1036C000ECD8002DEFD1E9E700232363202284F812
:1036D0003D2084F83E30226C42F02002226484F8BF
:1036E0003C30012000E0002070BD0000002800F008
:1036F000CC8070B5044690F83D30002B77D0242361
:1037000084F83D302268136823F0010313602268B7
:10371000136843F4004313602268136823F40043E2
:103720001360FFF73DF962685A4B9A4264D85A4BCE
:1037300098428CBF00230123002B40F0A8805749FA
:10374000A1FB00318B0C25686A6822F03F0242EA37
:1037500091426A6021680A6A22F03F0266684D4D14
:10376000AE424FD8013313430B622168CA6922F479
:103770004F4222F0FF026568464B9D424CD8431EE3
:103780006D00B3FBF5F3013340F6FC70034278D0D3
:10379000C3F30B031A43CA6121680B6823F0C0030B
:1037A000E269206A024313430B6021688B6823F4AB
:1037B000034323F0FF032269E068024313438B6055
:1037C0002168CB6823F0FF036269A06902431343B9
:1037D000CB602268136843F001031360002020646B
:1037E000202384F83D30206384F83E0070BD80F8CB
:1037F0003C30FEF7E7F882E7294B98428CBF002364
:10380000012399E74FF4967505FB03F3254DA5FBBE
:1038100003539B090133A6E7A668BEB9431E05EB17
:10382000450CB3FBFCF30133C3F30B03B3FA83F38F
:103830005B0943BBC6B9431E05EB4505B3FBF5F376
:103840000133C3F30B0343F40043A3E7431E05EB2B
:10385000850C0CEB8C0CB3FBFCF30133C3F30B03B3
:10386000B3FA83F35B09E4E7431E05EB850505EB3B
:103870008505B3FBF5F30133C3F30B0343F4404376
:1038800088E7042386E7012384E7012070470120AD
:10389000ACE700BFA08601007F841E0083DE1B43CF
:1038A000FF083D00D34D62102DE9F04383B004467C
:1038B0000F46904699460C9EFFF774FC054694F817
:1038C0003D00C0B2202803D0022003B0BDE8F08341
:1038D0000095192301224B492046FFF796FC00284A
:1038E00040F0898094F83C30012B00F08680012361
:1038F00084F83C3023681A6812F0010F03D11A686B
:1039000042F001021A602268136823F40063136016
:10391000212384F83D30402384F83E300023236483
:103920000A9B6362BDF82C306385638D2385364B1B
:10393000E362019500964B46424639462046FFF722
:1039400053FD00285BD1238D002B35D02A4631460C
:103950002046FFF71AFD20BB626A236812781A61BD
:10396000626A531C6362218D013989B22185638D9E
:103970009BB2013B9BB263852368586910F0040F2A
:10398000E1D00029DFD052781A61636A01336362A3
:10399000238D013B2385638D9BB2013B9BB26385E5
:1039A000D1E7236C042B01D001208EE72268136835
:1039B00043F400731360F7E72A4631462046FFF7C9
:1039C00029FE50B1236C042B01D001207DE7226831
:1039D000136843F400731360F7E72268136843F435
:1039E00000731360202384F83D30002384F83E30B8
:1039F00084F83C3069E7022067E7022065E7012090
:103A000063E700BF020010000000FFFF2DE9F04354
:103A100087B004460F4690469946109EFFF7C2FBBA
:103A2000054694F83D00C0B2202804D0022738464D
:103A300007B0BDE8F083009519230122884920468C
:103A4000FFF7E3FB002840F04D8194F83C30012B58
:103A500000F04A81012384F83C3023681A6812F090
:103A6000010F03D11A6842F001021A60226813683C
:103A700023F400631360222384F83D30402384F84C
:103A80003E30002323640E9B6362BDF83C306385A7
:103A9000638D2385734BE362019500964B46424646
:103AA00039462046FFF70CFD0746002840F01E81EE
:103AB000238D5BB9029323685A6902929A69029234
:103AC000029A1A6842F400721A6075E0012B0AD05B
:103AD000022B1AD00023059323685A6905929B692B
:103AE0000593059B68E02268136823F480631360E4
:103AF0000023039323685A6903929A690392039AF5
:103B00001A6842F400721A6056E02268136823F4BF
:103B1000806313602268136843F40063136000231A
:103B2000049323685A6904929B690493049B43E0BD
:103B30002A4631462046FFF79CFD002840F0D880F9
:103B400023681A69636A1A70636A01336362238D9A
:103B5000013B2385638D9BB2013B9BB263852BE0C8
:103B600000953346002240492046FFF74EFB0028CF
:103B700040F0C0802268136843F400731360236828
:103B80001A69636A1A70626A531C6362238D013B6F
:103B90002385638D9BB2013B9BB2638523681B69C0
:103BA0005370636A01336362238D013B2385638D08
:103BB0009BB2013B9BB26385238D002B00F0898073
:103BC000032B53D8012BB3D0022BC9D00095334619
:103BD000002225492046FFF718FB002840F08C8082
:103BE0002268136823F48063136023681A69636A88
:103BF0001A70636A01336362238D013B2385638DF1
:103C00009BB2013B9BB26385009533460022164967
:103C10002046FFF7FAFA002870D12268136843F4AF
:103C20000073136023681A69636A1A70626A531C0E
:103C30006362238D013B2385638D9BB2013B9BB265
:103C4000638523681B695370636A01336362238D44
:103C5000013B2385638D9BB2013B9BB26385ABE740
:103C6000020010000000FFFF040001002A46314658
:103C70002046FFF7FEFC002842D123681A69636AD8
:103C80001A70636A01336362228D013A92B222850F
:103C9000638D9BB2013B9BB263852368596911F028
:103CA000040F89D0032A0FD023681A69636A1A7037
:103CB000636A01336362238D013B2385638D9BB26D
:103CC000013B9BB2638577E71A6822F480621A6031
:103CD000EAE7202384F83D30002384F83E3084F85E
:103CE0003C30A4E60227A2E60227A0E601279EE6D2
:103CF00001279CE601279AE6012798E6012796E628
:103D0000012794E62DE9F04385B0044688469146A4
:103D10001D46FFF747FA94F83D30DBB2202B03D065
:103D2000022005B0BDE8F083064600901923012269
:103D300057492046FFF769FA002840F0A08094F820
:103D40003C30012B00F09D80012384F83C30236837
:103D50001A6812F0010F03D11A6842F001021A60CA
:103D60002268136823F400631360242384F83D3031
:103D700000272764474BE36240E023681B6813F485
:103D8000807F02D04FF4007323640320C9E7A0238F
:103D900084F83D3022685369C3F340035269C2F38B
:103DA000802294F83DC05FFA8CFCBCF1A00F09D0D2
:103DB00043B93AB9FFF7F6F9801BA842E7D8002DBE
:103DC000E8D1E4E7202384F83D3023685A6912F0F3
:103DD000020F31D11A6842F400721A6023686FF43E
:103DE00080625A6100961923012229492046FFF773
:103DF0000CFA002849D101374F4538D222681368A0
:103E000043F48073136000962B4600224FF001119B
:103E10002046FFF7FAF90028AFD1236808F0FE0228
:103E20001A61FFF7BFF9064622685369C3F34003DE
:103E30005269C2F38022B4E71A6842F400721A6031
:103E40000023039323685A6903929B690393039B9E
:103E50000096192301220E492046FFF7D6F990B9A2
:103E6000202384F83D30002384F83C3059E7202398
:103E700084F83D30002384F83C30012051E70220D3
:103E80004FE702204DE701204BE7012049E700BF43
:103E9000020010000000FFFF034AD2F8883043F40C
:103EA0007003C2F88830704700ED00E010B503469B
:103EB0000C4A0D490D48006840B10C4800680344A5
:103EC000521A934206D8094A136010BD0748084C9D
:103ED0000460F2E701F0E4F80C2303604FF0FF30D8
:103EE000F3E700BF00000220000400009807002054
:103EF000E80800200120704708B501F0D1F816232A
:103F000003604FF0FF3008BD08B54FF0FF31FFF7F9
:103F1000F3FFFEE770B50C461646002506E0AFF34A
:103F20000080214601F8010B01350C46B542F6DB55
:103F3000304670BD70B50C461646002504E014F8F6
:103F4000010BAFF300800135B542F8DB304670BDA0
:103F50004FF0FF3070474FF400534B600020704724
:103F60000120704700207047DFF834D0FFF794FF3E
:103F70000C480D490D4A002302E0D458C4500433C4
:103F8000C4188C42F9D30A4A0A4C002301E013609A
:103F90000432A242FBD301F089F8FCF77FFE7047A0
:103FA0000000022000000020D4010020308800081A
:103FB000D4010020E8080020FEE7002100F070BFD7
:103FC0000CB430B5184B0C1E1D689DB008DA8B235D
:103FD0002B604FF0FF301DB0BDE8304002B070479D
:103FE0004FF40273ADF814304FF000031B9314BF6D
:103FF00004F1FF332346049307934FF6FF730290B7
:104000000690ADF81630209A21AB02A928460193FC
:1040100001F096FC431CBCBF8B232B60002CDAD034
:10402000029B00221A70D6E7840100200EB410B55E
:104030009DB01FAB029006906FF000410A480791B7
:1040400004910A4953F8042B0591002402A9006841
:1040500001931B9401F074FC029B1C701DB0BDE821
:10406000104003B0704700BF840100200802FFFF2A
:104070000EB470B59DB021AC00254FF4017254F818
:10408000046BADF814201B9502900690FCF788F89D
:104090000B4B039007900B480B934FF6FF73ADF853
:1040A00016303246234602A900680F9514950194F4
:1040B00001F09CFD1DB0BDE8704003B0704700BF2B
:1040C000EB4000088401002010B50C46B1F90E1039
:1040D00000F0C2FF0028ABBF636DA3891B1823F457
:1040E0008053ACBF6365A38110BD002070472DE9EC
:1040F000F0411F468B89DB0505460C46164605D563
:10410000B1F90E100223002200F094FFA389B4F944
:104110000E1023F48053A38132463B462846BDE867
:10412000F04100F0ABBF10B50C46B1F90E1000F035
:1041300081FF431CA38915BF606523F4805343F4BA
:104140008053A38118BFA38110BDB1F90E1000F0F8
:10415000D5BF0000002310B50446C0E90033C0E914
:104160000433836081814366C281836119460822DA
:104170005C3000F0BFFE0D4B63620D4BA3620D4B34
:10418000E3620D4B23630D4B24629C4206D003F186
:104190006802944202D0D0339C4205D104F1580009
:1041A000BDE8104000F0A6BF10BD00BFC940000828
:1041B000EF400008274100084B4100089C07002001
:1041C000024A0349034800F077BE00BF0C000020FC
:1041D000816700088801002041680C4B994210B5A6
:1041E000044601D002F0CCFAA168094B994202D0F2
:1041F000204602F0C5FAE168064B994204D02046F9
:10420000BDE8104002F0BCBA10BD00BF9C07002002
:10421000040800206C08002010B50B4B0B4C0C4A16
:104220001A60204600220421FFF794FF04F1680081
:1042300001220921FFF78EFF04F1D0000222BDE820
:1042400010401221FFF786BFD40800209C070020F1
:10425000C1410008014800F04EBF00BFD90800204E
:10426000014800F049BF00BFD908002010B504463E
:10427000FFF7F0FF236A1BB1BDE81040FFF7F0BF66
:10428000044B2362044B1B68002BF5D1FFF7C4FFDE
:10429000F2E700BFD9410008D408002070B50446F9
:1042A0000D4645EC104B164602F00AFE51EC100B81
:1042B0007EB1C5F30A53C3F16B03002B09DD1B0567
:1042C00003F17F55002405F5401522462B46FCF7E7
:1042D0007BF941EC100B70BD2DE9F04F9FB00C46FF
:1042E000179200221A9205904FF0000A4FF0000B2F
:1042F0000A46199211782B294AD038D80D2932D87C
:10430000082932D800293BD000220E92199D2A7824
:10431000302A40F0B2806A7802F0DF02582A6ED16B
:1043200002930E9B01931AAB00938F4A05981BAB27
:1043300019A900F0D9FF10F00F06044605D0062E8B
:1043400028D10135002319950E93179B002B40F0BF
:104350008E850E9BCBB152460BF1004343EC102BE4
:104360001FB0BDE8F08F2029CED10132C1E72D2941
:10437000CAD101210E91511C19915278002AC5D140
:10438000179B1994002B40F0708552465B46E5E779
:104390000021EFE71A9A3AB135211CA802F08AFEF3
:1043A0001A99059802F060FA013E1B9A042E06D86D
:1043B000DFE806F014031D201400DDE91CABE10565
:1043C00048BF4BF0004B2BF000431B0D1B05002B8F
:1043D000BBD100F065FE22230360B6E7DDE91CA334
:1043E00002F2334223F4801343EA025BE7E7DFF88B
:1043F00080B1E4E76FF0004B4FF0FF3ADFE7199B25
:104400005A1C19925B78302BF9D0002B9DD00123D8
:1044100000270893199B0C930B97B9460A22199809
:104420000578A5F13003D9B2092928D94F490122CD
:1044300000F068FD002832D000202A460A904D4640
:104440000346652A01D0452A14D11DB9089A0243B2
:1044500096D00025199C621C199262782B2A7AD07A
:104460002D2A7ED04FF0000CA2F13001092940F234
:10447000858019944FF00008A5E00023C8E7B9F142
:10448000080FD8BF0B9900F10100DABF02FB01331E
:104490000B9302FB073709F101091990BFE7199B3C
:1044A0005A1C19925A78B9F1000F3BD00A904D4628
:1044B000A2F13003092B12D90123C2E7199B5A1C20
:1044C00019925A780130302AF8D0A2F13103082B22
:1044D00000F2D284199B0A9000200C930546303AD2
:1044E00000F1010318D00A9919440A912E464FF0A1
:1044F0000A0E711CA1EB050C634515DC20EAE07087
:104500002B18082B05F1010505441ADC0B990A2329
:1045100003FB01230B930023199A511C1991527824
:104520001846C5E74846CEE7082E05DC0B9E0EFB75
:1045300006F60B960E46DCE71029D8BF0EFB07F7F0
:10454000F8E70F2BDCBF0A2303FB0727E3E7002371
:104550000A9301237AE74FF0000CA21C1992A2786B
:1045600082E74FF0010CF8E7E4850008D8830008E3
:104570000000F07F199A511C19915278302AF9D015
:10458000A2F1310108293FF675AF303A0992199A24
:104590000F924FF00A08199A561C19965278A2F1F8
:1045A000300EBEF1090F39D90F99761A082E44F64C
:1045B0001F6803DC09998845A8BF8846BCF1000F35
:1045C00001D0C8F10008002D4ED1089901437FF4B5
:1045D000BCAE002B7FF4D4AE692A28D025DC492A52
:1045E00025D04E2A7FF4CCAE9A4919A801F09EF846
:1045F00000283FF4C5AE199B1B78282B2ED1964975
:104600001CAA19A801F0A6F8052827D11D9BDDF8E2
:1046100070A043F0FF4B4BF4E00B96E6099908FBC2
:104620000121A1F130020992B5E76E2ADAE78B4940
:1046300019A801F07BF800283FF4A2AE199B884925
:10464000013B19A8199301F071F810B9199B0133B6
:104650001993DFF81CB24FF0000A76E6814800F0AB
:104660006BFD5BEC10AB70E60A9B0B98A8EB0303A9
:10467000B9F1000F08BFA946102D09932C46A8BF19
:104680001024FBF727FF092D82468B4613DC099B7C
:10469000002B3FF45AAE099B78DD162B5FDC724984
:1046A00001EBC301D1E9000152465B46FBF78CFFE9
:1046B00082468B4649E66C4B03EBC40353E9122355
:1046C000FBF782FF824638468B46FBF703FF024624
:1046D0000B4650465946FBF7C1FD0F2D82468B46CF
:1046E000D5DD099B2C1B1C44002C40F3938014F057
:1046F0000F030AD05C4901EBC30152465B46D1E986
:104700000001FBF761FF82468B4634F00F0473D043
:10471000B4F59A7F49DD0024A0460B94A146059A82
:10472000DFF84CB1222313604FF0000A0B9B002BE3
:104730003FF40BAE1A99059802F096F80598494691
:1047400002F092F80598414602F08EF80B99059810
:1047500002F08AF80598214602F086F8F5E5099AF4
:10476000C5F125039342BCDB3F4CC5F10F0504EBBB
:10477000C50152465B46D1E90001FBF725FF099BC5
:104780005D1B04EBC504D4E900238FE71633A8DBD7
:104790000A9BA3EB0808344B03EBC808D8E90023B5
:1047A00050465946FCF73AF882E700232F4F241170
:1047B000504659461E46012C21DC0BB182468B46E1
:1047C0002A49ABF1547B01EBC60152465B46D1E965
:1047D0000001FBF7F9FE264B0A460B4025498B42A8
:1047E000824698D8A1F580118B4286BFDFF888B049
:1047F0004FF0FF3A02F1547B0023089376E0E20782
:1048000004D5D7E90023FBF7DFFE0123013664104E
:104810000837D0E7F0D0644214F00F020AD0124BF0
:1048200003EBC20350465946D3E90023FBF7F6FFDA
:1048300082468B462411DFD01F2C1FDD0024A046AA
:104840000B94A146059A22234FF0000A4FF0000B6B
:1048500013606BE7E3830008D0850008DA83000863
:10486000DD830008A384000858870008308700080B
:104870000000F07F0000A07CFFFFEF7F14F010032A
:1048800018BF6A23A94E0893504659460023E707EC
:1048900004D5D6E90023FBF797FE0123641006F147
:1048A0000806F4D10BB182468B46089BB3B1CBF31B
:1048B0000A52C2F16B03002B59460FDD1F2B56DD48
:1048C000342BDEBF4FF0FF33C2F14B0293404FF069
:1048D000000ACCBF4FF05C7B03EA010B00220023EF
:1048E00050465946FCF7D8F80028A7D10B9B0093F7
:1048F0000C9905982B464A4602F01EF80B900028AA
:104900003FF409AF099A0A9B002AA3EB0803A8BF4A
:1049100000231293002422EAE2731693A0460B9B15
:104920000598596801F060FF814600283FF4F7AE12
:104930000B9B1A69023203F10C0192000C3000F05B
:10494000EDFB4BEC10AB05981CAA1BA9CDE90CABF9
:1049500002F026FB1A9000283FF4E1AE05980121F1
:1049600002F080F8804648B94FF00008D7E64FF0D3
:10497000FF3202FA03F303EA0A0AAFE71B9D1C9A0F
:10498000002DABBF129B169B169E129FACBFEF185B
:104990005E1B089BED1A1544654B013D9D42C2F11B
:1049A000360250DA5B1B1F2BA2EB03024FF0010112
:1049B0003DDC01FA03F3139300231093BD18089B09
:1049C000AF4216441E443B46A8BF2B46B342A8BF85
:1049D0003346002BC2BFED1AF61AFF1A129B002BAA
:1049E00016DD414605981A4602F0F4F88046002884
:1049F000BAD001461A9A059802F04AF80A9000289F
:104A00003FF48DAE1A99059801F02EFF0A9B1A9378
:104A1000002D1DDC099B002B23DD4946169A0598C5
:104A200002F0D8F88146E0B94FF0000977E6C5F109
:104A30007F4505F57F0505F57B45E23501FA05F370
:104A400010931391BAE70023109301231393B5E752
:104A50001A9905982A4602F017F91A900028D9D118
:104A60005DE6002E07DD49460598324602F00CF956
:104A700081460028D8D0002F08DD414605983A46E7
:104A800002F002F9804600283FF449AE1A990598D1
:104A90004A4602F081F9044600283FF440AEC3685C
:104AA0000F930023C360414602F05AF9002845DA0B
:104AB0000F9B53EA0A036BD1CBF31303002B67D18F
:104AC0002BF000431B0D1B05B3F1D66F60D9636952
:104AD00013B92369012B5BDD21460122059802F001
:104AE000D3F84146044602F03BF9002850DD2BF094
:104AF0000043089A1B0D1B05002A6AD0B3F1D66F3C
:104B000067D8B3F15C7F7FF69DAE0A4B504659469D
:104B10000022FBF759FD084B0B4082468B46002BC9
:104B20007FF408AE059A2223136003E6F885000897
:104B300002FCFFFF000050390000F07FCDF828B0E4
:104B400065D10F9ACBF313035AB39F4A93422BD1EB
:104B5000089B514603B39D4B5A461340B3F1D46FA3
:104B60004FF0FF321BD81B0DC3F16B0302FA03F3A6
:104B7000994219D1964B0A9A9A4202D101313FF4D7
:104B8000CEAD924B0A9A1A4002F5801B4FF0000AF4
:104B9000089B002BB9D1CDE54FF0FF33E8E7134672
:104BA000E6E753EA0A03A2D0109BDBB10A9A13424C
:104BB000EED00F9B089A50465946BBB1FFF76EFBEB
:104BC000DDE90C0153EC102BFBF748FB82468B46CA
:104BD000DEE7A3F580136FEA135B6FEA0B5B4FF020
:104BE000FF3AD5E7139B13EA0A0FE1E7FFF756FBFD
:104BF000DDE90C0153EC102BFBF72EFB0022002308
:104C000082468B46FBF748FF0028C1D01AE6414692
:104C1000204602F01DFA57EC106B00224FF0804343
:104C200030463946FBF74CFF00286FD00F9B002B16
:104C30007AD1BAF1000F58D10A9BC3F31303002BAA
:104C40005AD1644B002230463946FBF72FFF00282B
:104C500059D130463946604B0022FBF7B5FC064679
:104C60000F4607F1004306960793DDE90623574DEB
:104C7000CDE910230A9B1D40584B9D4240F0B28065
:104C80000A9BA3F1547B4BEC10AB02F019F9DDE960
:104C9000062351EC100BFBF797FC52465B46FBF7E3
:104CA000DDFA0B4649494E4A19409142824642D9A3
:104CB0000D9A474B9A4203D10C9B01333FF42FAD21
:104CC000DFF80CB14FF0FF3A1A99059801F0CCFDCE
:104CD0000598494601F0C8FD0598414601F0C4FD1C
:104CE0000598214601F0C0FD19E6BAF1010F03D184
:104CF0000A9B002B3FF4A6AD9FED2B7B354F8DED2E
:104D0000067B0026B1E7344F0026AAE7324B304637
:104D100039460022FBF758FC0F9B06460F46002B36
:104D20009FD0CDE90667A0E79FED217B8DED067B47
:104D300057EC176B99E703F1547B089BCDF828B02B
:104D4000002BC1D12BF000431B0D1B059D42BBD195
:104D50003046394602F050FEFBF708FC02460B468F
:104D600030463946FBF778FA0B460246CDE90C236C
:104D7000CBF313060F9B46EA0A061E436FD00EA321
:104D8000D3E90023FBF792FE00287FF4D3AC0CA3F9
:104D9000D3E90023DDE90C01FBF7A6FE002893D040
:104DA000C8E400BFAFF30080000000000000F0BFC7
:104DB000000000000000F03F9535A094FFFFDF3FAA
:104DC00035E5AF350000E03FFFFF0F000000F07F4A
:104DD000FFFFEF7F0000F03F0000E03F0000E07FBA
:104DE000FFFF9F7C089B23B3B5F1D46F21D828A384
:104DF000D3E9002330463946FBF762FEA0B13946BD
:104E00003046FBF77BFE012838BF0120FBF762FB31
:104E10000F9B06460F46FBB901F100431490159312
:104E2000DDE91423CDE91023119B03F1D6635B1B4D
:104E300011939DED0C0BDDE910AB02F041F85046EB
:104E400053EC102B5946FBF7BFFBDDE90C23FBF7B6
:104E500005FA82468B4670E7CDE91467E0E70EA3BA
:104E6000D3E90023FBF722FE98E700230E93179A5D
:104E7000199B1360FFF76DBA652A3FF468AB452AAA
:104E80003FF465AB0123FFF7A0BB00BFAFF3008089
:104E90000000C0FFFFFFDF419535A094FFFFCF3F2B
:104EA0000A4601460248034B0068FFF715BA00BFE7
:104EB00084010020180000202DE9F84307468846A9
:104EC00014460026D4E90195B9F1010905D52468F5
:104ED000002CF7D13046BDE8F883AB89012B07D908
:104EE000B5F90E30013303D029463846C047064392
:104EF0006835E9E702440346934200D1704703F85E
:104F0000011BF9E710B56AB10139841810F8012BBB
:104F100011F8013F9A4203D1A04201D0002AF5D1F5
:104F2000D01A10BD1046FCE710B50139034632B166
:104F300011F8014F03F8014B013A002CF7D11A4444
:104F40000021934200D110BD03F8011BF9E70000D6
:104F5000164B2DE9F0411F687C6C05460E46ECB9F6
:104F6000502000F0B9FF0246786420B9104B114878
:104F70005B2100F0E9F8C0E90044C0E90244C0E95F
:104F80000444C0E90A44C0E90C44C0E90E44C0E945
:104F90001044C0E912448461047744627A6C31465B
:104FA00028460123BDE8F04100F006B88401002046
:104FB000E6830008FD830008F0B5044608B91468CC
:104FC00044B1204614F8015B0F4617F8016B1EB977
:104FD00065B91560002005E0B542F6D1002BF0D18F
:104FE00014600370F0BD1C460CE01DB9274614F890
:104FF000013B0E4616F8015BAB42F6D1002BF2D016
:1050000000233B701460EDE70A7870B56AB970BD93
:105010009A4209D10C46054614F8013F002BF6D000
:1050200015F8016F9E42F7D001300378002BEFD1C5
:105030001846ECE738B5074D0446084611460022ED
:105040002A601A46FEF78EFF431C02D12B6803B17B
:10505000236038BDDC08002038B5074D04460846FB
:10506000114600222A601A46FEF754FF431C02D163
:105070002B6803B1236038BDDC08002038B5074D2C
:1050800004460846114600222A601A46FEF752FFDF
:10509000431C02D12B6803B1236038BDDC0800201B
:1050A000014B1868704700BF8401002070B50D4D9A
:1050B0000D4C641BA4100026A64209D10B4D0C4CCC
:1050C00002F02EFE641BA4100026A64205D170BD7E
:1050D00055F8043B98470136EEE755F8043B9847EE
:1050E0000136F2E728880008288800082888000888
:1050F0002C880008704770477047000038B5064D8F
:105100000023044608462B60FEF722FF431C02D111
:105110002B6803B1236038BDDC0800200A449142AB
:1051200000F1FF3300D1704710B511F8014B03F8BF
:10513000014F9142F9D110BD9FED010B704700BFA7
:10514000000000000000F87F1FB514461A46094B06
:105150001B680546D8684CB1074B0091CDE9013476
:1051600006492B4602F024F802F086F9044B1C464F
:10517000F3E700BF840100206884000875840008FC
:10518000A384000838B50546002941D051F8043CF5
:105190000C1F002BB8BFE41801F01AFB1D4A13685E
:1051A00033B9636014602846BDE8384001F016BB8F
:1051B000A34208D9206821188B4201BF19685B6897
:1051C00009182160EDE71A465B680BB1A342FAD9D2
:1051D00011685018A0420BD1206801445018834236
:1051E0001160E0D118685B68536008441060DAE72A
:1051F00002D90C232B60D6E7206821188B4204BF0C
:1052000019685B68636004BF091821605460CAE7CD
:1052100038BD00BFE40800200369B3EB611F2DE92E
:10522000F0434FEA611200F1140445DD11F01F0153
:1052300004EB830604EB82050CD100F1100729462C
:10524000B14234D39B1A9B00EA1E964238BF00231A
:10525000234415E054F82270C1F12008CF4005F135
:10526000040EA1467645F44615D89A1A9200043ADF
:105270000135AE4238BF0022A318A75007B104334E
:105280001A1BA3424FEAA20208BF0023026108BF13
:105290004361BDE8F083DCF800C00CFA08FC4CEA7E
:1052A000070749F8047B5EF8047BCF40DAE751F842
:1052B00004CB47F804CFC3E72346E1E7A0F130036E
:1052C000092B02D82038C0B27047A0F16103052B2A
:1052D00001D84738F7E7A0F14103052B01D827385B
:1052E000F1E70020704700002DE9F04F85B08A46B5
:1052F00002930B68019090469C1CA14614F8010B88
:105300003028FAD0A9EB0303A3F1020BFFF7D6FF75
:105310000546002868D1A04901224846FFF7F2FD62
:105320000746002867D199F801002646FFF7C6FF17
:10533000002862D0234618783028994603F10103EB
:10534000F9D0FFF7BBFFB0FA80F56D094FF0010B04
:105350004A46164601323078FFF7B0FF0028F8D1F0
:105360008D4901223046FFF7CDFD00283FD144B9D9
:10537000741C2246164601323078FFF79FFF002842
:10538000F8D1A41BA700337803F0DF03502B3ED1E4
:1053900073782B2B33D02D2B34D0711C002408783C
:1053A000FFF78CFF431EDBB2182B30D8A0F11002A0
:1053B00011F8010FFFF782FF00F1FF3C5FFA8CFC50
:1053C000BCF1180F4FF00A031ED904B15242174422
:1053D000CAF80010EDB1BBF1000F0CBF0625002587
:1053E000284605B0BDE8F08F00252C46B0E7002C1C
:1053F000C7D12746C7E74E462F460125C3E70024FD
:10540000B11CCCE70124FBE703FB0200CEE73146E9
:10541000DEE7A6EB0903013B2946072B0ADC0198CE
:1054200001F0E2F9044640B95C4B0246E4215C48D5
:10543000FFF78AFE01315B10EFE700F1140A002349
:1054400055469B46B14537D345F804BBA5EB0A0545
:10545000AD102561584601F0B9FA6D01D8F8006029
:105460002D1AB54254DDAD1B2946204601F045FEFC
:10547000814678B16B1E591103F01F025AF82110B2
:105480004FF0010909FA02F20A4203D04B4536DC1B
:105490004FF0020929462046FFF7BEFE2F44D8F8F8
:1054A0000830BB4242DA0198214601F0DDF90E9A3C
:1054B00000231360A32593E716F8012D2E2A12D09E
:1054C000202B04D145F804BB4FF0000B5B4630782D
:1054D0000393FFF7F3FE039B00F00F0098404BEAA5
:1054E000000B0433AEE7B145EAD82B490393012200
:1054F0003046FFF707FD039B0028E1D1A2E7A91E74
:10550000204601F0FAFD0028C2D04FF00309C1E7A0
:1055100009DA751B214601982A4601F0B5FB7F1B6D
:10552000044600F1140A4FF00009B8E7D8F8045017
:10553000BD426FDDED1BAE4234DCD8F80C30022BDF
:1055400022D0032B24D0012B15D1AE4213D1012E32
:105550000BD1029AD8F80430136001232361CAF8F2
:1055600000300E9B62251C603AE7711E204601F058
:10557000C4FD0028EDD10198214601F075F90E9A7D
:105580000023136050252BE70F9B002BF3D1E0E79E
:105590000F9B002BDDD1EEE7D8830008A484000820
:1055A000B58400086F1EB9F1000F30D127B139461C
:1055B000204601F0A2FD81467A1101235AF82220EB
:1055C00007F01F07BB4013422946204618BF49F089
:1055D0000209FFF721FED8F80470761B0225B9F105
:1055E000000F47D0D8F80C30022B15D0032B17D062
:1055F000012B09D119F0020F06D0DAF8003049EA80
:10560000030919F0010F0ED145F0100532E04FF0FB
:105610000109D1E70125E2E70F9BC3F101030F93D5
:105620000F9B002BF0D0D4F810B004F114034FEA14
:105630008B0A03EB8B014FF0000C184653F8042B38
:10564000B2F1FF3F1BD001320260022D04F11403BE
:105650003CD1D8F80020013AB24209D1711101229F
:1056600053F8213006F01F0602FA06F61E423AD120
:1056700045F020050E9B1C60029B1F60B0E699421E
:1056800043F804CCD9D8A3689B4517DB616801981F
:10569000013101F0A9F8814618B91A4B024684215C
:1056A000C5E62269023204F10C0192000C30FFF7CA
:1056B00035FD2146019801F0D7F84C4623695A1C64
:1056C00004EB8303226101225A61BEE722695A4535
:1056D0000BDD01212046FFF79FFDD8F80830013788
:1056E000BB42FFF6E0AE0125C2E716F01F06FAD076
:1056F0005344C6F1200653F8040C01F067F9B04298
:10570000E7DBF0E7A4840008C2F10802920070B55C
:10571000C2F120064368046803FA06F52C43D3401F
:10572000046040F8043F8842F4D370BD30B503688C
:10573000013311F8014B14B90360012030BD13F897
:10574000012BA2F14105192D98BF2032A242F0D0C1
:105750000020F3E72DE9F04F0B6801685E1102EBC2
:10576000860613F01F0387B018BF04360025371FC5
:1057700082469046019346F8045CB9463C46029541
:10578000AB464A784B1C039342B3104605910492F2
:10579000FFF794FD002851D1049A0599202A18D8C2
:1057A000029B9B4513DD4C4506D2072D04DC2A469F
:1057B00049462046FFF7A8FF444552D90023A4F1EB
:1057C000040944F8043CCDF808B04C461D46039942
:1057D000D7E7292A57D10231CAF80010BBF1000FD0
:1057E00051D04C4506D2072D04DC2A4649462046B6
:1057F000FFF78AFF444536D9A8F10402234653F83F
:10580000041B42F8041F9F42F9D23B1B23F0030301
:1058100004330134033EB44288BF042343440022CE
:1058200043F8042B9F42FBD23B681BB9474528D164
:1058300001233B60052007B0BDE8F08F0135082D3E
:105840000BF1010B06DD4445C1D9002344F8043CAB
:105850000125043C226800F00F0040EA021020609D
:10586000B5E70825B3E7019B002BDDD0C3F120038A
:105870004FF0FF32DA4056F8043C134046F8043C3F
:10588000D2E7043FD0E70420D5E72DE9F0478E6842
:105890001F46BE420B6882460C4690462DD8B1F991
:1058A0000C2012F4906F26D06569096905EB450557
:1058B000A3EB010905EBD5757B1C4B446D109D4294
:1058C00038BF1D46530527D5294600F02FFB064655
:1058D00060B321694A46FFF721FCA38923F4906352
:1058E00043F08003A381266165614E44A5EB090561
:1058F0002660A5603E46BE4200D93E46206832463C
:10590000414601F08EFDA3689B1BA36023683344CE
:1059100023600020BDE8F0872A4601F05BFC0646C4
:105920000028E0D121695046FFF72CFC0C23CAF86F
:105930000030A38943F04003A3814FF0FF30E9E733
:105940002DE9F04F98468B891B069DB007460D4602
:10595000144610D50B6973B9402100F0E7FA2860AE
:10596000286130B90C233B604FF0FF301DB0BDE81B
:10597000F08F40236B610023099320238DF8293099
:10598000CDF80C803023DFF89C818DF82A304FF061
:10599000010923469A4613F8012B0AB1252AF9D1A9
:1059A000BAEB040B0BD05B46224629463846FFF77C
:1059B0006CFF013000F0A780099A5A4409929AF8C6
:1059C0000030002B00F09F8000234FF0FF32CDE924
:1059D00005230AF1010A049307938DF853301A93B3
:1059E0005446052214F8011B4E48FAF7E1FB049ACD
:1059F000D8B9D00644BF20238DF85330110744BFD7
:105A00002B238DF853309AF800302A2B15D0079AA3
:105A1000544600204FF00A0C214611F8013B303B60
:105A2000092B4BD9B0B1079214E0A0EB080309FA97
:105A300003F313430493A246D2E7039B191D1B688B
:105A40000391002BBBBF5B4242F002020793079316
:105A5000B8BF049223782E2B0AD163782A2B32D137
:105A6000039B1A1D1B68039243EAE37302340593F8
:105A7000DFF8C0A0217803225046FAF799FB38B12D
:105A8000049BA0EB0A00402282401343013404939C
:105A900014F8011B24488DF828100622FAF788FB19
:105AA000002836D0214B1BBB039B073323F0070391
:105AB00008330393099B334409936AE70CFB0232D2
:105AC0000C460120A8E700230134059319464FF046
:105AD0000A0C204610F8012B303A092A03D9002B72
