:020000040800F2
:1000000000000220C1220008E1070008E307000801
:10001000E5070008E7070008E907000800000000FE
:10002000000000000000000000000000EB070008D6
:10003000ED07000800000000EF070008F1070008C6
:1000400011230008112300081123000811230008C0
:1000500011230008112300081123000811230008B0
:1000600011230008112300081123000811230008A0
:100070001123000811230008112300081123000890
:1000800011230008112300081123000800000000BC
:100090000000000000000000000000001123000824
:1000A0001123000811230008112300081123000860
:1000B0001507000811230008112300081123000868
:1000C0001123000811230008112300081123000840
:1000D0001123000811230008F907000800000000A0
:1000E000112300081123000811230008000000005C
:1000F00000000000000000000000000011230008C4
:10010000000000001123000811230008112300083B
:1001100000000000000000000000000000000000DF
:1001200011230008112300081123000811230008DF
:100130001123000800000000000000000000000083
:100140000000000000000000000000001123000873
:1001500011230008112300081123000811230008AF
:100160001123000811230008000000000000000017
:10017000000000000000000000000000000000007F
:100180000000000011230008000000000000000033
:080190001123000811230008EF
:1001A000034613F8012B002AFBD1181A01387047B7
:1001B00001F0FF01102A2BDB10F0070F08D010F818
:1001C000013B013A8B422DD010F0070F42B3F6D11C
:1001D000F0B441EA012141EA014122F007047FF035
:1001E00000070023F0E80256083C85EA010586EA8C
:1001F000010685FA47F5A3FA87F586FA47F6A5FAC8
:1002000087F68EB9EED1F0BC01F0FF0102F00702D3
:1002100032B110F8013B013A83EA010313B1F8D17E
:100220000020704701387047002D06BF354603385F
:10023000073815F0010F07D1013015F4807F02BF98
:10024000013015F4C03F0130F0BC0138704700BFE9
:1002500053B94AB9002908BF00281CBF4FF0FF312D
:100260004FF0FF3000F00CB8ADF1080C6DE904CE92
:1002700002F0F0FCDDF804E0DDE9022304B0704791
:10028000704700BF0348044B834202D0034B03B1C5
:10029000184770475C0000205C0000200000000050
:1002A0000548064B1B1AD90F01EBA301491002D0D8
:1002B000034B03B1184770475C0000205C0000202E
:1002C0000000000010B5064C237843B9FFF7DAFFB1
:1002D000044B13B10448AFF300800123237010BD19
:1002E0005C00002000000000102F000808B5054B3E
:1002F0001BB105490548AFF30080BDE80840FFF792
:10030000CFBF00BF0000000060000020102F0008D9
:1003100008B500F057FA00F0A5F8642001F020FDC0
:100320000E4800F01BFA0E4800F02AFA642001F093
:1003300017FD00F05BF96421032000F0B1F86420A0
:1003400001F00EFD0A2001F00BFD064800F006FA50
:100350006421032000F0A4F8FAE700BF302F000862
:10036000502F0008742F000808B501F0CDFC00F0F4
:1003700057F900F009F800F0D7F900F0A7F800F0FD
:10038000A1F908BD72B6FEE78AB000220592069276
:100390000792089209920192144B196B41F00101E6
:1003A0001963196B01F00101019101990292196B16
:1003B00041F002011963196B01F0020102910299E7
:1003C0000392196B41F004011963196B01F00401E8
:1003D0000391039904921A6B42F080021A631B6B1B
:1003E00003F080030493049B0AB070470038024076
:1003F00008B50A4601728188006801F077FB08BDE4
:1004000070B58AB005466B4683E8060007AE93E8F0
:10041000030086E8050000248DF82440029403942C
:10042000049405940694BDF82030029301230393AD
:10043000059302A901F076FA21463046FFF7D8FF6E
:1004400096E8070085E8070028460AB070BD08B5A1
:10045000037AB3FA83F35B0903728188006801F0C1
:100460004BFB08BD30B587B00B4A04AB92E80300E4
:1004700083E80300094C6D4693E806002846FFF721
:10048000BFFF95E8070084E807000021217220469D
:10049000FFF7AEFF07B030BD282F0008780000201E
:1004A00070B505460E46002406E00748FFF7CFFF6B
:1004B000304601F055FC0134B4EB450FF5DB00216B
:1004C0000148FFF795FF70BD7800002008B513487C
:1004D000134B0360134B436000238360C3604FF4EE
:1004E0008042026143618361C361036201F0A2FC47
:1004F00080B9002211461F2001F0B8FB1F2001F037
:10050000C5FB01220021202001F0B0FB202001F0DA
:10051000BDFB08BDFFF736FFEBE700BFC4000020BE
:1005200000540040A086010038B564230322302126
:100530001E4801F0CDFDA8B10246022817D00328BD
:1005400023D001282CD11A4C1A4D0FCD0FC40FCD3A
:100550000FC495E80F0007C42370154800F010F988
:10056000002038BD144800F00BF90120F9E7104CC9
:10057000124D0FCD0FC40FCD0FC495E8070003C473
:1005800024F8022B120C2270E7E7094C0C4D0FCD1A
:100590000FC40FCD0FC40FCD0FC42B682370DCE741
:1005A0000849034801F0B6FED7E700BFC4000020A9
:1005B00084000020BC2F00089C2F0008EC2F0008AE
:1005C000183000084C30000800B583B001230193B7
:1005D000044A009220223021034801F009FD03B0B3
:1005E0005DF804FB00000020C400002008B5FFF700
:1005F0006DFF084800F0C4F8FFF796FF28B10648E1
:1006000000F0BEF8FFF7E0FF08BD044800F0B8F8BE
:10061000F8E700BF783000088C300008A4300008EC
:1006200000B595B03022002108A801F095FE002306
:100630000393049305930693079301931F4A116C48
:1006400041F080511164126C02F080520192019AC3
:1006500002931B4A116841F440411160126802F490
:1006600040420292029A0221089101220B9210222A
:100670000C920E910F9310924FF4A87311930423D0
:100680001293139308A800F00DFE80B90F23039373
:1006900002210491002305934FF4805206920793A0
:1006A00003A801F069F828B915B05DF804FBFFF75D
:1006B00069FEEBE7FFF766FEF6E700BF0038024091
:1006C0000070004000B583B0002301930F4A116C05
:1006D00041F001011164126C02F001020192019AD1
:1006E0000B484FF08042026042F2CF0242608360CA
:1006F00042F20F72C2600361836100F0E9F910B940
:1007000003B05DF804FBFFF73DFEF9E70038024057
:100710001801002008B5024800F0D9F808BD00BF54
:10072000180100207047000008B50A480A4B036012
:100730004FF4E133436000238360C36003610C2204
:1007400042618361C36100F01AFB00B908BDFFF785
:1007500019FEFBE7600100200044004068B110B5BD
:100760000446FFF71DFD82B202B910BD4FF0FF3302
:100770002146024800F033FBF7E770476001002094
:10078000C8B138B50546FFF70BFD84B20CB900209F
:1007900038BD0A4800F080FD21280AD0074800F043
:1007A0007BFD232805D022462946044800F07DFB26
:1007B000EEE70220ECE70120704700BF6001002057
:1007C0007047000008B5FFF7CFFD01F0C3FA034BF7
:1007D0001860642001F0C4FA08BD00BFA801002021
:1007E000FEE7FEE7FEE7FEE7FEE77047704770476B
:1007F00008B501F0A3FA08BD08B5024800F0FCFBFB
:1008000008BD00BF6001002000B583B00021009149
:100810000C4B5A6C42F480425A645A6C02F4804287
:100820000092009A01911A6C42F080521A641B6C7B
:1008300003F080530193019B072001F005FA03B0F8
:100840005DF804FB0038024010B588B00023039324
:1008500004930593069307930268184B9A4201D0BC
:1008600008B010BD0024019403F5FA331A6C42F469
:1008700000321A641A6C02F400320192019A029456
:100880001A6B42F001021A631B6B03F0010302931F
:10089000029B0C2303930223049303230693072351
:1008A000079303A9064801F03DF822462146262079
:1008B00001F0DCF9262001F0E9F9D1E7004400401D
:1008C000000002407047704770477047704770B52E
:1008D00004460368DE681D6915F0020F10D016F09B
:1008E000020F0DD06FF002021A6101230377036833
:1008F0009B6913F0030F5ED0FFF7E6FF0023237719
:1009000015F0040F12D016F0040F0FD023686FF00B
:1009100004021A610223237723689B6913F4407F42
:100920004FD02046FFF7D0FF0023237715F0080FA4
:1009300012D016F0080F0FD023686FF008021A616A
:10094000042323772368DB6913F0030F40D020468C
:10095000FFF7BAFF0023237715F0100F12D016F01F
:10096000100F0FD023686FF010021A61082323774D
:100970002368DB6913F4407F31D02046FFF7A4FFE2
:100980000023237715F0010F02D016F0010F2DD1AF
:1009900015F0800F02D016F0800F2FD115F0400F08
:1009A00002D016F0400F31D115F0200F02D016F012
:1009B000200F33D170BDFFF786FF2046FFF785FF7C
:1009C0009CE72046FFF77FFF2046FFF77EFFABE75F
:1009D0002046FFF778FF2046FFF777FFBAE720466B
:1009E000FFF771FF2046FFF770FFC9E723686FF03C
:1009F00001021A612046FFF795FEC9E723686FF0F0
:100A000080021A61204600F090F8C7E723686FF073
:100A100040021A612046FFF759FFC5E723686FF0CF
:100A200020021A61204600F07FF8C3E70368274AD6
:100A300090420ED0B0F1804F0BD0A2F57C42904294
:100A400007D002F58062904203D002F580629042A6
:100A500003D123F070034A6813431C4A90421AD012
:100A6000B0F1804F17D0A2F57C42904213D002F52E
:100A7000806290420FD002F5806290420BD002F566
:100A80009A32904207D002F58062904203D002F57C
:100A90008062904203D123F44073CA68134323F069
:100AA00080034A6913438A68C2620A688262074AFD
:100AB000904207D0026842F00402026001224261C3
:100AC000036070470A690263F4E700BF0000014059
:100AD00040B310B5044690F83D30F3B1022384F8DA
:100AE0003D30214651F8040BFFF7A0FF012384F8A5
:100AF000463084F83E3084F83F3084F8403084F843
:100B0000413084F8423084F8433084F8443084F82B
:100B1000453084F83D30002010BD80F83C30FFF7B0
:100B2000D1FEDBE70120704770477047026802F191
:100B30000C0353E8003F23F490730C3242E8003179
:100B40000029F3D1026802F1140353E8003F23F0B7
:100B50000103143242E800310029F3D1036B012B69
:100B600005D0202380F842300023036370470268D9
:100B700002F10C0353E8003F23F010030C3242E86B
:100B800000310029F3D1ECE790F84130DBB2212BA2
:100B900001D0022070478368B3F5805F17D0036AE5
:100BA0005A1C02621A7803685A60C38C9BB2013BDC
:100BB0009BB2C3844BB90268D36823F08003D3602F
:100BC0000268D36843F04003D36000207047036994
:100BD000002BE4D1036A1B880268C3F30803536047
:100BE000036A02330362E0E710B504460268136942
:100BF00023F44053C1680B431361836802691A43AD
:100C000043691A43C3691A430168CB6823F4164346
:100C100023F00C031343CB600268536923F4407341
:100C200081690B4353610368314A934206D002F550
:100C30008062934202D000F055FE01E000F062FEB7
:100C4000E369B3F5004F29D00021031849411B186F
:100C500041F10001C90041EA5371DB0018186368D3
:100C60004FEA83024FEA937341F10001FFF7F0FA74
:100C7000204AA2FB00314909642303FB11031B0135
:100C80003233A2FB03235B0903F0F00202EB0112F3
:100C900003F00F03216813448B6010BD002302187A
:100CA00043EB0301121841F10001C90041EA5271FE
:100CB000D200101841F10001626892185B41FFF701
:100CC000C7FA0C4AA2FB00314909642303FB110354
:100CD000DB003233A2FB03235B095A0002F4F872F3
:100CE00002EB011203F00703216813448B60D4E781
:100CF000001001401F85EB512DE9F04383B00546FC
:100D00000E4617469946DDF828802B681C6836EA9F
:100D100004040CBF01240024BC4228D1B8F1FF3FD9
:100D2000F3D001F017F8A0EB0900404523D8B8F143
:100D3000000F22D02B68DA6812F0040FE5D0802E65
:100D4000E3D0402EE1D01A6812F0080FDDD0002465
:100D500001941A6801925B680193019B2846FFF792
:100D6000E5FE08236B6485F84040012000E0002088
:100D700003B0BDE8F0830320FAE70320F8E760B38F
:100D800010B5044690F8413013B3242384F8413061
:100D90002268D36823F40053D3602046FFF724FF72
:100DA0002268136923F4904313612268536923F086
:100DB0002A0353612268D36843F40053D3600020B0
:100DC0006064202384F8413084F84230606310BDB1
:100DD00080F84030FFF738FDD7E7012070472DE954
:100DE000F04182B01E4690F84130DBB2202B56D144
:100DF00004460D469046002955D00AB901204FE01F
:100E000000234364212380F8413000F0A3FF07460C
:100E1000A4F82480A4F82680A368B3F5805F02D0EC
:100E20004FF0000814E023692BB34FF000080FE0E7
:100E3000202384F84130032032E038F8023B226856
:100E4000C3F308035360E28C92B2013A92B2E28497
:100E5000E38C9BB293B100963B4600228021204652
:100E6000FFF74AFF0028E3D1002DE6D015F8012B4B
:100E700023685A60E7E7A8460025E9E700963B4665
:100E8000002240212046FFF737FF18B9202384F8BD
:100E9000413005E0202384F84130032000E00220A7
:100EA00002B0BDE8F0810120FAE790F84130DBB2F2
:100EB000202B10D189B192B101628284C2840023B7
:100EC0004364212280F841200168CA6842F0800210
:100ED000CA60184670470220704701207047012001
:100EE000704708B50168CA6822F04002CA60202233
:100EF00080F84120FFF764FC002008BD7047704770
:100F000008B5806B0023C385FFF7F9FF08BD704764
:100F100090F84230DBB2222B69D18368B3F5805F51
:100F20004FD0826AB3F5805F04D0002B56D103699D
:100F3000002B53D103685B681370836A01338362AB
:100F4000C38D9BB2013B9BB2C385002B51D100B531
:100F500083B00268D36823F02003D3600268D368AB
:100F600023F48073D3600268536923F00103536153
:100F7000202380F8423000234363036B012B33D1DD
:100F800000230363026802F10C0353E8003F23F0DF
:100F900010030C3242E800310029F3D103681A68CB
:100FA00012F0100F06D0002201921A6801925B68BD
:100FB0000193019B818DFFF7AAFF002003B05DF82C
:100FC00004FB0269002AACD1826A03685B68C3F340
:100FD00008031380836A02338362B1E703685B68A6
:100FE00003F07F031370A8E7FFF788FFE5E702200F
:100FF000704700207047000010B582B004460268B8
:101000001368D068516913F00F0F09D113F0200F46
:101010000CD010F0200F09D02046FFF779FF16E022
:1010200011F0010115D110F4907F12D1216B01292B
:1010300079D013F0800F03D010F0800F40F02181A1
:1010400013F0400F03D010F0400F40F01E8102B0AB
:1010500010BD13F0010F06D010F4807F03D0626C36
:1010600042F00102626413F0040F04D019B1626C03
:1010700042F00202626413F0020F04D019B1626CF4
:1010800042F00402626413F0080F07D010F0200F42
:1010900000D119B1626C42F008026264626C002AED
:1010A000D5D013F0200F02D010F0200F29D12368E3
:1010B0005B6903F04003626C12F0080F00D163B368
:1010C0002046FFF733FD23685B6913F0400F20D003
:1010D000226802F1140353E8003F23F04003143266
:1010E00042E800310029F3D1E36B73B1694A1A6514
:1010F000E06B00F054FD0028A9D0E06B036D984729
:10110000A5E72046FFF704FFD1E72046FFF7F7FEEB
:101110009DE72046FFF7F3FE99E72046FFF7EFFE35
:101120000023636493E713F0100F82D010F0100FC8
:101130003FF47FAF00230193136801935368019339
:10114000019B536913F0400F5FD0E26B13685B683B
:101150009BB2002B4AD0A18D994247D9E385D36930
:10116000B3F5807F37D0226802F10C0353E8003FCB
:1011700023F480730C3242E800310029F3D1226855
:1011800002F1140353E8003F23F00103143242E854
:1011900000310029F3D1226802F1140353E8003F23
:1011A00023F04003143242E800310029F3D1202318
:1011B00084F8423000232363226802F10C0353E8D1
:1011C000003F23F010030C3242E800310029F3D134
:1011D000E06B00F09AFC02236363A18DE38D9BB268
:1011E000C91A89B22046FFF792FE30E7A18D9942D5
:1011F0007FF42DAFD369B3F5807F7FF428AF02234E
:1012000063632046FFF783FE21E7A18DE38D9BB248
:10121000C91A89B2E38D9BB2002B3FF418AF0029A5
:101220003FF415AF226802F10C0353E8003F23F4AA
:1012300090730C3242E800300028F3D1226802F1AA
:10124000140353E8003F23F00103143242E8003056
:101250000028F3D1202384F842300023236322683E
:1012600002F10C0353E8003F23F010030C3242E874
:1012700000300028F3D1022363632046FFF747FEC6
:10128000E5E62046FFF780FCE1E62046FFF729FE71
:10129000DDE600BF010F000890F8413090F84200F1
:1012A00018437047002800F0E08170B582B0044612
:1012B000036813F0010F3BD09F4B9B6803F00C03B6
:1012C000042B2CD09C4B9B6803F00C03082B21D0E3
:1012D0006368B3F5803F4FD0B3F5A02F52D0964B43
:1012E0001A6822F480321A601A6822F480221A6086
:1012F0006368002B50D000F02DFD05468E4B1B6817
:1013000013F4003F14D100F025FD401B6428F5D9EB
:101310000320B1E1884B5B6813F4800FD8D0864B73
:101320001B6813F4003F03D06368002B00F09F811B
:10133000236813F0020F54D07F4B9B6813F00C0FFF
:101340003ED07D4B9B6803F00C03082B33D0E36841
:10135000002B68D0794B01221A6000F0FBFC054697
:10136000754B1B6813F0020F54D100F0F3FC401BC7
:101370000228F5D903207FE16F4A136843F48033D4
:101380001360B5E76C4B1A6842F480221A601A6841
:1013900042F480321A60ABE700F0DCFC0546664B95
:1013A0001B6813F4003FC3D000F0D4FC401B64283A
:1013B000F5D9032060E1604B5B6813F4800FC6D160
:1013C0005D4B1B6813F0020F03D0E368012B40F064
:1013D0005081594A136823F0F803216943EAC10395
:1013E0001360236813F0080F42D063696BB3534B4B
:1013F0000122C3F8802E00F0ADFC05464E4B5B6F1A
:1014000013F0020F34D100F0A5FC401B0228F5D9DF
:10141000032031E1484A136823F0F803216943EAC5
:10142000C1031360DDE7454B00221A6000F092FC17
:101430000546414B1B6813F0020FD2D000F08AFC26
:10144000401B0228F5D9032016E13C4B0022C3F8CB
:10145000802E00F07FFC0546374B5B6F13F0020FC8
:1014600006D000F077FC401B0228F5D9032003E1E9
:10147000236813F0040F77D02F4B1B6C13F0805FA1
:1014800033D1002301932C4B1A6C42F080521A6422
:101490001B6C03F080530193019B0125284B1B68B3
:1014A00013F4807F23D0A368012B34D0052B38D0D0
:1014B000214B1A6F22F001021A671A6F22F0040200
:1014C0001A67A368002B3DD000F044FC06461A4B77
:1014D0001B6F13F0020F46D100F03CFC801B41F261
:1014E00088339842F3D90320C6E00025D6E7144A92
:1014F000136843F48073136000F02CFC0646104B15
:101500001B6813F4807FCED100F024FC801B0228DE
:10151000F5D90320B0E0084A136F43F001031367C5
:10152000CFE7054B1A6F42F004021A671A6F42F0B8
:1015300001021A67C5E700BF0038024000004742B9
:101540000070004000F006FC0646524B1B6F13F083
:10155000020F08D000F0FEFB801B41F28833984256
:10156000F3D9032088E0EDB9A369002B00F0838054
:10157000484A926802F00C02082A51D0022B17D078
:10158000454B00221A6600F0E5FB0446414B1B6800
:1015900013F0007F42D000F0DDFB001B0228F5D9DC
:1015A000032069E03B4A136C23F080531364DBE7AC
:1015B000394B00221A6600F0CDFB0546354B1B68FF
:1015C00013F0007F06D000F0C5FB401B0228F5D9C0
:1015D000032051E0E369226A1343626A43EA8213FB
:1015E000A26A5208013A43EA0243E26A43EA02630A
:1015F000284A5360284B01221A6600F0ABFB0446D0
:10160000244B1B6813F0007F06D100F0A3FB001BE6
:101610000228F5D903202FE000202DE000202BE048
:10162000012B2BD01B4B5B6803F48001E2699142D4
:1016300026D103F03F02216A8A4223D1616A47F62C
:10164000C0721A40B2EB811F1ED103F44031A26A6E
:101650005208013AB1EB024F18D103F07063E26A0D
:10166000B3EB026F14D1002006E001207047012087
:1016700002E0012000E0002002B070BD0120FBE785
:101680000120F9E70120F7E70120F5E70120F3E762
:101690000120F1E7003802400000474208B5334B13
:1016A0009B6803F00C03042B5BD0082B5BD12F4B02
:1016B0005A6802F03F025B6813F4800F2CD02B4B6A
:1016C0005868C0F388104FEA401CBCEB000C6EEB6E
:1016D0000E0E4FEA8E1343EA9C634FEA8C11B1EB76
:1016E0000C0163EB0E03DB0043EA5173C90011EBFD
:1016F000000C43F10003590200234FEA4C2041EA59
:10170000DC51FEF7A5FD194B5B68C3F301430133C0
:101710005B00B0FBF3F008BD144B5868C0F38810B1
:101720004FEA401CBCEB000C6EEB0E0E4FEA8E1322
:1017300043EA9C634FEA8C11B1EB0C0163EB0E039F
:10174000DB0043EA5173C90011EB000C43F10003C5
:10175000990200234FEA8C2041EA9C51FEF778FD64
:10176000D1E70348D7E70348D5E700BF0038024078
:1017700000127A000024F400002800F09B8070B56D
:101780000D4604464F4B1B6803F007038B4208D2FB
:10179000CBB24C4A1370136803F007038B4240F03E
:1017A0008B80236813F0020F17D013F0040F04D0BE
:1017B000454A936843F4E0539360236813F0080F9D
:1017C00004D0414A936843F4604393603E4A93686F
:1017D00023F0F003A1680B439360236813F0010F1B
:1017E00032D06368012B21D09A1E012A25D9364AAE
:1017F000126812F0020F61D033498A6822F00302A6
:1018000013438B6000F0A6FA06462F4B9B6803F04B
:101810000C036268B3EB820F16D000F09BFA801BBA
:1018200041F288339842F0D9032042E0264A1268F8
:1018300012F4003FE0D101203BE0234A126812F08D
:10184000007FD9D1012034E01E4B1B6803F0070351
:10185000AB4207D9EAB21B4B1A701B6803F00703AF
:10186000AB422DD1236813F0040F06D0164A9368BB
:1018700023F4E053E1680B439360236813F0080FEF
:1018800007D0114A936823F46043216943EAC103F6
:101890009360FFF703FF0C4B9B68C3F303130B4AE2
:1018A000D35CD8400A4B18600A4B186800F006FA5F
:1018B000002070BD012070470120FAE70120F8E701
:1018C0000120F6E7003C024000380240C430000826
:1018D0000800002004000020014B1868704700BF7A
:1018E0000800002008B5FFF7F7FF044B9B68C3F31F
:1018F0008223034AD35CD84008BD00BF00380240B1
:10190000BC30000808B5FFF7E7FF044B9B68C3F342
:101910004233034AD35CD84008BD00BF00380240C0
:10192000BC30000800230F2B00F2D78070B582B0C6
:1019300065E085684FEA430E032404FA0EF425EAB5
:101940000405CC6804FA0EF42C438460446824EA4D
:1019500002044A68C2F300129A40224342605CE0EB
:10196000DC08083450F8242003F00705AD004FF0E0
:101970000F0E0EFA05FE22EA0E0E0A69AA4042EA8E
:101980000E0240F824205CE0042200E0002202FA6B
:101990000EF22A430234514D45F82420504A9468EF
:1019A0006FEA0C0224EA0C054E6816F4801F01D081
:1019B0004CEA04054A4CA560E46802EA04054E6856
:1019C00016F4001F01D04CEA0405454CE56064683C
:1019D00002EA04054E6816F4003F01D04CEA040503
:1019E0003F4C6560246822404D6815F4803F01D06B
:1019F0004CEA04023A4C226001330F2B6BD80122CF
:101A00009A400C6804EA020C32EA0404F4D14C68EF
:101A100004F00304013C012C8BD94A6802F0030254
:101A2000032A09D0C4685D000322AA4024EA020404
:101A30008A68AA402243C2604A6802F00302022A6E
:101A40008ED004684FEA430E032202FA0EF224EA13
:101A500002044A6802F0030202FA0EF22243026014
:101A60004A6812F4403FC7D0002201921D4A546CCC
:101A700044F480445464526C02F480420192019A0E
:101A80009C08A51C154A52F8255003F0030E4FEA96
:101A90008E0E0F2202FA0EF225EA0205124A904239
:101AA0003FF474AF02F5806290420ED002F580627E
:101AB00090420CD002F5806290420AD002F580621A
:101AC00090423FF461AF072261E701225FE7022203
:101AD0005DE703225BE702B070BD7047003801404C
:101AE000003C014000380240000002400AB1816120
:101AF0007047090481617047436901EA030221EAE2
:101B0000030141EA02418161704770B50446866D68
:101B100000F020F994F83530DBB2022B06D0802398
:101B20006365002384F83430012070BD05462268C7
:101B3000136823F0160313602268536923F08003AF
:101B40005361236CE3B12268136823F00803136028
:101B50002268136823F00103136023681B6813F0E5
:101B6000010F11D000F0F6F8431B052BF5D9202307
:101B70006365032084F83500002384F83430D4E70B
:101B8000A36C002BDFD1E3E7E26D3F239340B3600A
:101B9000012384F83530002084F83400C5E790F83C
:101BA0003530DBB2022B03D0802343650120704720
:101BB000052380F835300268136823F001031360B1
:101BC00000207047002807DB00F01F0240090123B6
:101BD0009340024A42F82030704700BF00E100E025
:101BE000002808DB0901C9B200F1604000F561403E
:101BF00080F80013704700F00F000901C9B2014BD3
:101C00001954704714ED00E000B500F00700C0F172
:101C1000070CBCF1040F28BF4FF0040C031D062B6A
:101C20000FD9C31E4FF0FF3E0EFA0CF021EA00015F
:101C300099400EFA03FE22EA0E0241EA02005DF824
:101C400004FB0023EEE70000074AD36823F4E063B7
:101C50001B041B0C000200F4E060034343F0BF636D
:101C600043F40033D360704700ED00E010B5044644
:101C7000054BD868C0F30220FFF7C6FF0146204697
:101C8000FFF7AEFF10BD00BF00ED00E008B5FFF7A5
:101C900099FF08BD0138B0F1807F0BD24FF0E023EF
:101CA0005861054AF02182F823100020986107222C
:101CB0001A6170470120704700ED00E010B504463E
:101CC0000E4B1A784FF47A73B3FBF2F30C4A106898
:101CD000B0FBF3F0FFF7DEFF68B90F2C01D901204C
:101CE0000AE0002221464FF0FF30FFF7BFFF054B0F
:101CF0001C60002000E0012010BD00BF010000209A
:101D0000080000200400002008B50B4B1A6842F4BC
:101D100000721A601A6842F480621A601A6842F40B
:101D200080721A600320FFF78FFF0020FFF7C6FFC5
:101D3000FEF76AFD002008BD003C0240034A11681E
:101D4000034B1B780B441360704700BFAC010020AD
:101D500001000020014B1868704700BFAC01002053
:101D600038B50446FFF7F6FF0546B4F1FF3F02D051
:101D7000044B1B781C44FFF7EDFF401BA042FAD335
:101D800038BD00BF010000202DE9F04106460C4699
:101D9000174698463BE0FFF7DDFF069BC01A40451B
:101DA00002D8B8F1000F32D1012D18D033689B69E9
:101DB00024EA03039BB2B3FA83F35B099F4226D163
:101DC00000233363202286F83D2086F83E30326CB3
:101DD00042F02002326486F83C30012027E033686C
:101DE0005B6924EA03039BB2B3FA83F35B09E5E77B
:101DF00033685B6924EA030C1FFA8CFCBCFA8CFC88
:101E00004FEA5C1C674511D1B8F1FF3FC3D1C4F361
:101E10000745012DECD033689B6924EA030C1FFAB7
:101E20008CFCBCFA8CFC4FEA5C1CEBE70020BDE8A4
:101E3000F0817047002800F0CC8070B5044690F81F
:101E40003D30002B77D0242384F83D30226813687E
:101E500023F0010313602268136843F40043136006
:101E60002268136823F400431360FFF73BFD6268A8
:101E70005A4B9A4264D85A4B98428CBF0023012394
:101E8000002B40F0A8805749A1FB00318B0C25683E
:101E90006A6822F03F0242EA91426A6021680A6A57
:101EA00022F03F0266684D4DAE424FD801331343D6
:101EB0000B622168CA6922F44F4222F0FF02656872
:101EC000464B9D424CD8431E6D00B3FBF5F30133E6
:101ED00040F6FC70034278D0C3F30B031A43CA6187
:101EE00021680B6823F0C003E269206A02431343B0
:101EF0000B6021688B6823F4034323F0FF032269FE
:101F0000E068024313438B602168CB6823F0FF0332
:101F10006269A06902431343CB602268136843F0EF
:101F20000103136000202064202384F83D302063E7
:101F300084F83E0070BD80F83C30FFF77AFF82E7FE
:101F4000294B98428CBF0023012399E74FF49675E3
:101F500005FB03F3254DA5FB03539B090133A6E7BE
:101F6000A668BEB9431E05EB450CB3FBFCF3013379
:101F7000C3F30B03B3FA83F35B0943BBC6B9431E38
:101F800005EB4505B3FBF5F30133C3F30B0343F452
:101F90000043A3E7431E05EB850C0CEB8C0CB3FB55
:101FA000FCF30133C3F30B03B3FA83F35B09E4E7F8
:101FB000431E05EB850505EB8505B3FBF5F3013302
:101FC000C3F30B0343F4404388E7042386E701236C
:101FD00084E7012070470120ACE700BFA086010024
:101FE0007F841E0083DE1B43FF083D00D34D62103B
:101FF00030B482B00024019490F83D40E4B2202C2B
:1020000059D1304C2468E4082F4DA5FB0454240A10
:1020100004EB840404EB84040194019C013C0194CE
:10202000019C002C3BD00468A56915F0020FF4D187
:1020300090F83C50012D42D0012580F83C50256895
:1020400015F0010F03D1256845F0010525600568ED
:102050002C6824F400642C60212480F83D40402446
:1020600080F83E4000240464049D4562BDF814508D
:102070004585458D0585154DC56241648264C364FF
:1020800004650268136843F48073136080F83C4071
:102090000268536843F4E063536020460CE0002379
:1020A0000363202280F83D2080F83E30036C134308
:1020B0000364022000E0022002B030BC704702201E
:1020C000FAE700BF0800002089B5F8140000FFFF00
:1020D0002DE9F04385B00446884691461D46FFF73A
:1020E00039FE94F83D30DBB2202B03D0022005B03E
:1020F000BDE8F08306460090192301225749204687
:10210000FFF742FE002840F0A08094F83C30012BFD
:1021100000F09D80012384F83C3023681A6812F097
:10212000010F03D11A6842F001021A602268136895
:1021300023F400631360242384F83D3000272764D0
:10214000474BE36240E023681B6813F4807F02D0B2
:102150004FF4007323640320C9E7A02384F83D30C3
:1021600022685369C3F340035269C2F3802294F892
:102170003DC05FFA8CFCBCF1A00F09D043B93AB95D
:10218000FFF7E8FD801BA842E7D8002DE8D1E4E77F
:10219000202384F83D3023685A6912F0020F31D1B0
:1021A0001A6842F400721A6023686FF480625A6100
:1021B00000961923012229492046FFF7E5FD002852
:1021C00049D101374F4538D22268136843F48073F0
:1021D000136000962B4600224FF001112046FFF7B6
:1021E000D3FD0028AFD1236808F0FE021A61FFF783
:1021F000B1FD064622685369C3F340035269C2F336
:102200008022B4E71A6842F400721A600023039334
:1022100023685A6903929B690393039B00961923D1
:1022200001220E492046FFF7AFFD90B9202384F824
:102230003D30002384F83C3059E7202384F83D30BA
:10224000002384F83C30012051E702204FE70220B0
:102250004DE701204BE7012049E700BF02001000D5
:102260000000FFFF034AD2F8883043F47003C2F83D
:102270008830704700ED00E010B503460C4A0D4968
:102280000D48006840B10C4800680344521A93425C
:1022900006D8094A136010BD0748084C0460F2E7ED
:1022A00000F062F80C2303604FF0FF30F3E700BF4B
:1022B0000000022000040000B00100200003002004
:1022C000DFF834D0FFF7CEFF0C480D490D4A00234C
:1022D00002E0D458C4500433C4188C42F9D30A4ADB
:1022E0000A4C002301E013600432A242FBD300F049
:1022F00041F8FEF70DF870470000022000000020B2
:102300005C000020183100085C000020FC02002066
:10231000FEE700000EB410B59DB01FAB0290069012
:102320006FF000410A48079104910A4953F8042BC1
:102330000591002402A9006801931B9400F09CF809
:10234000029B1C701DB0BDE8104003B0704700BF79
:102350000C0000200802FFFF02440346934200D114
:10236000704703F8011BF9E7014B1868704700BF7D
:102370000C00002070B50D4D0D4C641BA410002600
:10238000A64209D10B4D0C4C00F0C2FD641BA410F9
:102390000026A64205D170BD55F8043B984701368A
:1023A000EEE755F8043B98470136F2E71031000894
:1023B00010310008103100081431000870477047D0
:1023C0002DE9F0478E681F46BE420B6882460C46D8
:1023D00090462DD8B1F90C2012F4906F26D0656983
:1023E000096905EB4505A3EB010905EBD5757B1CD8
:1023F0004B446D109D4238BF1D46530527D52946D5
:1024000000F058F9064660B321694A4600F0C2FB65
:10241000A38923F4906343F08003A381266165615F
:102420004E44A5EB09052660A5603E46BE4200D994
:102430003E4620683246414600F082FBA3689B1B63
:10244000A3602368334423600020BDE8F0872A4658
:1024500000F048FB06460028E0D12169504600F014
:10246000A7FB0C23CAF80030A38943F04003A381E3
:102470004FF0FF30E9E700002DE9F04F98468B89D7
:102480001B069DB007460D46144610D50B6973B95F
:10249000402100F00FF92860286130B90C233B601F
:1024A0004FF0FF301DB0BDE8F08F40236B6100237B
:1024B000099320238DF82930CDF80C803023DFF8E4
:1024C0009C818DF82A304FF0010923469A4613F873
:1024D000012B0AB1252AF9D1BAEB040B0BD05B46CC
:1024E000224629463846FFF76BFF013000F0A780EF
:1024F000099A5A4409929AF80030002B00F09F8004
:1025000000234FF0FF32CDE905230AF1010A0493BD
:1025100007938DF853301A935446052214F8011B83
:102520004E48FDF745FE049AD8B9D00644BF202393
:102530008DF85330110744BF2B238DF853309AF890
:1025400000302A2B15D0079A544600204FF00A0C71
:10255000214611F8013B303B092B4BD9B0B1079212
:1025600014E0A0EB080309FA03F313430493A24613
:10257000D2E7039B191D1B680391002BBBBF5B4275
:1025800042F0020207930793B8BF049223782E2BE0
:102590000AD163782A2B32D1039B1A1D1B68039240
:1025A00043EAE37302340593DFF8C0A021780322E5
:1025B0005046FDF7FDFD38B1049BA0EB0A00402218
:1025C000824013430134049314F8011B24488DF80E
:1025D00028100622FDF7ECFD002836D0214B1BBB4E
:1025E000039B073323F0070308330393099B33440A
:1025F00009936AE70CFB02320C460120A8E700238E
:102600000134059319464FF00A0C204610F8012BAF
:10261000303A092A03D9002BC6D00591C4E70CFB38
:10262000012104460123F0E703AB00932A460E4B39
:1026300004A93846AFF30080421C0646D6D1AB89C8
:102640005B063FF52DAF09982CE703AB00932A46B4
:10265000054B04A9384600F01BF9EDE7D43000081B
:10266000DE30000800000000C1230008DA30000856
:1026700070B50F4E0C463168054611B900F07AFA74
:1026800030602146284600F075FA431C03D14FF014
:10269000FF34204670BDC41C24F00304A042F8D0CF
:1026A000211A284600F066FA0130F2D1EFE700BFA8
:1026B000F00200202DE9F843CD1C25F00305083574
:1026C0000C2D38BF0C25002D064601DBA94204D98C
:1026D0000C2333600020BDE8F883DFF8D48000F0DD
:1026E000F5F9D8F800301C4644BB29463046FFF7C0
:1026F000BFFF431C044658D1D8F800402746002F9E
:1027000043D1002C4BD023683946304604EB0309F3
:1027100000F030FA814542D121686D1A29463046D1
:10272000FFF7A6FF01303AD023682B442360D8F886
:1027300000305A6862BBC8F800700FE02268521B74
:1027400020D40B2A17D96119A342256018BF5960FC
:10275000636808BFC8F8001062514B60304600F053
:10276000BBF904F10B00231D20F00700C21A1CBFA7
:102770001B1AA350AFE76268A3420CBFC8F8002041
:102780005A60EBE723466468AEE73C467F68B6E7ED
:102790001A465B68A342FBD100235360DEE70C239B
:1027A0003360304600F098F994E70560D6E700BF43
:1027B000F40200202DE9F047164698468A680B6916
:1027C000DDF820909342B8BF1346336091F8432060
:1027D00007460C460AB1013333602368990642BFAD
:1027E000336802333360256815F0060506D104F11D
:1027F000190AE36832689B1AAB4226DC94F843302E
:102800002268003B18BF012392062BD404F1430237
:1028100041463846C84701301ED02368226903F07C
:102820000603042B02BFE5683368ED1AA3680CBFEA
:1028300025EAE57500259342C4BF9B1AED180026D2
:102840001A34B5421AD1002008E00123524641460D
:102850003846C847013003D14FF0FF30BDE8F0875C
:102860000135C6E7E1185A1C302081F843002244A4
:1028700094F8451082F843100233C7E7012322463B
:1028800041463846C8470130E6D00136D9E7000056
:102890002DE9FF470F7E0C9E782F914680460C460F
:1028A0009A4601F1430207D8622F0AD8002F00F0A0
:1028B000D180582F00F0B88004F1420684F84270AD
:1028C0003AE0A7F16303152BF6D801A151F823F0E4
:1028D000292900083D290008B9280008B92800085E
:1028E000B9280008B92800083D290008B9280008BF
:1028F000B9280008B9280008B92800083B2A0008B0
:1029000067290008F5290008B9280008B928000837
:102910005D2A0008B928000867290008B9280008BE
:10292000B9280008FD29000833681A1D1B683260A9
:1029300004F1420684F8423001239CE033682068A9
:10294000191D3160060601D51D6803E04506FBD55B
:10295000B3F90050002D03DA2D236D4284F8433083
:1029600058480A2311E021683368080653F8045BCD
:1029700002D4490648BFADB26F2F5248336014BF2E
:102980000A230823002184F843106668A660002EFD
:1029900005DB21682E4321F0040121604BD016464F
:1029A000B5FBF3F103FB1157C75D06F8017D2F4618
:1029B000BB420D46F4D9082B0BD12368DF0708D59D
:1029C000236961689942DEBF302306F8013C06F1B5
:1029D000FF36921B2261CDF800A04B4603AA214688
:1029E0004046FFF7E7FE01304AD14FF0FF3004B018
:1029F000BDE8F087236843F020032360324878273E
:102A000084F84570236831681F0651F8045B02D4CE
:102A10005F0648BFADB23160D90744BF43F0200321
:102A200023601DB11023ADE72648E9E7236823F0B2
:102A300020032360F6E71646BDE733682568616921
:102A4000181D30602E061B6801D5196002E068066B
:102A5000FBD51980002323611646BCE733681A1D95
:102A600032601E68626800213046FDF7A1FB08B1A4
:102A7000801B606063682361002384F84330AAE709
:102A80002369324649464046D0470130ADD02368DD
:102A90009B0713D4E068039B9842B8BF1846A6E78B
:102AA0000123324649464046D04701309DD001358A
:102AB000E36803995B1AAB42F2DCEBE7002504F113
:102AC0001906F5E7E5300008F63000080148FFF781
:102AD00075BC00BFEC0200200148FFF770BC00BFCE
:102AE000EC0200202DE9F041074614460D4621B9BD
:102AF000BDE8F0411146FFF7DDBD2AB900F058F8F6
:102B000025462846BDE8F08100F09CF88442064640
:102B100002D8B4EB500FF4D821463846FFF7CAFD6F
:102B2000804608B94546ECE7B4422246294628BF0C
:102B3000324600F02FF82946384600F039F8F1E720
:102B4000884210B501EB020402D98442234607D81B
:102B5000431EA14208D011F8012B03F8012FF8E71A
:102B6000024401468A4200D110BD13F8014D02F81B
:102B7000014DF7E738B5064D0023044608462B60A3
:102B8000FFF77AFB431C02D12B6803B1236038BDE9
:102B9000F80200200A44914200F1FF3300D170474F
:102BA00010B511F8014B03F8014F9142F9D110BD56
:102BB00038B50546002941D051F8043C0C1F002BC4
:102BC000B8BFE418FFF782FF1D4A136833B963608A
:102BD00014602846BDE83840FFF77EBFA34208D9FD
:102BE000206821188B4201BF19685B6809182160B1
:102BF000EDE71A465B680BB1A342FAD91168501889
:102C0000A0420BD120680144501883421160E0D1EA
:102C100018685B68536008441060DAE702D90C2337
:102C20002B60D6E7206821188B4204BF19685B68C7
:102C3000636004BF091821605460CAE738BD00BF53
:102C4000F402002051F8043C181F002BBCBF0B58A5
:102C5000C01870472DE9F047089D0E4604460F4600
:102C6000002B4AD194468C45B2FA82F260D942B127
:102C7000C2F12003974020FA03F30CFA02FC1F4331
:102C800094404FEA1C4E1FFA8CF6B7FBFEF1230C62
:102C90000EFB117743EA074301FB06F098420AD97D
:102CA0001CEB030301F1FF3780F01581984240F2DD
:102CB0001281023963441B1AA4B2B3FBFEF00EFB6F
:102CC000103344EA034400FB06F6A6420AD91CEB83
:102CD000040400F1FF3380F00081A64240F2FD8041
:102CE0006444023840EA0140A41B00211DB1D440D5
:102CF0000023C5E90043BDE8F0878B4205D90DB13B
:102D0000C5E9000100210846F5E7B3FA83F100297F
:102D100046D1B34202D3824200F2F580841A66EBB8
:102D2000030201201746002DE5D0C5E90047E2E780
:102D3000002A40F09380A1EB0C034FEA1C471FFAD6
:102D40008CFE0121B3FBF7F607FB1630230C43EA98
:102D500000430EFB06F0984208D91CEB030306F172
:102D6000FF3802D2984200F2D08046461B1AA4B225
:102D7000B3FBF7F007FB103344EA03440EFB00FEFD
:102D8000A64508D91CEB040400F1FF3302D2A64586
:102D900000F2B6801846A4EB0E0440EA0640A5E710
:102DA000C1F120078B4022FA07FC4CEA030C06FA1B
:102DB00001FE20FA07F426FA07F344EA0E0400FAAB
:102DC00001F84FEA1C404FEA1449B3FBF0FE1FFA2A
:102DD0008CF600FB1E3349EA03430EFB06F99945C6
:102DE00002FA01F20BD91CEB03030EF1FF3A80F05B
:102DF0008580994540F28280AEF1020E6344A3EBD8
:102E00000909A4B2B9FBF0F300FB139944EA0944A1
:102E100003FB06F6A64208D91CEB040403F1FF30BD
:102E200068D2A64266D9023B644443EA0E40A41B22
:102E3000A0FB02E6B4427346B14652D34FD05DB117
:102E4000B8EB030264EB090404FA07F722FA01F372
:102E50001F43CC40C5E9007400214CE7C2F12001BA
:102E600020FA01F30CFA02FC26FA01F196403343F2
:102E70004FEA1C471FFA8CFEB1FBF7F007FB101658
:102E8000190C41EA064100FB0EF68E4204FA02F4E8
:102E900008D91CEB010100F1FF382DD28E422BD94D
:102EA00002386144891B9BB2B1FBF7F607FB161190
:102EB00043EA014306FB0EF1994208D91CEB0303D8
:102EC00006F1FF3814D2994212D9023E63445B1ACC
:102ED00046EA004136E73946EDE6184602E7F04596
:102EE000ADD2BEEB020366EB0C060138B146A6E795
:102EF0004646ECE7034698E74046D3E7D6467EE7EA
:102F00006444023847E708460DE7023E63442DE774
:102F1000F8B500BFF8BC08BC9E467047F8B500BFC6
:082F2000F8BC08BC9E46704796
:102F2800000002402000000048656C6C6F2066724B
:102F38006F6D2053544D333220414D4C2D42564134
:102F480054210D0A000000005374617274696E67A1
:102F58002049324320696E697469616C697A6174C9
:102F6800696F6E2E2E2E0D0A00000000414D4C2078
:102F78004256415420697320726561647920666FF6
:102F880072206D7565617372656D656E74732E0D53
:102F98000A000000493243204C4953334448202852
:102FA80030783138292069732072656164792E0D73
:102FB8000A000000493243204C4953334448202832
:102FC8003078313829206572726F722E20537461FF
:102FD8007475733A2048414C5F4552524F520D0A5E
:102FE80000000000493243204C495333444820280C
:102FF800307831382920627573792E2053746174C2
:1030080075733A2048414C5F425553590D0A0000E8
:10301800493243204C4953334448202830783138CA
:10302800292074696D656F75742E205374617475E9
:10303800733A2048414C5F54494D454F55540D0A49
:1030480000000000493243204C49533344482028AB
:103058003078313829206E6F7420666F756E642E53
:10306800205374617475733A2025640D0A000000BA
:103078004932433120496E697469616C697A6564C3
:103088002E0D0A004932432064657669636520691C
:10309800732072656164792E0D0A0000493243205D
:1030A800646576696365206E6F7420666F756E64FB
:1030B8002E0D0A00000000000102030400000000B9
:1030C800000000000102030406070809232D302B25
:1030D8002000686C4C006566674546470030313211
:1030E8003334353637383941424344454600303168
:1030F80032333435363738396162636465660000C7
:0831080098D0FF7F01000000D8
:04311000ED020008C4
:04311400C5020008E8
:1031180057010000100000000024F40010000020F7
:1031280000000000B40100201C02002084020020DE
:103138000000000000000000000000000000000087
:103148000000000000000000000000000000000077
:103158000000000000000000000000000000000067
:0C3168000000000000000000000000005B
:04000005080022C10C
:00000001FF
