:020000040800F2
:1000000000000220D5530008E5180008E718000892
:10001000E9180008EB180008ED18000800000000BF
:10002000000000000000000000000000EF180008C1
:10003000F118000800000000F3180008F518000887
:1000400025540008255400082554000825540008AC
:10005000255400082554000825540008255400089C
:10006000255400082554000825540008255400088C
:10007000255400082554000825540008255400087C
:1000800025540008255400082554000800000000ED
:1000900000000000000000000000000025540008DF
:1000A000255400082554000825540008255400084C
:1000B000D1120008255400082554000839190008F9
:1000C0004919000825540008255400082554000843
:1000D000255400081919000829190008000000001B
:1000E0000D190008255400082554000800000000E0
:1000F000000000000000000000000000255400087F
:10010000000000002554000825540008255400086C
:1001100000000000000000000000000000000000DF
:1001200025540008255400082554000825540008CB
:10013000255400080000000000000000000000003E
:10014000000000000000000000000000255400082E
:10015000FD180008255400082554000825540008FF
:10016000255400082554000800000000000000008D
:10017000000000000000000000000000000000007F
:1001800000000000255400080000000000000000EE
:08019000255400082554000865
:1001A000034613F8012B002AFBD1181A01387047B7
:1001B00001F0FF01102A2BDB10F0070F08D010F818
:1001C000013B013A8B422DD010F0070F42B3F6D11C
:1001D000F0B441EA012141EA014122F007047FF035
:1001E00000070023F0E80256083C85EA010586EA8C
:1001F000010685FA47F5A3FA87F586FA47F6A5FAC8
:1002000087F68EB9EED1F0BC01F0FF0102F00702D3
:1002100032B110F8013B013A83EA010313B1F8D17E
:100220000020704701387047002D06BF354603385F
:10023000073815F0010F07D1013015F4807F02BF98
:10024000013015F4C03F0130F0BC0138704700BFE9
:1002500081F0004102E000BF83F0004330B54FEA77
:1002600041044FEA430594EA050F08BF90EA020FE4
:100270001FBF54EA000C55EA020C7FEA645C7FEA77
:10028000655C00F0E2804FEA5454D4EB5555B8BF9A
:100290006D420CDD2C4480EA020281EA030382EA0B
:1002A000000083EA010180EA020281EA0303362D9D
:1002B00088BF30BD11F0004F4FEA01314FF4801C70
:1002C0004CEA113102D0404261EB410113F0004F82
:1002D0004FEA03334CEA133302D0524263EB430339
:1002E00094EA050F00F0A780A4F10104D5F1200ED7
:1002F0000DDB02FA0EFC22FA05F2801841F1000132
:1003000003FA0EF2801843FA05F359410EE0A5F105
:1003100020050EF1200E012A03FA0EFC28BF4CF036
:10032000020C43FA05F3C01851EBE37101F00045EC
:1003300007D54FF0000EDCF1000C7EEB00006EEBF9
:100340000101B1F5801F1BD3B1F5001F0CD3490883
:100350005FEA30004FEA3C0C04F101044FEA4452DA
:1003600012F5800F80F09A80BCF1004F08BF5FEA61
:10037000500C50F1000041EB045141EA050130BD41
:100380005FEA4C0C404141EB0101013C28BFB1F553
:10039000801FE9D291F0000F04BF01460020B1FA9E
:1003A00081F308BF2033A3F10B03B3F120020CDA71
:1003B0000C3208DD02F1140CC2F10C0201FA0CF04F
:1003C00021FA02F10CE002F11402D8BFC2F1200CB4
:1003D00001FA02F120FA0CFCDCBF41EA0C0190406A
:1003E000E41AA2BF01EB0451294330BD6FEA0404B3
:1003F0001F3C1CDA0C340EDC04F11404C4F120029E
:1004000020FA04F001FA02F340EA030021FA04F3AF
:1004100045EA030130BDC4F10C04C4F1200220FA06
:1004200002F001FA04F340EA0300294630BD21FA44
:1004300004F0294630BD94F0000F83F4801306BF0A
:1004400081F480110134013D4EE77FEA645C18BFFE
:100450007FEA655C29D094EA050F08BF90EA020F95
:1004600005D054EA000C04BF1946104630BD91EA8D
:10047000030F1EBF0021002030BD5FEA545C05D190
:100480004000494128BF41F0004130BD14F58004CF
:100490003CBF01F5801130BD01F0004545F0FE4143
:1004A00041F470014FF0000030BD7FEA645C1ABF78
:1004B000194610467FEA655C1CBF0B46024650EAAF
:1004C000013406BF52EA033591EA030F41F40021DB
:1004D00030BD00BF90F0000F04BF0021704730B561
:1004E0004FF4806404F132044FF000054FF0000136
:1004F00050E700BF90F0000F04BF0021704730B5F7
:100500004FF4806404F1320410F0004548BF4042CB
:100510004FF000013EE700BF42004FEAE2014FEA20
:1005200031014FEA02701FBF12F07F4393F07F4FFB
:1005300081F06051704732F07F4208BF704793F0FE
:100540007F4F04BF41F40021704730B54FF4607411
:1005500001F0004521F000411CE700BF50EA010214
:1005600008BF704730B54FF000050AE050EA0102BD
:1005700008BF704730B511F0004502D5404261EB2D
:1005800041014FF4806404F132045FEA915C3FF46E
:10059000D8AE4FF003025FEADC0C18BF03325FEA0B
:1005A000DC0C18BF033202EBDC02C2F1200300FABC
:1005B00003FC20FA02F001FA03FE40EA0E0021FAE1
:1005C00002F11444BDE600BF70B54FF0FF0C4CF4CF
:1005D000E06C1CEA11541DBF1CEA135594EA0C0F81
:1005E00095EA0C0F00F0DEF82C4481EA030621EABC
:1005F0004C5123EA4C5350EA013518BF52EA0335F7
:1006000041F4801143F4801338D0A0FB02CE4FF0A8
:100610000005E1FB02E506F00042E0FB03E54FF0D8
:100620000006E1FB03569CF0000F18BF4EF0010ED0
:10063000A4F1FF04B6F5007F64F5407404D25FEACC
:100640004E0E6D4146EB060642EAC62141EA55517F
:100650004FEAC52040EA5E504FEACE2EB4F1FD0CC1
:1006600088BFBCF5E06F1ED8BEF1004F08BF5FEA3F
:10067000500E50F1000041EB045170BD06F00046F1
:1006800046EA010140EA020081EA0301B4EB5C049E
:10069000C2BFD4EB0C0541EA045170BD41F4801196
:1006A0004FF0000E013C00F3AB8014F1360FDEBFBB
:1006B000002001F0004170BDC4F10004203C35DA97
:1006C0000C341BDC04F11404C4F1200500FA05F31A
:1006D00020FA04F001FA05F240EA020001F00042BB
:1006E00021F0004110EBD37021FA04F642EB060131
:1006F0005EEA430E08BF20EAD37070BDC4F10C045B
:10070000C4F1200500FA04F320FA05F001FA04F21E
:1007100040EA020001F0004110EBD37041F100010A
:100720005EEA430E08BF20EAD37070BDC4F1200515
:1007300000FA05F24EEA020E20FA04F301FA05F27D
:1007400043EA020321FA04F001F0004121FA04F225
:1007500020EA020000EBD3705EEA430E08BF20EAF5
:10076000D37070BD94F0000F0FD101F0004640002F
:1007700041EB010111F4801F08BF013CF7D041EAB1
:10078000060195F0000F18BF704703F000465200B5
:1007900043EB030313F4801F08BF013DF7D043EA86
:1007A0000603704794EA0C0F0CEA135518BF95EA3C
:1007B0000C0F0CD050EA410618BF52EA4306D1D1C3
:1007C00081EA030101F000414FF0000070BD50EAE2
:1007D000410606BF1046194652EA430619D094EA6C
:1007E0000C0F02D150EA013613D195EA0C0F05D156
:1007F00052EA03361CBF104619460AD181EA0301AA
:1008000001F0004141F0FE4141F470014FF0000061
:1008100070BD41F0FE4141F4780170BD70B54FF0FC
:10082000FF0C4CF4E06C1CEA11541DBF1CEA13557C
:1008300094EA0C0F95EA0C0F00F0A7F8A4EB05045E
:1008400081EA030E52EA03354FEA013100F0888055
:100850004FEA03334FF0805545EA131343EA12631E
:100860004FEA022245EA111545EA10654FEA0026D3
:100870000EF000419D4208BF964244F1FD0404F58C
:10088000407402D25B084FEA3202B61A65EB0305E8
:100890005B084FEA32024FF480104FF4002CB6EBA5
:1008A000020E75EB030E22BFB61A754640EA0C0025
:1008B0005B084FEA3202B6EB020E75EB030E22BF65
:1008C000B61A754640EA5C005B084FEA3202B6EBA6
:1008D000020E75EB030E22BFB61A754640EA9C0065
:1008E0005B084FEA3202B6EB020E75EB030E22BF35
:1008F000B61A754640EADC0055EA060E18D04FEAF3
:10090000051545EA16754FEA06164FEAC30343EA92
:1009100052734FEAC2025FEA1C1CC0D111F4801F5F
:100920000BD141EA00014FF000004FF0004CB6E758
:1009300011F4801F04BF01430020B4F1FD0C88BFF7
:10094000BCF5E06F3FF6AFAEB5EB030C04BFB6EB02
:10095000020C5FEA500C50F1000041EB045170BDF5
:100960000EF0004E4EEA113114EB5C04C2BFD4EB22
:100970000C0541EA045170BD41F480114FF0000EA6
:10098000013C90E645EA060E8DE60CEA135594EA22
:100990000C0F08BF95EA0C0F3FF43BAF94EA0C0F25
:1009A0000AD150EA01347FF434AF95EA0C0F7FF49A
:1009B00025AF104619462CE795EA0C0F06D152EAEE
:1009C00003353FF4FDAE1046194622E750EA4106D2
:1009D00018BF52EA43067FF4C5AE50EA41047FF4E3
:1009E0000DAF52EA43057FF4EBAE12E74FF0FF3C48
:1009F00006E000BF4FF0010C02E000BF4FF0010C19
:100A00004DF804CD4FEA410C7FEA6C5C4FEA430C91
:100A100018BF7FEA6C5C1BD001B050EA410C0CBFE0
:100A200052EA430C91EA030F02BF90EA020F002042
:100A3000704710F1000F91EA030F58BF994208BFA9
:100A400090422CBFD8176FEAE37040F00100704766
:100A50004FEA410C7FEA6C5C02D150EA013C07D1BD
:100A60004FEA430C7FEA6C5CD6D152EA033CD3D008
:100A70005DF8040B704700BF8446104662468C4602
:100A80001946634600E000BF01B5FFF7B7FF002835
:100A900048BF10F1000F01BD4DF808EDFFF7F4FF5E
:100AA0000CBF012000205DF808FB00BF4DF808EDE9
:100AB000FFF7EAFF34BF012000205DF808FB00BF0C
:100AC0004DF808EDFFF7E0FF94BF012000205DF82E
:100AD00008FB00BF4DF808EDFFF7CEFF94BF0120E3
:100AE00000205DF808FB00BF4DF808EDFFF7C4FFDC
:100AF00034BF012000205DF808FB00BF4A0011D27E
:100B000012F5001211D20DD56FF47873B3EB625267
:100B10000ED44FEAC12343F0004343EA505323FA73
:100B200002F070474FF00000704750EA013002D1E8
:100B30004FF0FF3070474FF0000070474FEA41021E
:100B4000B2F1E04324BFB3F5001CDCF1FE5C0DD92B
:100B500001F0004C4FEAC0024CEA5070B2F1004F75
:100B600040EB830008BF20F00100704711F0804F78
:100B700021D113F13872BCBF01F00040704741F43D
:100B800080114FEA5252C2F11802C2F1200C10FA41
:100B90000CF320FA02F018BF40F001004FEAC12325
:100BA0004FEAD32303FA0CFC40EA0C0023FA02F3C9
:100BB0004FEA4303CCE77FEA625307D150EA01339F
:100BC0001EBF4FF0FE4040F44000704701F000406F
:100BD00040F0FE4040F40000704700BF53B94AB9EE
:100BE000002908BF00281CBF4FF0FF314FF0FF3035
:100BF00000F00CB8ADF1080C6DE904CE08F042F934
:100C0000DDF804E0DDE9022304B07047704700BF5F
:100C10000348044B834202D0034B03B1184770478B
:100C2000D4010020D4010020000000000548064B3C
:100C30001B1AD90F01EBA301491002D0034B03B1DA
:100C400018477047D4010020D401002000000000A4
:100C500010B5064C237843B9FFF7DAFF044B13B104
:100C60000448AFF300800123237010BDD40100209D
:100C7000000000007C91000808B5054B1BB1054938
:100C80000548AFF30080BDE80840FFF7CFBF00BFC5
:100C900000000000D80100207C91000810B500F091
:100CA0003DF800F0E3F800F021F900F0FBFB00F064
:100CB00081FD642002F09CFC144C204600F054FBA3
:100CC000134800F051FB204600F04EFB00F0E4F921
:100CD000044668B96421032000F0E0F884B10D48AF
:100CE00000F042FB094800F03FFB00F0F1FBFCE79D
:100CF00000F0FCFB04460028ECD000F033FCE9E7F0
:100D0000054800F031FB00F017F8EBE7B49100085C
:100D1000E0910008049200084092000808B502F033
:100D20003BFC00F05BFA00F013F800F003FB00F06E
:100D300025F900F0A5FA08BD08B5044B186818B1EC
:100D40000122998802F002F972B6FEE70C02002037
:100D500030B58BB005A9002405944C608C60CC6044
:100D60000C6101941E4B1A6B42F001021A631A6B5C
:100D700002F001020192019A02941A6B42F00202FF
:100D80001A631A6B02F002020292029A03941A6B1F
:100D900042F004021A631A6B02F004020392039AEF
:100DA00004941A6B42F080021A631B6B03F08003F9
:100DB0000493049B4FF4005305934FF48813069358
:100DC00002250795074801F0DDFF22462946282025
:100DD00002F094FB282002F0A1FB0BB030BD00BF55
:100DE000003802400008024048B108B503460068D8
:100DF00020B119720A46998802F0A8F808BD704718
:100E000070B58AB00546CDE9001207AEDDE90001F4
:100E100086E8050000248DF8244002A902944C6065
:100E20008C60CC600C61BDF82030029301230393E9
:100E3000059301F0A7FF21463046FFF7D5FF96E85E
:100E4000070085E8070028460AB070BD60B108B504
:100E50000346006838B11A7AB2FA82F252091A725D
:100E6000998802F079F808BD7047000030B587B066
:100E7000084A04AB92E8030083E80300064D93E8B8
:100E800006006846FFF7BCFF9DE8070085E80700FD
:100E900007B030BD989100080C02002070B50546DF
:100EA0000E46002406E00748FFF7D0FF304602F068
:100EB0009FFB0134B4EB450FF5DB00210148FFF740
:100EC00093FF70BD0C02002082B002AB03E9060064
:100ED00050B1034602AA12E9030083E8030000228E
:100EE0001A721A745A72DA6002B0704700B583B091
:100EF000064A92E80300CDE90001DDE9001204484A
:100F0000FFF7E2FF03B05DF804FB00BFA09100080B
:100F1000F801002038B5044602F064FB114B9B88B1
:100F2000A34200D038BD05460F4B1B68C31A642B83
:100F3000F8D90E4B1A7882F001021A701B784BB167
:100F400001210B48FFF750FF0A4800F00DFA064B4D
:100F50001D60E7E700210648FFF746FF064800F05E
:100F600003FAF4E7F8010020F0010020F40100206A
:100F70000C0200207C9200089C92000808B51748DB
:100F800000F0F2F91648174B0360174B436000233B
:100F90008360C3604FF48042026143618361C36137
:100FA000036202F0A1FF98B9104800F0DDF90022B9
:100FB00011461F2002F0A2FA1F2002F0AFFA012210
:100FC0000021202002F09AFA202002F0A7FA08BDA2
:100FD000074800F0C9F9FFF7AFFEE5E7BC9200084B
:100FE000DC02002000540040A08601000C930008A1
:100FF000DC92000810B5642303223021094803F075
:101000007FFA20B9084800F0AFF9012010BD024670
:10101000064C0749204604F009FA204600F0A4F9DE
:101020000020F3E7DC02002028930008980200204B
:101030004893000810B586B057238DF81730642305
:101040000293012301930DF1170200922022302117
:101050000C4803F027F838B90B4800F085F90B4B22
:1010600001221A7006B010BD0246094C09492046FB
:1010700004F0DCF9204600F077F9044B00221A70E6
:10108000F0E700BFDC02002074930008D8020020C3
:10109000580200209C93000810B50A4800F064F93B
:1010A000FFF7A8FF044648B1FFF7C4FF642002F031
:1010B0009FFA054800F058F9204610BD034800F09B
:1010C00053F9F9E7C8930008F4930008289400083E
:1010D00030B587B0044600238DF817304FF0FF334A
:1010E0000293012301930DF1170200920246302171
:1010F000094803F089F818B99DF8170007B030BD0A
:101100000346064D22460649284604F08FF9284634
:1011100000F02AF9F0E700BFDC02002018020020EE
:101120006094000870B596B006460D4614464FF41C
:101130007A7302930623019314AB00930123A82230
:101140003021234803F060F8B8BB9DF851209DF88A
:10115000503043EA022343F30B131BB207EE103A5D
:101160009DF853209DF8523043EA022343F30B13BA
:101170001BB207EE903A9DF855209DF8543043EA93
:10118000022343F30B131BB2B8EEC77ADFED116AEB
:1011900087EE266A86ED006AF8EEE77A87EEA67A91
:1011A00085ED007A07EE903AF8EEE77A87EEA67AB8
:1011B00084ED007A012016B070BD024604AC0649E9
:1011C000204604F033F9204600F0CEF80020F2E784
:1011D000DC02002000007A448C94000810B594B022
:1011E00008AC30220021204605F080F8002303934C
:1011F000049305930693079301931F4A116C41F0E2
:1012000080511164126C02F080520192019A029393
:101210001A4A116841F440411160126802F44042D8
:101220000292029A0221089101220B9210220C9242
:101230000E910F9310924FF4A873119304231293FD
:101240001393204601F05EFA78B90F23039302212D
:101250000491002305934FF480520692079303A84C
:1012600001F0BAFC20B914B010BDFFF765FDECE742
:10127000FFF762FDF7E700BF003802400070004052
:1012800000B583B0002301930F4A116C41F00101B6
:101290001164126C02F001020192019A0B484FF0A6
:1012A0008042026042F2CF024260836042F20F72DB
:1012B000C2600361836100F055FD10B903B05DF8B1
:1012C00004FBFFF739FDF9E7003802403003002046
:1012D00008B5024800F045FC08BD00BF30030020FF
:1012E000704738B505460C4602F07CF92368C31AEE
:1012F000AB4201D2002038BD20600120FBE7000096
:1013000008B50A480A4B03604FF4165343600023A4
:101310008360C36003610C2242618361C36100F09A
:1013200088FE00B908BDFFF707FDFBE72004002099
:101330000010014008B50A480A4B03604FF4E1333E
:10134000436000238360C36003610C2242618361B8
:10135000C36100F06EFE00B908BDFFF7EDFCFBE7CE
:10136000D80300200044004068B110B50446FEF7E1
:1013700017FF82B202B910BD4FF0FF332146024879
:1013800000F087FEF7E77047D803002070470000A1
:1013900010B50B4C204600F08BFA04F1200204F14A
:1013A0001C0104F11800FFF7BDFE00B110BD054897
:1013B000FFF7DAFF0022A261E2612262F6E700BFD6
:1013C00068040020B494000810B5C4B0194991ED28
:1013D000067A9FED196A27EE067ABDEEC77AD1ED3F
:1013E000076A66EE866AFDEEE66AD1ED087A67EE78
:1013F000867AFDEEE77A17EE903A1BB2D1ED037ACA
:10140000FDEEE77A17EE902A12B2097D04AC029243
:101410000191009316EE903A1BB217EE102A12B209
:101420000649204604F002F82046FFF79DFF44B02D
:1014300010BD00BF6804002000007A44E894000852
:1014400008B50121084B19700848FFF7CDFC084981
:101450004FF47A70FFF745FF00B908BDFFF798FF1A
:10146000FFF7B2FFF9E700BF1C0500200C020020C7
:101470009004002008B5084B00221A7007494FF469
:101480007A70FFF72EFF00B908BD054B99881868E0
:1014900001F062FDF8E700BF1C0500208C0400206D
:1014A0000C02002008B502F09DF8064B186002F00F
:1014B00099F8054B186024220021044804F016FF17
:1014C00008BD00BF900400208C04002068040020A8
:1014D00008B500F095F9044B1B7813B1FFF7B0FF86
:1014E00008BDFFF7C7FFFBE7F401002070B5A0B00F
:1014F0001748FFF739FF0A2002F07AF80F20FFF7AC
:10150000E7FD0446332302461249684603F08EFF86
:101510006846FFF729FF2020FFF7DAFD064657232C
:1015200002460D49684603F081FF6846FFF71CFF3D
:10153000332C01D1572E05D00848FFF715FF0020A6
:1015400020B070BD0648FFF70FFF0120F8E700BF8D
:10155000209500084495000870950008CC95000877
:101560009C95000838B502F03DF81548FFF7FCFEE1
:101570000024312C1AD800F043F9002000F098F92B
:10158000054650B90F4B9988186801F0E5FC6420B6
:1015900002F02EF80134E4B2EBE70B48FFF7E4FE6B
:1015A00000210848FFF720FC284638BD0748FFF710
:1015B000DBFE00210348FFF717FC0025F4E700BF1E
:1015C000F49500080C0200203096000850960008A0
:1015D00038B310B50C46027812B99FED130A10BD4E
:1015E00003F021FF51EC100BFFF7A8FA07EE900A69
:1015F0009FED0E7A87EE870ABDEEC00AB8EEC00AEC
:1016000020EE077A77EEC77ADFED096A87EEA67AD1
:1016100030EE070A532C01D0572CE0D1B1EE400A2E
:10162000DDE79FED010A7047000000000000C8429E
:101630000000704230B5BFB00446544B1B786BB904
:101640000FAD7F222146284604F06AFE00248DF863
:10165000BB404F49284604F077FE11E04D48FFF7A4
:1016600083FE2046FFF780FEEAE7651C3EAB03EBF6
:10167000840444F83C0C4649002004F065FE2C46E6
:1016800008B10E2CF1DD022C0EDD404B1B78B3B9F6
:10169000319B1B78412B1CD03F4B00221A75002236
:1016A0009A60DA603FB030BD384B1B781BB93A4BBB
:1016B00000221A75F6E73948FFF756FEF7E702AD44
:1016C000319A3749284603F0B1FE2846FFF74CFE11
:1016D000DEE72E4B1B78002B32D12F4B01221A75DF
:1016E000309D2846FEF75CFD05282DD8042C09DD29
:1016F00032980378002B30D1062C09DD349803781A
:10170000002B32D1072C03DD36980378002B34D11F
:10171000214BD3ED027A9FED237A67EE877AC3EDF2
:10172000037A082CBEDD37980378002BBAD003F07B
:101730007AFE51EC100BFFF701FA174B1861B1E775
:101740001948FFF711FEC8E7184B5A1C00925A1EA1
:101750001749284603F08CFEC8E7339B1978FFF73A
:1017600037FF0D4B83ED000AC6E7359B1978FFF76D
:101770002FFF094B83ED010AC4E703F054FE51EC3F
:10178000100BFFF7DBF9044B9860C1E71C05002044
:101790009896000888960008200700209C9600086C
:1017A000D0960008560EED3FF09600083607002050
:1017B0002C97000808B5FFF7A3FD0C4B00221A6018
:1017C0005A609A60DA601A615A614FF400720849EF
:1017D000084800F083FF28B10748FFF7C5FDFFF771
:1017E000ABFA08BD0548FFF7BFFDFAE72007002068
:1017F00020050020200400203C970008689700087E
:1018000038B5244BDB6B1B685D68C5F5007516E0C9
:10181000214B01221A700021204B19708022204890
:1018200004F064FD15E023B100231B4A13701B4A2A
:1018300013701C4A13680133C3F308031360194B78
:101840001B68AB4225D0174B1B68174AD45C242C6D
:10185000DED0114B1B78002BE5D0104A12787E2A7F
:10186000E1D8531CDBB20D490B700D498C540A2C86
:10187000DFD108460022CA54074B1A700B4904F006
:10188000BFFD10B10648FFF7D5FE044B00221A70C9
:10189000CFE738BD200400201505002014050020E6
:1018A0009404002018050020200500208C970008D3
:1018B00070B110B48446084C0FCCACE80F0094E82B
:1018C00003008CE80300044B187D5DF8044B70475F
:1018D000014B187D704700BF2007002008B5FFF7B7
:1018E0008FFF08BDFEE7FEE7FEE7FEE7FEE7704775
:1018F0007047704708B501F069FE08BD08B5024899
:1019000001F0B6FC08BD00BF7803002008B54FF415
:10191000005001F02BFB08BD08B5024800F0D6FCD2
:1019200008BD00BF2004002008B5024800F0CEFC2E
:1019300008BD00BFD803002008B5024803F0B0FB83
:1019400008BD00BFDC02002008B5024803F078FCA7
:1019500008BD00BFDC02002000B583B0002100916B
:101960000C4B5A6C42F480425A645A6C02F4804226
:101970000092009A01911A6C42F080521A641B6C1A
:1019800003F080530193019B032001F0A5FD03B0F8
:101990005DF804FB0038024070B58AB0002305935F
:1019A00006930793089309930368484A934204D027
:1019B000474A93425DD00AB070BD044600250095A9
:1019C000444E736C43F010037364736C03F01003A4
:1019D0000093009B0195336B43F001033363336B3A
:1019E00003F001030193019B4FF4C06305930223AD
:1019F000069301230793032308930723099305A95B
:101A0000354801F0BFF90295336B43F4800333632B
:101A1000336B03F480030293029B3048304B036026
:101A20004FF0006343608560C5604FF480630361DD
:101A3000456185614FF48073C3610562456201F0C1
:101A40001FFB98B9254BE3639C63002203212520EB
:101A500001F054FD252001F061FD00220321442006
:101A600001F04CFD442001F059FDA4E7FFF764F9B3
:101A7000E8E700240394174B1A6C42F400321A640E
:101A80001A6C02F400320392039A04941A6B42F027
:101A900001021A631B6B03F001030493049B0C23E4
:101AA0000593022506950123079303230893072333
:101AB000099305A9084801F065F922462946262020
:101AC00001F01CFD262001F029FD74E70010014003
:101AD000004400400038024000000240780300202B
:101AE0008864024030B589B00023039304930593C2
:101AF000069307930268154B9A4201D009B030BD96
:101B000000250195124C236B43F002032363236BE2
:101B100003F002030193019B4FF4407303931223DC
:101B2000049301230593032306930423079303A936
:101B3000084801F027F90295236C43F4001323644D
:101B4000236C03F400130293029BD7E70054004078
:101B500000380240000402407047704770477047E9
:101B6000704770B504460368DE681D6915F0020F02
:101B700010D016F0020F0DD06FF002021A6101238F
:101B8000037703689B6913F0030F5ED0FFF7E6FF4E
:101B90000023237715F0040F12D016F0040F0FD096
:101BA00023686FF004021A610223237723689B697C
:101BB00013F4407F4FD02046FFF7D0FF0023237758
:101BC00015F0080F12D016F0080F0FD023686FF031
:101BD00008021A61042323772368DB6913F0030FDB
:101BE00040D02046FFF7BAFF0023237715F0100FEF
:101BF00012D016F0100F0FD023686FF010021A6188
:101C0000082323772368DB6913F4407F31D0204613
:101C1000FFF7A4FF0023237715F0010F02D016F081
:101C2000010F2DD115F0800F02D016F0800F2FD1AB
:101C300015F0400F02D016F0400F31D115F0200FF3
:101C400002D016F0200F33D170BDFFF786FF20467B
:101C5000FFF785FF9CE72046FFF77FFF2046FFF751
:101C60007EFFABE72046FFF778FF2046FFF777FFC0
:101C7000BAE72046FFF771FF2046FFF770FFC9E77C
:101C800023686FF001021A612046FFF729FBC9E7BC
:101C900023686FF080021A61204600F090F8C7E7D1
:101CA00023686FF040021A612046FFF759FFC5E72D
:101CB00023686FF020021A61204600F07FF8C3E726
:101CC0000368274A90420ED0B0F1804F0BD0A2F5A6
:101CD0007C42904207D002F58062904203D002F528
:101CE0008062904203D123F070034A6813431C4A78
:101CF00090421AD0B0F1804F17D0A2F57C429042AA
:101D000013D002F5806290420FD002F580629042BB
:101D10000BD002F59A32904207D002F580629042D1
:101D200003D002F58062904203D123F44073CA6865
:101D3000134323F080034A6913438A68C2620A6826
:101D40008262074A904207D0026842F004020260B1
:101D500001224261036070470A690263F4E700BF31
:101D60000000014040B310B5044690F83D30F3B197
:101D7000022384F83D30214651F8040BFFF7A0FF01
:101D8000012384F8463084F83E3084F83F3084F8EC
:101D9000403084F8413084F8423084F8433084F88D
:101DA000443084F8453084F83D30002010BD80F880
:101DB0003C30FFF7D1FEDBE70120704770477047EA
:101DC000026802F10C0353E8003F23F0C0030C3219
:101DD00042E800310029F3D1202380F841307047D8
:101DE000026802F10C0353E8003F23F490730C32B5
:101DF00042E800310029F3D1026802F1140353E8EC
:101E0000003F23F00103143242E800310029F3D1EE
:101E1000036B012B05D0202380F84230002303639D
:101E20007047026802F10C0353E8003F23F01003EF
:101E30000C3242E800310029F3D1ECE790F8413050
:101E4000DBB2212B01D0022070478368B3F5805F9D
:101E500017D0036A5A1C02621A7803685A60C38C4E
:101E60009BB2013B9BB2C3844BB90268D36823F099
:101E70008003D3600268D36843F04003D36000203E
:101E800070470369002BE4D1036A1B880268C3F31F
:101E900008035360036A02330362E0E710B50446A7
:101EA0000268136923F44053C1680B4313618368CC
:101EB00002691A4343691A43C3691A430168CB682C
:101EC00023F4164323F00C031343CB6002685369D9
:101ED00023F4407381690B4353610368314A934291
:101EE00006D002F58062934202D000F02BFF01E0A1
:101EF00000F038FFE369B3F5004F29D00021031843
:101F000049411B1841F10001C90041EA5371DB004E
:101F1000181863684FEA83024FEA937341F1000196
:101F2000FEF75CFE204AA2FB00314909642303FB53
:101F300011031B013233A2FB03235B0903F0F00200
:101F400002EB011203F00F03216813448B6010BDF4
:101F50000023021843EB0301121841F10001C900EC
:101F600041EA5271D200101841F1000162689218E2
:101F70005B41FEF733FE0C4AA2FB003149096423A2
:101F800003FB1103DB003233A2FB03235B095A007E
:101F900002F4F87202EB011203F007032168134404
:101FA0008B60D4E7001001401F85EB512DE9F04311
:101FB00083B005460E4617469946DDF828802B6803
:101FC0001C6836EA04040CBF01240024BC4228D15A
:101FD000B8F1FF3FF3D001F005FBA0EB090040454D
:101FE00023D8B8F1000F22D02B68DA6812F0040F62
:101FF000E5D0802EE3D0402EE1D01A6812F0080F11
:10200000DDD0002401941A6801925B680193019B62
:102010002846FFF7E5FE08236B6485F84040012061
:1020200000E0002003B0BDE8F0830320FAE70320BE
:10203000F8E760B310B5044690F8413013B3242399
:1020400084F841302268D36823F40053D3602046DB
:10205000FFF724FF2268136923F490431361226879
:10206000536923F02A0353612268D36843F4005371
:10207000D36000206064202384F8413084F842302B
:10208000606310BD80F84030FFF786FCD7E7012081
:1020900070472DE9F04182B01E4690F84130DBB226
:1020A000202B56D104460D469046002955D00AB93A
:1020B00001204FE000234364212380F8413001F0E8
:1020C00091FA0746A4F82480A4F82680A368B3F503
:1020D000805F02D04FF0000814E023692BB34FF06B
:1020E00000080FE0202384F84130032032E038F864
:1020F000023B2268C3F308035360E28C92B2013AB8
:1021000092B2E284E38C9BB293B100963B460022EC
:1021100080212046FFF74AFF0028E3D1002DE6D0BA
:1021200015F8012B23685A60E7E7A8460025E9E780
:1021300000963B46002240212046FFF737FF18B9A2
:10214000202384F8413005E0202384F84130032027
:1021500000E0022002B0BDE8F0810120FAE708B5F6
:102160000168CA6822F04002CA60202280F841203B
:10217000FFF70CF9002008BD7047704710B5846B5D
:1021800023685A6994F84130DBB2212B10D02368C0
:102190005A6902F0400294F84230DBB2222B11D08F
:1021A000636C43F0100363642046FFF7E6FF10BD45
:1021B00002F08002002AEAD00023E3842046FFF7E1
:1021C000FFFDE4E7002AEBD00023E3852046FFF77C
:1021D00007FEE5E708B5806B0023C385FFF7CDFF59
:1021E00008BD704790F84230DBB2222B69D183687A
:1021F000B3F5805F4FD0826AB3F5805F04D0002BC7
:1022000056D10369002B53D103685B681370836A4E
:1022100001338362C38D9BB2013B9BB2C385002B0C
:1022200051D100B583B00268D36823F02003D36096
:102230000268D36823F48073D3600268536923F083
:1022400001035361202380F8423000234363036B72
:10225000012B33D100230363026802F10C0353E81E
:10226000003F23F010030C3242E800310029F3D183
:1022700003681A6812F0100F06D0002201921A6843
:1022800001925B680193019B818DFFF7AAFF0020FB
:1022900003B05DF804FB0269002AACD1826A0368CE
:1022A0005B68C3F308031380836A02338362B1E778
:1022B00003685B6803F07F031370A8E7FFF70EFB6A
:1022C000E5E70220704700207047000010B582B09B
:1022D000044602681368D068516913F00F0F09D1E2
:1022E00013F0200F0CD010F0200F09D02046FFF77C
:1022F00079FF16E011F0010115D110F4907F12D191
:10230000216B012979D013F0800F03D010F0800FDA
:1023100040F0218113F0400F03D010F0400F40F047
:102320001E8102B010BD13F0010F06D010F4807FA3
:1023300003D0626C42F00102626413F0040F04D017
:1023400019B1626C42F00202626413F0020F04D011
:1023500019B1626C42F00402626413F0080F07D0F6
:1023600010F0200F00D119B1626C42F008026264D3
:10237000626C002AD5D013F0200F02D010F0200F8D
:1023800029D123685B6903F04003626C12F0080FE7
:1023900000D163B32046FFF723FD23685B6913F088
:1023A000400F20D0226802F1140353E8003F23F0CD
:1023B0004003143242E800310029F3D1E36B73B1DA
:1023C000694A1A65E06B00F040FF0028A9D0E06B75
:1023D000036D9847A5E72046FFF704FFD1E72046A5
:1023E000FFF7CBFE9DE72046FFF7C7FE99E72046A3
:1023F000FFF7C3FE0023636493E713F0100F82D04E
:1024000010F0100F3FF47FAF002301931368019386
:1024100053680193019B536913F0400F5FD0E26B47
:1024200013685B689BB2002B4AD0A18D994247D9B3
:10243000E385D369B3F5807F37D0226802F10C03BE
:1024400053E8003F23F480730C3242E80031002946
:10245000F3D1226802F1140353E8003F23F0010393
:10246000143242E800310029F3D1226802F114034A
:1024700053E8003F23F04003143242E800310029C2
:10248000F3D1202384F8423000232363226802F131
:102490000C0353E8003F23F010030C3242E80031F4
:1024A0000029F3D1E06B00F086FE02236363A18D67
:1024B000E38D9BB2C91A89B22046FFF792FE30E73E
:1024C000A18D99427FF42DAFD369B3F5807F7FF45E
:1024D00028AF022363632046FFF783FE21E7A18D27
:1024E000E38D9BB2C91A89B2E38D9BB2002B3FF4F6
:1024F00018AF00293FF415AF226802F10C0353E82E
:10250000003F23F490730C3242E800300028F3D1EE
:10251000226802F1140353E8003F23F00103143250
:1025200042E800300028F3D1202384F84230002311
:102530002363226802F10C0353E8003F23F01003E9
:102540000C3242E800300028F3D1022363632046B6
:10255000FFF747FEE5E62046FFF770FCE1E6204680
:10256000FFF7FDFDDDE600BFD521000808B5806B53
:1025700001234363036B012B02D0FFF7FDFD08BD70
:10258000818D4908FFF72DFEF9E708B50346806BFA
:102590001B681B6813F4807F2BD10023C38502685E
:1025A00002F10C0353E8003F23F480730C3242E83D
:1025B00000310029F3D1026802F1140353E8003F0F
:1025C00023F00103143242E800310029F3D10268FC
:1025D00002F1140353E8003F23F04003143242E8B1
:1025E00000310029F3D1202380F84230036B012B06
:1025F00007D000234363036B012B0FD0FFF76EF965
:1026000008BD026802F10C0353E8003F23F01003F9
:102610000C3242E800310029F3D1EAE7818DFFF75F
:10262000E0FDEDE730B583B0044613468162828554
:1026300000224264222084F84200E06B244DC563EE
:10264000E06B244D0564E06B234DC564E06B0265CF
:1026500020680A46011DE06B00F078FD00282FD1AC
:102660000023019323681A6801925B680193019B20
:1026700023695BB1226802F10C0353E8003F43F485
:1026800080730C3242E800310029F3D1226802F154
:10269000140353E8003F43F00103143242E80031D1
:1026A0000029F3D1226802F1140353E8003F43F0FC
:1026B0004003143242E800310029F3D103B030BDA9
:1026C00010236364202384F842300120F6E700BF22
:1026D0008B2500086D2500087D21000808B590F8BD
:1026E0004230DBB2202B08D149B10AB9012008BD24
:1026F00000230363FFF796FFF9E70220F7E70120C5
:10270000F5E70000002800F0E08170B582B00446D3
:10271000036813F0010F3BD09F4B9B6803F00C0341
:10272000042B2CD09C4B9B6803F00C03082B21D06E
:102730006368B3F5803F4FD0B3F5A02F52D0964BCE
:102740001A6822F480321A601A6822F480221A6011
:102750006368002B50D000F045FF05468E4B1B6888
:1027600013F4003F14D100F03DFF401B6428F5D95D
:102770000320B1E1884B5B6813F4800FD8D0864BFF
:102780001B6813F4003F03D06368002B00F09F81A7
:10279000236813F0020F54D07F4B9B6813F00C0F8B
:1027A0003ED07D4B9B6803F00C03082B33D0E368CD
:1027B000002B68D0794B01221A6000F013FF054608
:1027C000754B1B6813F0020F54D100F00BFF401B38
:1027D0000228F5D903207FE16F4A136843F4803360
:1027E0001360B5E76C4B1A6842F480221A601A68CD
:1027F00042F480321A60ABE700F0F4FE0546664B07
:102800001B6813F4003FC3D000F0ECFE401B6428AB
:10281000F5D9032060E1604B5B6813F4800FC6D1EB
:102820005D4B1B6813F0020F03D0E368012B40F0EF
:102830005081594A136823F0F803216943EAC10320
:102840001360236813F0080F42D063696BB3534BD6
:102850000122C3F8802E00F0C5FE05464E4B5B6F8B
:1028600013F0020F34D100F0BDFE401B0228F5D951
:10287000032031E1484A136823F0F803216943EA51
:10288000C1031360DDE7454B00221A6000F0AAFE89
:102890000546414B1B6813F0020FD2D000F0A2FE98
:1028A000401B0228F5D9032016E13C4B0022C3F857
:1028B000802E00F097FE0546374B5B6F13F0020F3A
:1028C00006D000F08FFE401B0228F5D9032003E15B
:1028D000236813F0040F77D02F4B1B6C13F0805F2D
:1028E00033D1002301932C4B1A6C42F080521A64AE
:1028F0001B6C03F080530193019B0125284B1B683F
:1029000013F4807F23D0A368012B34D0052B38D05B
:10291000214B1A6F22F001021A671A6F22F004028B
:102920001A67A368002B3DD000F05CFE06461A4BE8
:102930001B6F13F0020F46D100F054FE801B41F2D2
:1029400088339842F3D90320C6E00025D6E7144A1D
:10295000136843F48073136000F044FE0646104B86
:102960001B6813F4807FCED100F03CFE801B022850
:10297000F5D90320B0E0084A136F43F00103136751
:10298000CFE7054B1A6F42F004021A671A6F42F044
:1029900001021A67C5E700BF003802400000474245
:1029A0000070004000F01EFE0646524B1B6F13F0F5
:1029B000020F08D000F016FE801B41F288339842C7
:1029C000F3D9032088E0EDB9A369002B00F08380E0
:1029D000484A926802F00C02082A51D0022B17D004
:1029E000454B00221A6600F0FDFD0446414B1B6872
:1029F00013F0007F42D000F0F5FD001B0228F5D94E
:102A0000032069E03B4A136C23F080531364DBE737
:102A1000394B00221A6600F0E5FD0546354B1B6870
:102A200013F0007F06D000F0DDFD401B0228F5D931
:102A3000032051E0E369226A1343626A43EA821386
:102A4000A26A5208013A43EA0243E26A43EA026395
:102A5000284A5360284B01221A6600F0C3FD044641
:102A6000244B1B6813F0007F06D100F0BBFD001B58
:102A70000228F5D903202FE000202DE000202BE0D4
:102A8000012B2BD01B4B5B6803F48001E269914260
:102A900026D103F03F02216A8A4223D1616A47F6B8
:102AA000C0721A40B2EB811F1ED103F44031A26AFA
:102AB0005208013AB1EB024F18D103F07063E26A99
:102AC000B3EB026F14D1002006E001207047012013
:102AD00002E0012000E0002002B070BD0120FBE711
:102AE0000120F9E70120F7E70120F5E70120F3E7EE
:102AF0000120F1E7003802400000474208B5334B9F
:102B00009B6803F00C03042B5BD0082B5BD12F4B8D
:102B10005A6802F03F025B6813F4800F2CD02B4BF5
:102B20005868C0F388104FEA401CBCEB000C6EEBF9
:102B30000E0E4FEA8E1343EA9C634FEA8C11B1EB01
:102B40000C0163EB0E03DB0043EA5173C90011EB88
:102B5000000C43F10003590200234FEA4C2041EAE4
:102B6000DC51FEF73BF8194B5B68C3F301430133BB
:102B70005B00B0FBF3F008BD144B5868C0F388103D
:102B80004FEA401CBCEB000C6EEB0E0E4FEA8E13AE
:102B900043EA9C634FEA8C11B1EB0C0163EB0E032B
:102BA000DB0043EA5173C90011EB000C43F1000351
:102BB000990200234FEA8C2041EA9C51FEF70EF85F
:102BC000D1E70348D7E70348D5E700BF0038024004
:102BD00000127A000024F400002800F09B8070B5F9
:102BE0000D4604464F4B1B6803F007038B4208D287
:102BF000CBB24C4A1370136803F007038B4240F0CA
:102C00008B80236813F0020F17D013F0040F04D049
:102C1000454A936843F4E0539360236813F0080F28
:102C200004D0414A936843F4604393603E4A9368FA
:102C300023F0F003A1680B439360236813F0010FA6
:102C400032D06368012B21D09A1E012A25D9364A39
:102C5000126812F0020F61D033498A6822F0030231
:102C600013438B6000F0BEFC06462F4B9B6803F0BD
:102C70000C036268B3EB820F16D000F0B3FC801B2C
:102C800041F288339842F0D9032042E0264A126884
:102C900012F4003FE0D101203BE0234A126812F019
:102CA000007FD9D1012034E01E4B1B6803F00703DD
:102CB000AB4207D9EAB21B4B1A701B6803F007033B
:102CC000AB422DD1236813F0040F06D0164A936847
:102CD00023F4E053E1680B439360236813F0080F7B
:102CE00007D0114A936823F46043216943EAC10382
:102CF0009360FFF703FF0C4B9B68C3F303130B4A6E
:102D0000D35CD8400A4B18600A4B186800F01EFCD0
:102D1000002070BD012070470120FAE70120F8E78C
:102D20000120F6E7003C024000380240A09700086E
:102D30000800002004000020014B1868704700BF05
:102D40000800002008B5FFF7F7FF044B9B68C3F3AA
:102D50008223034AD35CD84008BD00BF003802403C
:102D60009897000808B5FFF7E7FF044B9B68C3F38B
:102D70004233034AD35CD84008BD00BF003802404C
:102D80009897000800230F2B00F2D78070B582B00F
:102D900065E085684FEA430E032404FA0EF425EA41
:102DA0000405CC6804FA0EF42C438460446824EAD9
:102DB00002044A68C2F300129A40224342605CE077
:102DC000DC08083450F8242003F00705AD004FF06C
:102DD0000F0E0EFA05FE22EA0E0E0A69AA4042EA1A
:102DE0000E0240F824205CE0042200E0002202FAF7
:102DF0000EF22A430234514D45F82420504A94687B
:102E00006FEA0C0224EA0C054E6816F4801F01D00C
:102E10004CEA04054A4CA560E46802EA04054E68E1
:102E200016F4001F01D04CEA0405454CE5606468C7
:102E300002EA04054E6816F4003F01D04CEA04058E
:102E40003F4C6560246822404D6815F4803F01D0F6
:102E50004CEA04023A4C226001330F2B6BD801225A
:102E60009A400C6804EA020C32EA0404F4D14C687B
:102E700004F00304013C012C8BD94A6802F00302E0
:102E8000032A09D0C4685D000322AA4024EA020490
:102E90008A68AA402243C2604A6802F00302022AFA
:102EA0008ED004684FEA430E032202FA0EF224EA9F
:102EB00002044A6802F0030202FA0EF222430260A0
:102EC0004A6812F4403FC7D0002201921D4A546C58
:102ED00044F480445464526C02F480420192019A9A
:102EE0009C08A51C154A52F8255003F0030E4FEA22
:102EF0008E0E0F2202FA0EF225EA0205124A9042C5
:102F00003FF474AF02F5806290420ED002F5806209
:102F100090420CD002F5806290420AD002F58062A5
:102F200090423FF461AF072261E701225FE702228E
:102F30005DE703225BE702B070BD704700380140D7
:102F4000003C014000380240000002400AB18161AB
:102F50007047090481617047436901EA030221EA6D
:102F6000030141EA024181617047000008B5054B49
:102F70005B69034200D108BD024B5861FDF7CAFFEF
:102F8000F9E700BF003C014030B405682C6824F428
:102F900080242C60046863608368402B05D003683C
:102FA00099600368DA6030BC704703689A60036810
:102FB000D960F8E710B40368D9B210390A4AA2FB05
:102FC00001421209094CA25CC2655F2907D96FF35F
:102FD000090304338365806D5DF8044B70476FF31C
:102FE00009038365F7E700BFABAAAAAA9097000878
:102FF000836A826992B9012B0AD0022B02D00BB1ED
:1030000000207047C36A13F0807F28D100207047EA
:10301000C36AB3F1C07F24D000207047B2F5005FCF
:1030200009D0022B25D9032B25D1C36A13F0807F49
:1030300023D100207047032B03D8DFE803F01404EA
:10304000140A00207047C36A13F0807F0DD100205E
:103050007047C36AB3F1C07F09D0002070470120D8
:103060007047012070470120704701207047012000
:103070007047012070470020704701207047000012
:1030800070B5044600F0AEFA002C5BD00546022372
:1030900084F83530002384F834302268136823F034
:1030A0000103136023681A6812F0010F0AD000F0C0
:1030B00099FA431B052BF5D920236365032084F877
:1030C000350070BD1A68204911406268A06802434B
:1030D000E06802432069024360690243A069024339
:1030E000E0690243206A02430A43616A04291ED050
:1030F0001A602668756925F00705636A1D43042B6D
:1031000007D1A36A1D43E36A1BB12046FFF770FF96
:1031100090B975612046FFF74DFFE26D3F23934064
:10312000836000206065012384F83530C9E7E16AD7
:10313000206B01430A43DBE740236365012084F8E9
:103140003500BEE70120BCE73F8010F038B50446EB
:10315000856D90F8340001282BD0012084F83400CC
:1031600094F83500C0B2012804D0002384F834302C
:10317000022038BD022084F835000020606520461A
:10318000FFF702FFE26D3F239340AB6022681368B4
:1031900043F016031360236C23B12268136843F0D5
:1031A000080313602268136843F0010313600020D2
:1031B000DFE70220DDE770B50446866D00F012FA05
:1031C00094F83530DBB2022B06D0802363650023F0
:1031D00084F83430012070BD05462268136823F05E
:1031E000160313602268536923F080035361236C34
:1031F000E3B12268136823F00803136022681368A0
:1032000023F00103136023681B6813F0010F11D032
:1032100000F0E8F9431B052BF5D920236365032053
:1032200084F83500002384F83430D4E7A36C002BF5
:10323000DFD1E3E7E26D3F239340B360012384F8DD
:103240003530002084F83400C5E790F83530DBB223
:10325000022B03D08023436501207047052380F8AB
:1032600035300268136823F00103136000207047B3
:10327000F0B583B0044600230193724B1D68724B76
:10328000A3FB0535AD0A876D3E68C26D08239340E8
:10329000334210D003681A6812F0040F0BD01A687A
:1032A00022F004021A60C26D08239340BB60436D94
:1032B00043F001034365E26D01239340334209D09B
:1032C0002268526912F0800F04D0BB60636D43F036
:1032D00002036365E26D04239340334209D0226800
:1032E000126812F0020F04D0BB60636D43F0040358
:1032F0006365E26D10239340334224D02268126844
:1033000012F0080F1FD0BB6023681A6812F4802FD8
:103310000DD01B6813F4002F04D1236C9BB1204601
:10332000984710E0A36C73B1204698470BE01A68E9
:1033300012F4807F03D11A6822F008021A60236C0D
:103340000BB120469847E26D20239340334255D07D
:103350002268126812F0100F50D0BB6094F835301C
:10336000DBB2052B0ED023681A6812F4802F33D0FD
:103370001B6813F4002F2AD1636C002B3ED020462B
:1033800098473BE02268136823F016031360226815
:10339000536923F080035361236CA3B1226813683F
:1033A00023F008031360E26D3F239340BB600123C9
:1033B00084F83530002384F83430236D002B3FD05F
:1033C000204698473CE0A36C002BE7D1EBE7E36B8A
:1033D000A3B12046984711E01A6812F4807F09D102
:1033E0001A6822F010021A60012384F83530002395
:1033F00084F83430E36B0BB120469847636DFBB122
:10340000636D13F0010F17D0052384F8353022685F
:10341000136823F001031360019B01330193AB4256
:1034200004D823681B6813F0010FF5D1012384F839
:103430003530002384F83430E36C0BB120469847D4
:1034400003B0F0BD08000020B5814E1B90F8350098
:1034500070470000002807DB00F01F02400901232D
:103460009340024A42F82030704700BF00E100E07C
:10347000002808DB0901C9B200F1604000F5614095
:1034800080F80013704700F00F000901C9B2014B2A
:103490001954704714ED00E000B500F00700C0F1CA
:1034A000070CBCF1040F28BF4FF0040C031D062BC2
:1034B0000FD9C31E4FF0FF3E0EFA0CF021EA0001B7
:1034C00099400EFA03FE22EA0E0241EA02005DF87C
:1034D00004FB0023EEE70000074AD36823F4E0630F
:1034E0001B041B0C000200F4E060034343F0BF63C5
:1034F00043F40033D360704700ED00E010B504469C
:10350000054BD868C0F30220FFF7C6FF01462046EE
:10351000FFF7AEFF10BD00BF00ED00E008B5FFF7FC
:1035200099FF08BD0138B0F1807F0BD24FF0E02346
:103530005861054AF02182F8231000209861072283
:103540001A6170470120704700ED00E010B5044695
:103550000E4B1A784FF47A73B3FBF2F30C4A1068EF
:10356000B0FBF3F0FFF7DEFF68B90F2C01D90120A3
:103570000AE0002221464FF0FF30FFF7BFFF054B66
:103580001C60002000E0012010BD00BF00000020F2
:10359000080000200400002008B50B4B1A6842F414
:1035A00000721A601A6842F480621A601A6842F463
:1035B00080721A600320FFF78FFF0020FFF7C6FF1D
:1035C000FEF7CAF9002008BD003C0240034A11681A
:1035D000034B1B780B441360704700BF3807002073
:1035E00000000020014B1868704700BF380700201A
:1035F00038B50446FFF7F6FF0546B4F1FF3F02D0A9
:10360000044B1B781C44FFF7EDFF401BA042FAD38C
:1036100038BD00BF0000002003685A6912F0800F17
:1036200001D000221A61704790F83E30DBB2402B87
:1036300010D00369B3F5804F1BD0036D002B39D137
:10364000436CC3F3C813026803F0060343F0F003AE
:1036500013617047036D2BB9436C026803F0FE03DE
:1036600013617047436C026843F00103DBB21361DE
:10367000704790F83D30DBB2212B0FD0436C0268CD
:1036800043F00103DBB21361436B6BB1DB6B5BB1E6
:103690000268536843F4006353607047436C0268E8
:1036A00003F0FE031361EFE7836B33B1DB6B002B99
:1036B000EED102E0036D012B00D07047436CC3F3E1
:1036C000C813026803F0060343F0F1031361F4E743
:1036D000436C0268DBB21361436B3BB1DB6B2BB114
:1036E0000268536843F4006353607047836B002B98
:1036F000FBD0DB6B002BF3D1F7E7000010B48BB0ED
:1037000090F83E30DAB2C16A046B90F83D30DBB21B
:10371000222B0BD00023099303685A6909929B69F5
:103720000993099B0BB05DF8044B7047036D0BB90F
:10373000402A17D0036D1BB90369B3F5404F19D068
:10374000438D9BB2002B25D1029303685A690292E4
:103750009A690292029A1A6842F400721A6000236F
:103760000365DFE7009303685A6900929B69009341
:10377000009BD7E70023019303685A6901929A6975
:103780000192019A1A6842F480721A60036D013343
:103790000365C7E7438D9BB2012B26D0438D9BB2B7
:1037A000022B7CD00268136843F4806313600368C3
:1037B0005A6812F4006F0FD0202900F2AE80082959
:1037C000C0F0A7800839574ACA4012F0010F03D051
:1037D0005A6842F480525A600023089303685A6979
:1037E00008929B690893089BB9E711F5803F11D0B7
:1037F000082934D0202932D0122C2ED0042940D0D0
:1038000002293ED010293CD00268136823F480635B
:1038100013603BE00268136823F48063136003685D
:103820005A6812F4006F0CD01A6822F480621A6091
:103830000023039303685A6903929B690393039BD4
:103840008DE7002204925A6904929A690492049ABC
:103850001A6842F400721A6081E70129D0D0026828
:10386000136823F4806313600023069303685A6986
:1038700006929A690692069A1A6842F400721A60D1
:103880006DE70268136843F48063136000230593B7
:1038900003685A6905929B690593059B5FE71029A8
:1038A0000AD8214BCB4013F0010F05D002681368F2
:1038B00043F48063136009E00268136823F48063B3
:1038C00013600268136843F40063136003685A6866
:1038D00012F4006F0DD0202917D8082912D3083907
:1038E000104ACA4012F0010F03D05A6842F48052C5
:1038F0005A600023079303685A6907929B690793EC
:10390000079B2CE70129F4D1EFE711F5803FF0D1B7
:10391000EBE701297FF460AF5AE711F5803F7FF4B0
:103920005BAF55E70101000114000100438D9BB21C
:103930005BB1426A036812781A61436A01334362D9
:10394000438D9BB2013B9BB243857047438D9BB235
:103950005BB103681A69436A1A70436A01334362B0
:10396000438D9BB2013B9BB24385704782B00023DD
:1039700001930E4B1B68DB080D4AA2FB03231B0AB5
:1039800003EB83030193019B013B0193019B33B143
:1039900003681B6813F4007FF5D1002004E0036C7A
:1039A00043F020030364012002B0704708000020A8
:1039B00089B5F81403685A6912F4806F01D10020A8
:1039C00070476FF480625A6100230363202280F8FD
:1039D0003D2080F83E30026C42F00402026480F820
:1039E0003C3001207047C36AB3F52A0F04D0C36A84
:1039F000B3F12A4F03D070470123C36270470823F5
:103A0000C362F8E72DE9F04106460C461746984692
:103A10003BE0FFF7E7FD069BC01A404502D8B8F12E
:103A2000000F32D1012D18D033689B6924EA0303BB
:103A30009BB2B3FA83F35B099F4226D10023336321
:103A4000202286F83D2086F83E30326C42F020027B
:103A5000326486F83C30012027E033685B6924EA51
:103A600003039BB2B3FA83F35B09E5E733685B6951
:103A700024EA030C1FFA8CFCBCFA8CFC4FEA5C1C99
:103A8000674511D1B8F1FF3FC3D1C4F30745012DFC
:103A9000ECD033689B6924EA030C1FFA8CFCBCFA57
:103AA0008CFC4FEA5C1CEBE70020BDE8F0812DE9BF
:103AB000F84305460E469046994653E01A6842F48C
:103AC00000721A602B686FF480625A6100232B63C6
:103AD000202285F83D2085F83E302A6C42F0040211
:103AE0002A6485F83C3001204AE0FFF77BFDA0EB1B
:103AF0000900404502D8B8F1000F33D1012F17D08B
:103B00002B689B6926EA03039BB2003B18BF012385
:103B100043B300232B63202285F83D2085F83E30F7
:103B20002A6C42F020022A6485F83C30012027E00C
:103B30002B685B6926EA03039BB2003B18BF012395
:103B4000E6E72B689C6926EA0404A4B2003C18BF8F
:103B50000124A4B12B685A6912F4806FAED1B8F178
:103B6000FF3FC2D1C6F30747012FEAD12B685C693A
:103B700026EA0404A4B2003C18BF0124E9E70020AF
:103B8000BDE8F88370B504460D46164623685B69A8
:103B900013F0800F21D12046FFF70CFFF8B9B5F1E3
:103BA000FF3FF3D0FFF71EFD801BA84201D8002D78
:103BB000ECD123685B6913F0800FE7D10023236306
:103BC000202284F83D2084F83E30226C42F020020E
:103BD000226484F83C30012000E0002070BD012008
:103BE000FCE700002DE9F04385B004460D46914600
:103BF0001F46DDF830800D9E0368196841F480711E
:103C000019600096434600224FF00111FFF7FAFEBB
:103C100060B9236805F0FE051D613346424626491A
:103C20002046FFF744FF68B1012008E023681B68C5
:103C300013F4807F02D04FF400732364032005B097
:103C4000BDE8F0830023039323685A6903929B69BC
:103C50000393039B324641462046FFF793FF30B95A
:103C6000012F0FD123685FFA89F61E61E7E7236C05
:103C7000042B01D00120E2E72268136843F40073AB
:103C80001360F7E723684FEA19221A61324641466A
:103C90002046FFF777FF20B923685FFA89F61E6197
:103CA000CDE7236C042B01D00120C8E722681368FC
:103CB00043F400731360F7E7020001002DE9F047B9
:103CC00084B004460D46164699460C9FDDF83480B4
:103CD0000268136843F4806313600368196841F451
:103CE00080711960CDF800803B4600224FF0011131
:103CF000FFF788FE70B95FFA85FA236805F0FE05C4
:103D00001D6143463A4641492046FFF7D0FE68B15F
:103D1000012008E023681B6813F4807F02D04FF471
:103D200000732364032004B0BDE8F08700230393ED
:103D300023685A6903929B690393039B4246394661
:103D40002046FFF71FFF80B9B9F1010F18D1236892
:103D5000F6B21E61424639462046FFF713FF68B3AC
:103D6000236C042B24D00120DDE7236C042B01D02D
:103D70000120D8E72268136843F400731360F7E763
:103D80002368320A1A61424639462046FFF7FAFE96
:103D900018B92368F6B21E61DCE7236C042B01D04E
:103DA0000120C0E72268136843F400731360F7E74B
:103DB0002268136843F400731360D4E72268136821
:103DC00043F480731360CDF800803B4600224FF02F
:103DD00001112046FFF716FE68B922684AF0010378
:103DE000136143463A4609492046FFF760FE002822
:103DF00099D0012097E723681B6813F4807F02D0D5
:103E00004FF40073236403208DE700BF020001001C
:103E100070B504460D46164623685B6913F0040F1F
:103E200021D12046FFF7C6FDF8B9B5F1FF3FF3D029
:103E3000FFF7D8FB801BA84201D8002DECD12368E6
:103E40005B6913F0040FE7D100232363202284F879
:103E50003D2084F83E30226C42F02002226484F837
:103E60003C30012000E0002070BD0120FCE770B56F
:103E700004460D46164614E06FF010025A61002306
:103E80002363202284F83D2084F83E30226C226493
:103E900084F83C30012025E023685B6913F0400F73
:103EA00010D02368586910F0400F1AD1586910F0EB
:103EB000100FE1D1FFF796FB801BA842ECD8002D34
:103EC000EFD1E9E700232363202284F83D2084F822
:103ED0003E30226C42F02002226484F83C30012003
:103EE00000E0002070BD0000002800F0CC8070B51C
:103EF000044690F83D30002B77D0242384F83D30E1
:103F00002268136823F0010313602268136843F4E6
:103F1000004313602268136823F400431360FEF724
:103F200011FF62685A4B9A4264D85A4B98428CBF30
:103F300000230123002B40F0A8805749A1FB00314A
:103F40008B0C25686A6822F03F0242EA91426A605F
:103F500021680A6A22F03F0266684D4DAE424FD892
:103F6000013313430B622168CA6922F44F4222F0E5
:103F7000FF026568464B9D424CD8431E6D00B3FB63
:103F8000F5F3013340F6FC70034278D0C3F30B0322
:103F90001A43CA6121680B6823F0C003E269206AF2
:103FA000024313430B6021688B6823F4034323F01F
:103FB000FF032269E068024313438B602168CB68EA
:103FC00023F0FF036269A06902431343CB602268B8
:103FD000136843F00103136000202064202384F859
:103FE0003D30206384F83E0070BD80F83C30FDF722
:103FF00079FD82E7294B98428CBF0023012399E782
:104000004FF4967505FB03F3254DA5FB03539B0960
:104010000133A6E7A668BEB9431E05EB450CB3FB0A
:10402000FCF30133C3F30B03B3FA83F35B0943BB24
:10403000C6B9431E05EB4505B3FBF5F30133C3F3E6
:104040000B0343F40043A3E7431E05EB850C0CEB85
:104050008C0CB3FBFCF30133C3F30B03B3FA83F310
:104060005B09E4E7431E05EB850505EB8505B3FB1E
:10407000F5F30133C3F30B0343F4404388E7042310
:1040800086E7012384E7012070470120ACE700BFE9
:10409000A08601007F841E0083DE1B43FF083D00D5
:1040A000D34D62102DE9F04383B004460F4690468D
:1040B00099460C9EFFF796FA054694F83D00C0B26B
:1040C000202803D0022003B0BDE8F0830095192317
:1040D00001224B492046FFF795FC002840F08980DB
:1040E00094F83C30012B00F08680012384F83C30AA
:1040F00023681A6812F0010F03D11A6842F0010216
:104100001A602268136823F400631360212384F883
:104110003D30402384F83E30002323640A9B6362D1
:10412000BDF82C306385638D2385364BE3620195A2
:1041300000964B46424639462046FFF753FD00287D
:104140005BD1238D002B35D02A4631462046FFF720
:1041500019FD20BB626A236812781A61626A531CD7
:104160006362218D013989B22185638D9BB2013B48
:104170009BB263852368586910F0040FE1D00029D1
:10418000DFD052781A61636A01336362238D013B89
:104190002385638D9BB2013B9BB26385D1E7236C82
:1041A000042B01D001208EE72268136843F40073CA
:1041B0001360F7E72A4631462046FFF729FE50B143
:1041C000236C042B01D001207DE72268136843F49F
:1041D00000731360F7E72268136843F400731360F9
:1041E000202384F83D30002384F83E3084F83C30AE
:1041F00069E7022067E7022065E7012063E700BF67
:10420000020010000000FFFF2DE9F04387B00446D4
:104210000F4690469946109EFFF7E4F9054694F83C
:104220003D00C0B2202804D00227384607B0BDE8C0
:10423000F08300951923012288492046FFF7E2FB0D
:10424000002840F04D8194F83C30012B00F04A8169
:10425000012384F83C3023681A6812F0010F03D15F
:104260001A6842F001021A602268136823F400639E
:104270001360222384F83D30402384F83E3000232D
:1042800023640E9B6362BDF83C306385638D238598
:10429000734BE362019500964B46424639462046F1
:1042A000FFF70CFD0746002840F01E81238D5BB907
:1042B000029323685A6902929A690292029A1A68D2
:1042C00042F400721A6075E0012B0AD0022B1AD05A
:1042D0000023059323685A6905929B690593059B02
:1042E00068E02268136823F480631360002303935B
:1042F00023685A6903929A690392039A1A6842F4EE
:1043000000721A6056E02268136823F48063136019
:104310002268136843F40063136000230493236846
:104320005A6904929B690493049B43E02A463146F0
:104330002046FFF79CFD002840F0D88023681A69CA
:10434000636A1A70636A01336362238D013B2385BC
:10435000638D9BB2013B9BB263852BE00095334696
:10436000002240492046FFF74DFB002840F0C08066
:104370002268136843F40073136023681A69636A40
:104380001A70626A531C6362238D013B2385638D1F
:104390009BB2013B9BB2638523681B695370636AC0
:1043A00001336362238D013B2385638D9BB2013B07
:1043B0009BB26385238D002B00F08980032B53D89B
:1043C000012BB3D0022BC9D00095334600222549DA
:1043D0002046FFF717FB002840F08C802268136806
:1043E00023F48063136023681A69636A1A70636A2E
:1043F00001336362238D013B2385638D9BB2013BB7
:104400009BB2638500953346002216492046FFF78C
:10441000F9FA002870D12268136843F4007313601E
:1044200023681A69636A1A70626A531C6362238D77
:10443000013B2385638D9BB2013B9BB2638523685F
:104440001B695370636A01336362238D013B2385CB
:10445000638D9BB2013B9BB26385ABE7020010000A
:104460000000FFFF040001002A4631462046FFF706
:10447000FEFC002842D123681A69636A1A70636AD5
:1044800001336362228D013A92B22285638D9BB221
:10449000013B9BB263852368596911F0040F89D0F1
:1044A000032A0FD023681A69636A1A70636A01339A
:1044B0006362238D013B2385638D9BB2013B9BB2DD
:1044C000638577E71A6822F480621A60EAE720239E
:1044D00084F83D30002384F83E3084F83C30A4E674
:1044E0000227A2E60227A0E601279EE601279CE616
:1044F00001279AE6012798E6012796E6012794E628
:104500002DE9F04385B00446884691461D46FFF7E5
:1045100069F894F83D30DBB2202B03D0022005B0BF
:10452000BDE8F08306460090192301225749204632
:10453000FFF768FA002840F0A08094F83C30012B87
:1045400000F09D80012384F83C3023681A6812F043
:10455000010F03D11A6842F001021A602268136841
:1045600023F400631360242384F83D30002727647C
:10457000474BE36240E023681B6813F4807F02D05E
:104580004FF4007323640320C9E7A02384F83D306F
:1045900022685369C3F340035269C2F3802294F83E
:1045A0003DC05FFA8CFCBCF1A00F09D043B93AB909
:1045B000FFF718F8801BA842E7D8002DE8D1E4E700
:1045C000202384F83D3023685A6912F0020F31D15C
:1045D0001A6842F400721A6023686FF480625A61AC
:1045E00000961923012229492046FFF70BFA0028DB
:1045F00049D101374F4538D22268136843F480739C
:10460000136000962B4600224FF001112046FFF761
:10461000F9F90028AFD1236808F0FE021A61FEF70D
:10462000E1FF064622685369C3F340035269C2F3AF
:104630008022B4E71A6842F400721A6000230393E0
:1046400023685A6903929B690393039B009619237D
:1046500001220E492046FFF7D5F990B9202384F8AE
:104660003D30002384F83C3059E7202384F83D3066
:10467000002384F83C30012051E702204FE702205C
:104680004DE701204BE7012049E700BF0200100081
:104690000000FFFF70477047704708B590F83D3045
:1046A000DAB2438D9BB283B1416A0368097819611C
:1046B000436A01334362438D9BB2013B9BB2438506
:1046C000438D9BB20BB9292A00D008BD02685368FC
:1046D00023F48063536021230363282380F83D3053
:1046E000FFF7DAFFF1E7704708B590F83D30DAB22E
:1046F000438D9BB283B103681969436A1970436A99
:1047000001334362438D9BB2013B9BB24385438D92
:104710009BB20BB92A2A00D008BD0268536823F463
:104720008063536022230363282380F83D30FFF722
:10473000DAFFF1E7704700B583B090F83D3003F041
:104740002803282B0CD000230193026851690191A2
:1047500092690192019A80F83C3003B05DF804FB45
:104760000268536823F48063536011F0040F0BD088
:10477000002311F0800F09D18289002180F83C10BC
:104780001946FFF7D7FFE8E70123F2E7028BF4E7CA
:104790007047000010B5044690F83D30DBB2C26AA5
:1047A000082A01D0202A01D1282B06D0212B1FD086
:1047B00023686FF480625A6110BD1D4BE36222686A
:1047C000536823F4E063536023686FF480625A6196
:1047D0002268136823F4806313600023236320227C
:1047E00084F83D2084F83E302046FFF7D1FFE3E710
:1047F0000F4BE36221232363202384F83D30002301
:1048000084F83E302268536823F4E06353602368E1
:104810006FF480625A612268136823F48063136026
:104820002046FEF7F9FE2046FFF736FFC4E700BF3B
:104830000000FFFF704708B5C26A90F83D30DBB258
:10484000212B00D008BD438D9BB263B1426A03683F
:1048500012781A61436A01334362438D9BB2013B74
:104860009BB24385EEE7082A04D0202A02D012F535
:10487000803F19D10268536823F4E06353600268F3
:10488000136843F40073136000230363202380F84C
:104890003D3090F83E30DBB2402B15D0002380F83D
:1048A0003E30FFF7F7FECDE70268536823F4E0637C
:1048B000536011230363002380F83E30202380F8E7
:1048C0003D30FFF7E7FEBDE7002380F83E30FFF7FD
:1048D000B1FFB7E708B590F83D30026D9AB9C36CE7
:1048E000012B08D0836C0268C3F307231361036DA7
:1048F0000133036508BD836C0268DBB21361036D8D
:1049000002330365F6E7DBB2026D012A23D0026DA4
:10491000022A3ED1222B26D0428D92B20AB1212BFF
:104920002AD0428D92B2002AE4D1212BE2D1026832
:10493000536823F4E06353600268136843F4007320
:10494000136000230363202280F83D2080F83E306E
:10495000FFF770FFCEE7836C0268DBB21361036D73
:1049600001330365C6E70268136843F4807313607C
:10497000036D01330365BDE7426A036812781A616B
:10498000436A01334362438D9BB2013B9BB2438533
:10499000B0E7FEF741FEADE710B590F83D30DBB271
:1049A00090F83E20D2B2C46A018D00293BD1212B60
:1049B00002D0402A42D010BD082C04D0202C02D0B6
:1049C00014F5803F19D10268536823F4E063536003
:1049D0000268136843F40073136000230363202309
:1049E00080F83D3090F83E30DBB2402B15D00023EC
:1049F00080F83E30FFF74EFEDDE70268536823F48F
:104A0000E063536011230363002380F83E302023CA
:104A100080F83D30FFF73EFECDE7002380F83E30C2
:104A2000FFF708FFC7E7212BC3D1438D9BB243B9E2
:104A30000268536823F480635360BCE7222BBAD129
:104A4000F3E790F83E30DBB2402B0CD0426A0368AB
:104A500012781A61436A01334362438D9BB2013B72
:104A60009BB24385A7E7FFF735FFA4E7704708B57A
:104A7000C26A438D9BB2042B14D0438D9BB2032B8F
:104A800022D0438D9BB2022B39D003681A69436A46
:104A90001A70436A01334362438D9BB2013B9BB260
:104AA000438510E00268536823F480635360036811
:104AB0001A69436A1A70436A01334362438D9BB299
:104AC000013B9BB2438508BD01684B6823F48063BA
:104AD0004B60042A06D0022A04D00268136823F42B
:104AE0008063136003681A69436A1A70436A01336A
:104AF0004362438D9BB2013B9BB24385E3E7531E68
:104B00000F2B42D8DFE803F0083B413B41414141D4
:104B1000414141414141410801680B6823F48063F0
:104B20000B6003681969436A1970416A4B1C436240
:104B3000438D9BB2013B9BB2438503681B694B705D
:104B4000436A01334362438D9BB2013B9BB2438571
:104B500001684B6823F440734B60202380F83D309C
:104B600090F83E30DBB2402B15D0002380F83E3069
:104B7000082A17D0202A15D01223036314E00168F5
:104B80000B6843F480630B60CBE701680B6843F468
:104B900000730B60C5E7002380F83E300363FFF726
:104BA00065FF90E700230363FFF775FD8BE7704710
:104BB00038B590F83D30DBB2222B00D038BD04462A
:104BC000C56A438D9BB2032B15D903681A69436AE2
:104BD0001A70436A01334362438D9BB2013B9BB21F
:104BE0004385438D9BB2032BE8D10268536823F4BD
:104BF00080635360E2E7C26A022A01D0012B05D923
:104C00002268536823F480635360D7E7FEF7AEFE53
:104C1000002835D12268136823F48063136022686A
:104C2000536823F4E063536023681A69636A1A7057
:104C3000636A01336362638D9BB2013B9BB2638500
:104C4000202384F83D3094F83E30DBB2402B09D06D
:104C5000002384F83E30082D0CD0202D0AD01223DA
:104C6000236309E0002384F83E3023632046FFF7E6
:104C7000FDFEA3E7002323632046FFF70CFD9DE71D
:104C80002268536823F4E063536023681A69636AF7
:104C90001A70636A01336362638D9BB2013B9BB2FE
:104CA0006385202384F83D30002384F83E3020467D
:104CB000FFF77DFF82E7704700B583B000230193C3
:104CC000806B90F83D20D2B2324B1B68DB08324932
:104CD000A1FB03131B0A03EB8303C3EBC303019381
:104CE000019B43B1019B013B019303681B6813F4D3
:104CF000007FF5D103E0036C43F020030364436BB2
:104D00000BB10021D963836B0BB10021D96301681A
:104D10000B6823F480630B6000234385436B0BB166
:104D200000211965836B0BB10021196501680B68BF
:104D300023F001030B6090F83D30DBB2602B0ED006
:104D400002F02802282A14D0202380F83D300023C6
:104D500080F83E30FFF72BFF03B05DF804FB202303
:104D600080F83D30002380F83E300364FFF7A3FF56
:104D7000F2E70268136843F00103136002681368E6
:104D800043F48063136000230363282380F83D30DD
:104D9000E0E700BF0800002089B5F81410B504460C
:104DA00090F83D30DBB290F83E20D2B2102A36D0D7
:104DB000402A34D003F02802282A38D022685268CA
:104DC00012F4006F07D1602B05D0202384F83D300A
:104DD000002384F83E300023236323685A6812F4CA
:104DE000006F48D05A6822F400625A60626B92F8F1
:104DF0003530DBB2012B20D0444B1365606BFEF7DE
:104E000024FA002849D02268136823F001031360B4
:104E1000202384F83D30606B036D98473DE0222BE2
:104E2000C8D121680A6822F400620A60C2E7002340
:104E30002363282384F83D30CFE7A36B334A1A65F8
:104E4000A06BFEF702FA40B323685A6912F0400FD4
:104E500005D01A69636A1A70636A01336362226853
:104E6000136823F001031360202384F83D30A06B06
:104E7000036D984711E094F83D20D2B2602A1FD00C
:104E80005A6912F0400F05D01A69636A1A70636A92
:104E9000013363622046FFF78AFE236C13F00F0F85
:104EA00004D02268536823F4E063536094F83D30E3
:104EB000DBB2226C12F0040F01D0282B18D010BDE9
:104EC000202284F83D20002222645A6912F0400F0B
:104ED00005D01A69636A1A70636A013363622268D3
:104EE000136823F0010313602046FFF7E4FED4E7C4
:104EF000074BE36200232363202284F83D2084F8DB
:104F00003E302046FFF744FCD9E700BFB94C00080B
:104F10000000FFFF30B583B0044690F83D50EDB27D
:104F20000268536823F4E06353600023019303682D
:104F30005A6901921A6842F001021A60019B0268E4
:104F4000136823F48063136003685A6812F4006FD7
:104F500038D0222D21D02A2D1FD0426B12685268E2
:104F600092B24285428D92B21AB1026C42F00402B2
:104F700002645A6822F400625A60606BFEF766FAB7
:104F800001281FD0636B444A1A65606BFEF75DF918
:104F9000C0B1606B036D984714E0A26B1268526851
:104FA00092B26285628D92B21AB1226C42F0040212
:104FB00022645A6822F400625A60A06BFEF746FA37
:104FC000012842D1638D9BB233B323685A6912F032
:104FD000040F0AD01A69636A1A70636A0133636244
:104FE000638D9BB2013B9BB2638523685A6912F0C3
:104FF000400F0AD01A69636A1A70636A01336362E8
:10500000638D9BB2013B9BB26385638D9BB21BB1E9
:10501000236C43F004032364236C13BB2A2D25D097
:1050200094F83D30DBB2282B29D0236B222B01D002
:10503000222D19D100232363202284F83D2084F8F7
:105040003E302046FFF74FFB0EE0A36B124A1A6575
:10505000A06BFEF7FAF80028B4D0A06B036D984758
:10506000B0E72046FFF79AFE03B030BD002323636C
:10507000282384F83D302046FFF735FBD0E7074B67
:10508000E36200232363202284F83D2084F83E302D
:105090002046FFF77DFBE7E7B94C00080000FFFF63
:1050A000F8B5044602685568C66A90F83E30DBB22F
:1050B00090F83D10C8B2102B13D0402B11D0236CA8
:1050C000002B7AD05369002113F0020F78D015F429
:1050D000007F75D0236C03B191692046FFF72BFB4D
:1050E000F8BDD2F818C0516911F0010705D1B6F525
:1050F0002A0FF5D0B6F12A4FF2D017B115F4007F80
:1051000029D111F0080F02D015F4007F2AD111F037
:10511000020F02D015F4007F28D11CF0040F31D00B
:10512000526812F4006FDBD111F0800F05D015F436
:10513000806F02D011F0040F1CD011F0040FCFD0FB
:1051400015F4007FCCD0212818D0402BC8D12046A0
:10515000FFF7C0FBC4E72046FEF745FC2046FEF7FC
:1051600063FABDE72046FEF7B3FAB9E72046FEF73B
:10517000C5FAB5E72046FFF70FFCB1E72046FFF779
:105180005AFBADE7536813F4006FA9D111F0400F3B
:1051900005D015F4806F02D011F0040F09D011F082
:1051A000040F9DD015F4007F9AD02046FFF75FFCD6
:1051B00096E72046FFF7FCFC92E79169536983E785
:1051C00013F0100F02D015F4007F18D121281AD047
:1051D000292818D013F0400F05D015F4806F02D0A5
:1051E00013F0040F28D013F0040F3FF479AF15F437
:1051F000007F3FF475AF2046FEF7A8FB70E720461E
:10520000FFF788FE6CE713F0800F05D015F4806F70
:1052100002D013F0040F0BD013F0040F3FF460AF73
:1052200015F4007F3FF45CAF2046FEF77FFB57E7A5
:105230002046FFF732FA53E72046FFF755FA4FE7CB
:10524000F8B5044603685D695F6890F83E20D2B205
:10525000C5F3002615F4807F08D0C7F3002617F4A5
:10526000807F03D06FF480715961012615F4007FAF
:1052700008D017F4807F05D046F0020623686FF44B
:105280000071596115F4806F19D017F4807F16D022
:10529000638D99B294F83D30DBB2206B202A1BD08D
:1052A00023686FF48061596146F00406102A01D02A
:1052B000402A04D12268136843F40073136015F484
:1052C000006F17D017F4807F14D046F008062368CB
:1052D0006FF400625A610EE00029E1D1212B05D064
:1052E000292B03D0282BDBD12128D9D12046FFF749
:1052F00051FAE4E72EB1236C334323642046FFF7D1
:105300004DFDF8BD034AD2F8883043F47003C2F86B
:105310008830704700ED00E010B503460C4A0D4997
:105320000D48006840B10C4800680344521A93428B
:1053300006D8094A136010BD0748084C0460F2E71C
:1053400001F0AAF80C2303604FF0FF30F3E700BF31
:1053500000000220000400003C070020900800200C
:105360000120704708B501F097F8162303604FF04D
:10537000FF3008BD08B54FF0FF31FFF7F3FFFEE740
:1053800070B50C461646002506E0AFF300802146B6
:1053900001F8010B01350C46B542F6DB304670BD15
:1053A00070B50C461646002504E014F8010BAFF367
:1053B00000800135B542F8DB304670BD4FF0FF305C
:1053C00070474FF400534B60002070470120704736
:1053D00000207047DFF834D0FFF794FF0C480D49E8
:1053E0000D4A002302E0D458C4500433C4188C4240
:1053F000F9D30A4A0A4C002301E013600432A242A6
:10540000FBD301F04FF8FBF749FC70470000022086
:1054100000000020D4010020089C0008D4010020D6
:105420008C080020FEE7002100F036BF0EB410B556
:105430009DB01FAB029006906FF000410A480791A3
:1054400004910A4953F8042B0591002402A900682D
:1054500001931B9401F078FC029B1C701DB0BDE809
:10546000104003B0704700BF840100200802FFFF16
:105470000EB470B59DB021AC00254FF4017254F804
:10548000046BADF814201B9502900690FAF788FE85
:105490000B4B039007900B480B934FF6FF73ADF83F
:1054A00016303246234602A900680F9514950194E0
:1054B00001F0A0FD1DB0BDE8704003B0704700BF13
:1054C000EB5400088401002010B50C46B1F90E1011
:1054D00000F0BEFF0028ABBF636DA3891B1823F447
:1054E0008053ACBF6365A38110BD002070472DE9D8
:1054F000F0411F468B89DB0505460C46164605D54F
:10550000B1F90E100223002200F090FFA389B4F934
:105510000E1023F48053A38132463B462846BDE853
:10552000F04100F0A7BF10B50C46B1F90E1000F025
:105530007DFFB4F90C30421C0BBF23F4805343F4BD
:105540008053A381A38118BF606510BDB1F90E100F
:1055500000F0D0BF002310B50446C0E90033C0E915
:105560000433836081814366C281836119460822C6
:105570005C3000F0BBFE0D4B63620D4BA3620D4B24
:10558000E3620D4B23630D4B24629C4206D003F172
:105590006802944202D0D0339C4205D104F15800F5
:1055A000BDE8104000F0A2BF10BD00BFC954000804
:1055B000EF540008275500084D550008400700200B
:1055C000024A0349034800F073BE00BF0C000020EC
:1055D000957B00088801002041680C4B994210B56A
:1055E000044601D002F0D6FAA168094B994202D0D4
:1055F000204602F0CFFAE168064B994204D02046DB
:10560000BDE8104002F0C6BA10BD00BF4007002040
:10561000A8070020100800200C4B0D4A0D4810B5BB
:1056200004211A600022FFF795FF0A4B01221C4655
:10563000092103F16800FFF78DFF04F1D000022279
:10564000BDE810401221FFF785BF00BF7808002099
:10565000C155000840070020014800F048BF00BFC6
:105660007D080020014800F043BF00BF7D080020F6
:1056700010B50446FFF7F0FF236A1BB1BDE81040E8
:10568000FFF7F0BF044B2362044B1B68002BF5D1DE
:10569000FFF7C2FFF2E700BFD955000878080020E5
:1056A00070B504460D4645EC104B164602F020FE40
:1056B00051EC100B7EB1C5F30A53C3F16B03002B01
:1056C00009DD1B0503F17F55002405F54015224631
:1056D0002B46FAF779FF41EC100B70BD000000007B
:1056E0002DE9F04F9DB00E461592002204901892BD
:1056F0004FF000084FF0000917910A782B2A0D4649
:1057000001F101011DD00BD80D2A06D8082AF3D8C3
:105710007AB100230B939A4683E0202AECD0F8E775
:105720002D2A10D10122691C17910B926A78002A48
:1057300037D1159B1796002B40F0958542464B4676
:105740002AE00022EFE700210B91302A40F09B80F5
:105750006A7802F0DF02582A5AD102930B9B019318
:1057600018AB0093814A049819AB17A900F0B8FF51
:1057700010F00F06044605D0062E14D10135002383
:1057800017950B93159B002B40F06F850B9B002BFF
:10579000D4D0424609F1004343EC102B1DB0BDE8C4
:1057A000F08F0D46D1E7189A3AB135211AA802F0C8
:1057B00099FE1899049802F05FFA013E042E06D86B
:1057C000DFE806F014031E211400DDE91A89E00564
:1057D00048BF49F0004929F000431B0D1B05002B71
:1057E000D0D100F059FE22230360CBE7DDE91A8314
:1057F000199A23F4801302F2334243EA0259E6E78E
:10580000DFF87091E3E76FF000494FF0FF38DEE713
:10581000013517952B78302BFAD0002BB2D04FF0F2
:10582000010A00272B460E97BB460A21184613F89B
:10583000014BA4F13002092A28D94D49012200F078
:105840005DFD002834D00020CDE9060022465C46EC
:10585000652A01D0452A14D124B95AEA00033FF43D
:1058600068AF0024179E731C179372782B2A73D08D
:105870002D2A77D04FF0000CA2F13003092B7FD9ED
:10588000179600239EE04FF0000ACAE7BBF1080F0D
:10589000D8BF0E9A1793DBBF01FB0242303A01FBDF
:1058A00007420E92C8BFA2F130070BF1010BBDE712
:1058B000179B5A1C17925A78BBF1000F34D00690F0
:1058C0005C46A2F13003092B12D901230793BFE7ED
:1058D000179B5A1C17925A780130302AF8D0A2F13F
:1058E0003103082B00F2C6840690179D0020044661
:1058F000303A00F1010311D006991944069123466C
:1059000020440A21834203F101040FD1082B18DC43
:105910000E990A2303FB01230E930023179A511CAF
:10592000179152781846CCE75846D6E7082B04DC86
:105930000E9C4C430E940133E4E7102CD8BF4F4328
:10594000F9E70F2BDCBF0A2303FB0727E5E700215C
:105950000123CDE9061380E74FF0000CB31C179329
:10596000B27889E74FF0010CF8E700BFBC99000856
:10597000B09700080000F07F179B5A1C17925A78C6
:10598000302AF9D0A2F13103082B3FF67AAF179BEA
:105990000593A2F1300E013317931A78A2F130016A
:1059A00009293CD905995B1A082B44F61F633CDC96
:1059B0009E457146A8BF19460591BCF1000F02D063
:1059C000059B5B420593002C50D15AEA00007FF4FE
:1059D000D9AE079B002B7FF4ACAE692A29D026DC18
:1059E000492A26D04E2A7FF4A4AEA14917A801F077
:1059F00099F800283FF49DAE179B1B78282B2FD1D8
:105A00009C491AAA17A801F0A1F8052828D11B9BC8
:105A1000DDF8688043F0FF4949F4E009B2E60A2165
:105A200001FB0E22A2F1300EB5E70593C5E76E2A01
:105A3000D9E7914917A801F075F800283FF479AE2D
:105A4000179B8E49013B17A8179301F06BF810B90B
:105A5000179B01331793DFF834924FF0000891E65B
:105A6000874800F065FD59EC108B8BE6DDE90532C7
:105A70000E989B1ABBF1000F08BFA346102C0A9387
:105A8000A246A8BF4FF0100AFAF724FD092C804661
:105A9000894613DC0A9B002B3FF474AE0A9B73DD2E
:105AA000162B5ADC774901EBC301D1E900014246CC
:105AB0004B46FAF789FD8046894663E6714B03EB56
:105AC000CA0353E91223FAF77FFD80463846894618
:105AD000FAF700FD02460B4640464946FAF7BEFB80
