:020000040800F2
:10000000000002206D0200082702000829020008F3
:100010002B0200082D0200082F020008000000003B
:100020000000000000000000000000003102000895
:100030003302000800000000350200083702000803
:10004000BD020008BD020008BD020008BD02000894
:10005000BD020008BD020008BD020008BD02000884
:10006000BD020008BD020008BD020008BD02000874
:10007000BD020008BD020008BD020008BD02000864
:10008000BD020008BD020008BD020008000000001B
:10009000000000000000000000000000BD02000899
:1000A000BD020008BD020008BD020008BD02000834
:1000B000BD020008BD020008BD020008BD02000824
:1000C000BD020008BD020008BD020008BD02000814
:1000D000BD020008BD020008BD02000800000000CB
:1000E000BD020008BD020008BD02000800000000BB
:1000F000000000000000000000000000BD02000839
:1001000000000000BD020008BD020008BD0200089A
:1001100000000000000000000000000000000000DF
:10012000BD020008BD020008BD020008BD020008B3
:10013000BD020008000000000000000000000000F8
:10014000000000000000000000000000BD020008E8
:10015000BD020008BD020008BD020008BD02000883
:10016000BD020008BD020008000000000000000001
:10017000000000000000000000000000000000007F
:1001800000000000BD0200080000000000000000A8
:08019000BD020008BD020008D9
:100198000348044B834202D0034B03B1184770470E
:1001A8000400002004000020000000000548064B61
:1001B8001B1AD90F01EBA301491002D0034B03B15D
:1001C80018477047040000200400002000000000C9
:1001D80010B5064C237843B9FFF7DAFF044B13B187
:1001E8000448AFF300800123237010BD04000020F1
:1001F800000000000803000808B5054B1BB10549BD
:100208000548AFF30080BDE80840FFF7CFBF00BF47
:10021800000000000800002008030008FEE7FEE7D1
:10022800FEE7FEE7FEE7FEE770477047704708B550
:1002380000F002F808BD0000034A1168034B1B7860
:100248000B441360704700BF20000020000000200E
:10025800034AD2F8883043F47003C2F888307047F4
:1002680000ED00E0DFF834D0FFF7F2FF0C480D494D
:100278000D4A002302E0D458C4500433C4188C42F9
:10028800F9D30A4A0A4C002301E013600432A2425F
:10029800FBD300F011F8FFF7C1FF70470000022000
:1002A80000000020040000202803000804000020AB
:1002B80024000020FEE7000070B50D4D0D4C641BB6
:1002C800A4100026A64209D10B4D0C4C00F018F8DA
:1002D800641BA4100026A64205D170BD55F8043B46
:1002E80098470136EEE755F8043B98470136F2E7A0
:1002F8002003000820030008200300082403000846
:10030800F8B500BFF8BC08BC9E467047F8B500BFFA
:08031800F8BC08BC9E467047CA
:0403200001020008CE
:04032400D9010008F3
:0403280001000000D0
:040000050800026D80
:00000001FF
