:020000040800F2
:1000000000000220B5070008290200082B020008A2
:100010002D0200082F020008310200080000000035
:100020000000000000000000000000003302000893
:1000300035020008000000003702000839020008FD
:10004000050800080508000805080008050800085C
:10005000050800080508000805080008050800084C
:10006000050800080508000805080008050800083C
:10007000050800080508000805080008050800082C
:100080000508000805080008050800080000000031
:10009000000000000000000000000000050800084B
:1000A00005080008050800080508000805080008FC
:1000B00005080008050800080508000805080008EC
:1000C00005080008050800080508000805080008DC
:1000D00005080008050800084102000800000000AB
:1000E00005080008050800080508000800000000D1
:1000F00000000000000000000000000005080008EB
:1001000000000000050800080508000805080008B0
:1001100000000000000000000000000000000000DF
:10012000050800080508000805080008050800087B
:1001300005080008000000000000000000000000AA
:10014000000000000000000000000000050800089A
:10015000050800080508000805080008050800084B
:100160000508000805080008000000000000000065
:10017000000000000000000000000000000000007F
:10018000000000000508000800000000000000005A
:0801900005080008050800083D
:100198000348044B834202D0034B03B1184770470E
:1001A8000400002004000020000000000548064B61
:1001B8001B1AD90F01EBA301491002D0034B03B15D
:1001C80018477047040000200400002000000000C9
:1001D80010B5064C237843B9FFF7DAFF044B13B187
:1001E8000448AFF300800123237010BD04000020F1
:1001F800000000005008000808B5054B1BB1054970
:100208000548AFF30080BDE80840FFF7CFBF00BF47
:10021800000000000800002050080008FEE77047B2
:10022800FEE7FEE7FEE7FEE7FEE770477047704728
:1002380008B500F09FFA08BD08B5024800F0ECF8D0
:1002480008BD00BF20000020026802F10C0353E83B
:10025800003F23F490730C3242E800310029F3D1B7
:10026800026802F1140353E8003F23F0010314323B
:1002780042E800310029F3D1036B012B05D020237C
:1002880080F84230002303637047026802F10C03D0
:1002980053E8003F23F010030C3242E800310029F4
:1002A800F3D1ECE790F84130DBB2212B01D00220EA
:1002B80070478368B3F5805F17D0036A5A1C0262DF
:1002C8001A7803685A60C38C9BB2013B9BB2C38403
:1002D8004BB90268D36823F08003D3600268D368FF
:1002E80043F04003D360002070470369002BE4D13A
:1002F800036A1B880268C3F308035360036A023366
:100308000362E0E708B50168CA6822F04002CA60E3
:10031800202280F84120FFF782FF002008BD7047A7
:10032800704708B5806B0023C385FFF7F9FF08BD48
:10033800704790F84230DBB2222B69D18368B3F55D
:10034800805F4FD0826AB3F5805F04D0002B56D10E
:100358000369002B53D103685B681370836A013308
:100368008362C38D9BB2013B9BB2C385002B51D1E5
:1003780000B583B00268D36823F02003D360026815
:10038800D36823F48073D3600268536923F00103B0
:100398005361202380F8423000234363036B012B11
:1003A80033D100230363026802F10C0353E8003FD2
:1003B80023F010030C3242E800310029F3D103681E
:1003C8001A6812F0100F06D0002201921A680192E2
:1003D8005B680193019B818DFFF7AAFF002003B0A2
:1003E8005DF804FB0269002AACD1826A03685B6885
:1003F800C3F308031380836A02338362B1E7036897
:100408005B6803F07F031370A8E7FFF788FFE5E751
:10041800022070470020704710B582B00446026879
:100428001368D068516913F00F0F09D113F0200F2A
:100438000CD010F0200F09D02046FFF77AFF16E005
:1004480011F0010115D110F4907F12D1216B01290F
:1004580079D013F0800F03D010F0800F40F0218185
:1004680013F0400F03D010F0400F40F01E8102B08F
:1004780010BD13F0010F06D010F4807F03D0626C1A
:1004880042F00102626413F0040F04D019B1626CE7
:1004980042F00202626413F0020F04D019B1626CD8
:1004A80042F00402626413F0080F07D010F0200F26
:1004B80000D119B1626C42F008026264626C002AD1
:1004C800D5D013F0200F02D010F0200F29D12368C7
:1004D8005B6903F04003626C12F0080F00D163B34C
:1004E8002046FFF7B1FE23685B6913F0400F20D068
:1004F800226802F1140353E8003F23F0400314324A
:1005080042E800310029F3D1E36B73B1694A1A65F7
:10051800E06B00F01BF90028A9D0E06B036D984749
:10052800A5E72046FFF705FFD1E72046FFF7F8FECD
:100538009DE72046FFF7F4FE99E72046FFF7F0FE17
:100548000023636493E713F0100F82D010F0100FAC
:100558003FF47FAF0023019313680193536801931D
:10056800019B536913F0400F5FD0E26B13685B681F
:100578009BB2002B4AD0A18D994247D9E385D36914
:10058800B3F5807F37D0226802F10C0353E8003FAF
:1005980023F480730C3242E800310029F3D1226839
:1005A80002F1140353E8003F23F00103143242E838
:1005B80000310029F3D1226802F1140353E8003F07
:1005C80023F04003143242E800310029F3D12023FC
:1005D80084F8423000232363226802F10C0353E8B5
:1005E800003F23F010030C3242E800310029F3D118
:1005F800E06B00F061F802236363A18DE38D9BB289
:10060800C91A89B22046FFF793FE30E7A18D9942B7
:100618007FF42DAFD369B3F5807F7FF428AF022331
:1006280063632046FFF784FE21E7A18DE38D9BB22B
:10063800C91A89B2E38D9BB2002B3FF418AF002989
:100648003FF415AF226802F10C0353E8003F23F48E
:1006580090730C3242E800300028F3D1226802F18E
:10066800140353E8003F23F00103143242E800303A
:100678000028F3D1202384F8423000232363226822
:1006880002F10C0353E8003F23F010030C3242E858
:1006980000300028F3D1022363632046FFF748FEA9
:1006A800E5E62046FFF7FEFDE1E62046FFF72AFED5
:1006B800DDE600BF2B03000870B50446866D00F028
:1006C80065F894F83530DBB2022B06D080236365D9
:1006D800002384F83430012070BD05462268136871
:1006E80023F0160313602268536923F080035361D3
:1006F800236CE3B12268136823F0080313602268AF
:10070800136823F00103136023681B6813F0010FBB
:1007180011D000F03BF8431B052BF5D92023636566
:10072800032084F83500002384F83430D4E7A36C20
:10073800002BDFD1E3E7E26D3F239340B360012351
:1007480084F83530002084F83400C5E790F8353057
:10075800DBB2022B03D080234365012070470523B9
:1007680080F835300268136823F001031360002015
:1007780070470000034A1168034B1B780B44136051
:10078800704700BF6800002000000020014B186877
:10079800704700BF68000020034AD2F8883043F44D
:1007A8007003C2F88830704700ED00E0DFF834D0FD
:1007B800FFF7F2FF0C480D490D4A002302E0D45818
:1007C800C4500433C4188C42F9D30A4A0A4C002393
:1007D80001E013600432A242FBD300F011F8FFF7E6
:1007E8001DFD7047000002200000002004000020CA
:1007F80070080008040000206C000020FEE70000DC
:1008080070B50D4D0D4C641BA4100026A64209D1ED
:100818000B4D0C4C00F018F8641BA4100026A642DF
:1008280005D170BD55F8043B98470136EEE755F8F9
:10083800043B98470136F2E7680800086808000892
:10084800680800086C080008F8B500BFF8BC08BCC8
:100858009E467047F8B500BFF8BC08BC9E46704776
:040868000102000881
:04086C00D9010008A6
:040870000100000083
:04000005080007B533
:00000001FF
